:020000040800F2
:100000000000012055140008F9110008FF11000834
:10001000051200080B120008111200080000000071
:100020000000000000000000000000001122000895
:10003000171200080000000061240008FD140008E9
:10004000A5140008A5140008A5140008A5140008AC
:10005000A5140008A5140008A51400083D0B00080D
:10006000A5140008A5140008A5140008A51400088C
:10007000A5140008A5140008A5140008A51400087C
:10008000A5140008A5140008A5140008A51400086C
:10009000A5140008A5140008A5140008A51400085C
:1000A000A514000825120008A5140008A5140008CE
:1000B000A514000800000000000000004D0B00081F
:1000C000A5140008610B0008A5140008A514000879
:1000D000A51400089D0F0008890F0008A51400084A
:1000E000A5140008A514000800000000000000008E
:1000F0000000000000000000000000000000000000
:1001000000000000A514000800000000A51400086D
:100110000000000000000000A5140008A51400085D
:10012000A5140008A5140008A5140008A5140008CB
:10013000A5140008000000000000000000000000FE
:10014000A5140008A5140008A5140008A5140008AB
:10015000A5140008A5140008A5140008A51400089B
:10016000A5140008A5140008A5140008000000004C
:10017000A5140008A5140008A5140008000000003C
:0C018000A5140008A5140008A514000830
:1001900010B5054C237833B9044B13B10448AFF3C1
:1001A00000800123237010BDB80100200000000072
:1001B000CC83000808B5034B1BB103490348AFF3D8
:1001C000008008BD00000000BC010020CC830008B6
:1001D00053B94AB9002908BF00281CBF4FF0FF31AE
:1001E0004FF0FF3000F070B9ADF1080C6DE904CEAE
:1001F00000F006F8DDF804E0DDE9022304B0704702
:100200002DE9F047089E0D4604460F46002B4AD1C3
:100210008A42944665D9B2FA82F343B102FA03FCEA
:10022000C3F120029F4020FA02F217439C404FEA9C
:100230001C4E1FFA8CF5B7FBFEF1220C0EFB11775A
:1002400042EA074201FB05F090420AD91CEB020288
:1002500001F1FF3780F01C81904240F21981023990
:100260006244121AA4B2B2FBFEF00EFB102244EA62
:10027000024400FB05F5A5420AD91CEB040400F179
:10028000FF3280F00781A54240F2048164440238C5
:1002900040EA0140641B00211EB1DC400023C6E996
:1002A0000043BDE8F0878B4208D9002E00F0ED80B6
:1002B0000021C6E900050846BDE8F087B3FA83F1DE
:1002C000002949D1AB4202D3824200F2F880841A5D
:1002D00065EB030201201746002EE2D0C6E9004775
:1002E000DFE702B9FFDEB2FA82F3002B40F0908024
:1002F0008A1A4FEA1C471FFA8CFE0121B2FBF7F560
:1003000007FB1520220C42EA00420EFB05F090424A
:1003100008D91CEB020205F1FF3802D2904200F22C
:10032000CB804546121AA4B2B2FBF7F007FB1022AD
:1003300044EA02440EFB00FEA64508D91CEB040467
:1003400000F1FF3202D2A64500F2BB801046A4EBBA
:100350000E0440EA05409FE7C1F120078B4022FAD6
:1003600007FC4CEA030C05FA01F420FA07F3FD4000
:100370004FEA1C492343B5FBF9F81FFA8CFE09FB31
:1003800018551C0C44EA054408FB0EF5A54202FA78
:1003900001F200FA01F00BD91CEB040408F1FF3A5A
:1003A00080F08880A54240F28580A8F1020864446C
:1003B000641B9DB2B4FBF9F309FB134445EA044402
:1003C00003FB0EFEA64508D91CEB040403F1FF3520
:1003D0006CD2A6456AD9023B644443EA0843A3FBB6
:1003E0000295A4EB0E04AC42C846AE4656D353D099
:1003F00056B1B0EB080264EB0E0404FA07F7CA40EA
:10040000CC401743C6E9007418460021BDE8F087C8
:10041000C3F1200102FA03FC20FA01F225FA01F1EE
:100420009D402A434FEA1C471FFA8CFEB1FBF7F0B0
:1004300007FB1015110C41EA054100FB0EF58D423A
:1004400004FA03F408D91CEB010100F1FF382FD2A4
:100450008D422DD902386144491B92B2B1FBF7F5A8
:1004600007FB151142EA014205FB0EF1914208D942
:100470001CEB020205F1FF3816D2914214D9023D5D
:100480006244521A45EA004138E73146304608E7EF
:100490003946E6E61046FBE64845A9D2B9EB020824
:1004A00065EB0C0E013BA3E74546EAE72B4694E7D4
:1004B0004046D1E7D0467BE7023D624432E708463A
:1004C0000AE76444023842E7704700BF80B582B053
:1004D00000AF78604FF4FA7001F006F9FAE7000017
:1004E00080B500AF084A0021084801F06BF80346C8
:1004F000074A1360064B1B68002B01D1002300E064
:100500000123184680BD00BF68840008CD040008A0
:10051000D401002090B583B000AF03460A46FB71BA
:100520001346BB713E4B1B68002B0BD1002001F022
:10053000F6F803463A4A1360394B1B68002B01D189
:10054000002369E0B979FB79364A184600F012FBBE
:10055000034683F00103DBB2002B01D000235BE0F4
:10056000FA79314913465B001344DB000B440C332A
:100570001B68FC79184601F0BBF902462A4923465C
:100580005B002344DB000B4410331A60FA792649E0
:1005900013465B001344DB000B4410331B68002B35
:1005A00001D1002338E0214B1B68002B0DD1204ADC
:1005B0000821142001F022FA03461C4A13601B4B49
:1005C0001B68002B01D1002326E0FFF789FF0346BB
:1005D00083F00103DBB2002B01D000231CE0FA7989
:1005E000114913465B001344DB000B440A3300221D
:1005F0001A70104B1B68002B0DD10F4A00210F48B9
:1006000000F0E0FF03460B4A13600A4B1B68002B07
:1006100001D1002300E0012318460C37BD4690BDF0
:10062000DC0100206908000800000020D80100203B
:10063000B0840008E00100208C8400084106000816
:1006400090B587B000AF786000233B6100233B6129
:1006500000F0F6F838613B69002BF7D03B6903F0F6
:100660000103002B02D00023FB7506E03B6903F079
:100670000203002B01D00123FB75FA7D6D4913465F
:100680005B001344DB000B440A331B78032B00F0A0
:10069000A480032B00F3C980002B02D0022B2BD0A7
:1006A000C3E0FA7D634913465B001344DB000B444F
:1006B00008331B88FC7D0121184607F0C1FC034666
:1006C00019465C4A23465B002344DB001344043391
:1006D0001960FA7D574913465B001344DB000B4455
:1006E00000221A60FA7D534913465B001344DB0075
:1006F0000B440A3302221A700023FB7358E0FB7B81
:100700000A2B02D0FB7B3E2B2ED1FA7D49491346A2
:100710005B001344DB000B4404331968FA7D454841
:1007200013465B001344DB0003441B680B44FA7B55
:100730001A70FA7D3F4913465B001344DB000B44FB
:100740001B68591C3B4813465B001344DB00034401
:100750001960FA7D374913465B001344DB000B44F4
:100760000A3303221A702DE0FA7D324913465B00EA
:100770001344DB000B4404331968FA7D2D481346FB
:100780005B001344DB0003441B680B44FA7B1A70C4
:10079000FA7D284913465B001344DB000B441B68B9
:1007A000591C244813465B001344DB0003441960C2
:1007B00007F10F02FB7D1146184600F0C3FB03460C
:1007C000002B9CD1FA7D1B4913465B001344DB00D0
:1007D0000B440A331B78032B29D1FA7D15491346A4
:1007E0005B001344DB000B4404331B68124A1360A4
:1007F000FA7D104913465B001344DB000B441B6871
:100800009AB20D4B9A800D4B1868642328220A492E
:1008100001F068F9FA7D074913465B001344DB00D9
:100820000B440A3300221A7002E000BF0EE700BF3B
:100830000CE700BF00000020E4010020D8010020E8
:1008400080B582B000AF074B18684FF0FF3300222D
:10085000032100F0E7FF78607B6818460837BD4643
:1008600080BD00BFDC01002080B582B000AF034630
:10087000FB71FB79002B0AD10E4B1B680121184636
:1008800000F08CFF0346002B0FD100230EE0FB7914
:10089000012B0AD1074B1B680221184600F07EFF8E
:1008A0000346002B01D1002300E00123184608373E
:1008B000BD4680BDDC01002080B58CB000AF034692
:1008C0000A46FB711346BB71FB791A2B01D9002331
:1008D00026E1BB79012B01D9002321E107F11C039B
:1008E00000221A605A609A60DA601A618E4B1B7897
:1008F00003F00803002B12D18C4BDB6C8B4A43F0C6
:100900008003D364894BDB6C03F08003BB61BB695C
:10091000854B1B7843F00803DAB2834B1A70FA79DF
:1009200083491346DB009B1A9B000B441B68814ADA
:1009300093423DD07F4A934254DCB3F1904F03D0B1
:100940007D4A93421AD04DE0774B1B7803F00103A8
:10095000002B49D1754BDB6C744A43F00103D3641F
:10096000724BDB6C03F001037B617B696E4B1B7880
:1009700043F00103DAB26C4B1A7035E06A4B1B7816
:1009800003F00203002B31D1684BDB6C674A43F064
:100990000203D364654BDB6C03F002033B613B69EC
:1009A000614B1B7843F00203DAB25F4B1A701DE013
:1009B0005D4B1B7803F00403002B19D15B4BDB6C00
:1009C0005A4A43F00403D364584BDB6C03F004032E
:1009D000FB60FB68544B1B7843F00403DAB2524BC4
:1009E0001A7005E000239BE000BF02E000BF00E0BA
:1009F00000BFFA794E491346DB009B1A9B000B445B
:100A00001868FA794A491346DB009B1A9B000B448D
:100A100004331B689BB20022194604F069FBFA7983
:100A200043491346DB009B1A9B000B4404331B68AD
:100A3000FB61FA793E491346DB009B1A9B000B448D
:100A400008331B683B62FA7939491346DB009B1A6D
:100A50009B000B440C331B68BB62FA793449134684
:100A6000DB009B1A9B000B4410331B687B62FA79F6
:100A70002F491346DB009B1A9B000B4414331B6861
:100A8000FB62FA792A491346DB009B1A9B000B4450
:100A90001B6807F11C021146184604F0AFF9FA79F9
:100AA00023491346DB009B1A9B000B4418331B7829
:100AB000002B1BD0FA791E491346DB009B1A9B00C2
:100AC0000B44193393F9003000220521184604F035
:100AD000EBF8FA7916491346DB009B1A9B000B448E
:100AE000193393F90030184604F0FAF8BB79002B5B
:100AF00015D1FA790E491346DB009B1A9B000B4473
:100B00001868FA790A491346DB009B1A9B000B44CC
:100B100004331B689BB20122194604F0E9FA012351
:100B200018463037BD4680BDEC0100200010024061
:100B3000E8840008000800480004004880B500AFC1
:100B4000022004F0EDFA00BF80BD000080B500AFC8
:100B5000024804F008FB00BF80BD00BF4402002033
:100B600080B500AF024804F0FEFA00BF80BD00BFB0
:100B70004402002080B582B000AF03463A60FB71AA
:100B80000B46BB71FB79012B01D90023DDE0BB795A
:100B9000072B01D90023D8E0FB79184600F0E0F8D4
:100BA000034683F00103DBB2002B01D00023CCE02D
:100BB000FA79F979674813465B0013441B01034433
:100BC0001A686548942301FB03F303441A60BA7959
:100BD000FB79624951F822205F49942000FB03F31E
:100BE0000B4404331A60FA79F9795A4813465B00CA
:100BF00013441B01034404331A685748942301FB30
:100C000003F3034408331A60FA79F979514813461B
:100C10005B0013441B01034408331A684E489423B5
:100C200001FB03F303440C331A60FA79F97949485C
:100C300013465B0013441B0103440C331A684648F7
:100C4000942301FB03F3034410331A60FA79F97912
:100C5000404813465B0013441B01034410331A68D9
:100C60003D48942301FB03F3034414331A60FA79DB
:100C7000F979384813465B0013441B0103441433CD
:100C80001A683548942301FB03F3034418331A60B0
:100C9000FA79F9792F4813465B0013441B0103448A
:100CA00018331A682C48942301FB03F303441C33C4
:100CB0001A60FA79F979274813465B0013441B013F
:100CC00003441C331A682448942301FB03F30344B0
:100CD00020331A60FA79F9791E4813465B001344F1
:100CE0001B01034420331A681B48942301FB03F3C0
:100CF000034424331A60FB79942202FB03F3164A5F
:100D00001344184605F0DCFE0346002B01D000F02A
:100D1000D5F9FB79104A942101FB03F31344903376
:100D20003A681A60FB79942202FB03F30A4A981886
:100D3000FB79942202FB03F38833074A13440433FC
:100D40000122194605F014FF012318460837BD4655
:100D500080BD00BFDC870008300000203C88000810
:100D600080B59CB000AF0346FB71FA794B4913463E
:100D70005B0013441B010B4424331B7801211846EC
:100D8000FFF79AFD034683F00103DBB2002B01D08D
:100D900000237EE0FA79414913465B0013441B01AE
:100DA0000B4425331B7801211846FFF785FD0346C8
:100DB00083F00103DBB2002B01D0002369E0FB7953
:100DC000942202FB03F38033354A13440433962103
:100DD000184600F079FA034683F00103DBB2002BDA
:100DE00001D0002355E007F11003602200211846CE
:100DF00007F0F8F9FB79012B23D101233B61002394
:100E00003B6307F11003184604F02CFA0346002B4D
:100E100001D000F053F9234B1B6E224A43F4804368
:100E20001366204B1B6E03F48043FB60FB680022BB
:100E30000521252003F038FF252003F051FF012371
:100E400027E0FB79002B23D102233B6100237B6346
:100E500007F11003184604F005FA0346002B01D0F1
:100E600000F02CF90F4B9B6D0E4A43F40033936551
:100E70000C4B9B6D03F40033BB60BB680022052163
:100E8000262003F011FF262003F02AFF012300E0B3
:100E9000002318467037BD4680BD00BFDC870008C0
:100EA000300000200010024080B582B000AF7860B2
:100EB0007B681A68204B1B689A4218D11E4BD3F8E6
:100EC00084301D4A92F88C201146184600F07FFAB3
:100ED000194B93F88C300A2B04D1174BD3F8903070
:100EE0000020984701221549134805F041FE7B6810
:100EF0001A68114BD3F894309A4218D10E4BD3F89C
:100F000018310D4A92F88C201146184600F05FFA0D
:100F1000094B93F820310A2B04D1074BD3F8243125
:100F20000120984701220549054805F021FE00BF30
:100F30000837BD4680BD00BF30000020BC00002047
:100F4000C400002080B582B000AF03463960FB7159
:100F5000FB790C4A942101FB03F3134484331B688F
:100F60003968184600F0F2F9034683F00103DBB25A
:100F7000002B01D0002300E0012318460837BD46AE
:100F800080BD00BF3000002080B500AF024805F0F2
:100F900045FE00BF80BD00BF3000002080B500AF1F
:100FA000024805F03BFE00BF80BD00BFC40000202A
:100FB00080B500AF07F00BF800F020F80321012006
:100FC000FFF7A8FA03210020FFF7A4FA01210A2065
:100FD000FFF772FC00F0ACFA054A0021054800F06A
:100FE000F1FA0346044A136000F0C6FAFEE700BFB8
:100FF0005C880008871000089802002080B596B031
:1010000000AF07F1140344220021184607F0EAF864
:101010003B4600221A605A609A60DA601A614FF407
:10102000007004F0C9F80346002B01D000F046F828
:1010300001237B614FF48033BB610023FB6307F125
:101040001403184604F04AFC0346002B01D000F0BC
:1010500035F80F233B6002237B600023BB604FF415
:10106000A063FB604FF4A0633B613B460021184640
:1010700005F048F80346002B01D000F01FF800BF30
:101080005837BD4680BD80B582B000AF78604FF460
:10109000FA7000F029FBFAE780B582B000AF786003
:1010A0007B681B68044A934201D106F0A9FF00BF88
:1010B0000837BD4680BD00BF002C014080B400AFA2
:1010C00072B600BFFEE7000080B582B000AF114BE2
:1010D0001B6E104A43F0010313660E4B1B6E03F0A8
:1010E00001037B607B680B4B9B6D0A4A43F0805386
:1010F0009365084B9B6D03F080533B603B68002277
:101100000F216FF0010003F0CFFD00BF0837BD468F
:1011100080BD00BF0010024080B58CB000AF786089
:10112000002387F82F302F4B1B6E2E4A43F40063A9
:1011300013662C4B1B6E03F40063BB60BB6807F1A6
:101140000C0207F110031146184605F09DF905F051
:1011500085F903465B00BB62BB6A234AA2FB0323FB
:101160009B0C013B7B62214B214A1A601F4B40F2D2
:10117000E732DA601D4A7B6A53601C4B00221A6119
:101180001A4B00229A60194B00229A61174805F009
:101190002BFA034687F82F3097F82F30002B1BD1FE
:1011A000124805F083FA034687F82F3097F82F305E
:1011B000002B11D1192003F093FD7B680F2B08D869
:1011C00000227968192003F06FFD0A4A7B681360DA
:1011D00002E0012387F82F3097F82F301846303778
:1011E000BD4680BD0010024083DE1B439C020020F0
:1011F000002C01406001002080B400AFFEE780B405
:1012000000AFFEE780B400AFFEE780B400AFFEE7BA
:1012100080B400AFFEE780B400AF00BFBD465DF80C
:10122000047B704780B500AF024805F093FA00BF19
:1012300080BD00BF9C02002080B586B000AF786002
:10124000144A154BD31A7B617B693B61134B1B68B6
:10125000002B02D1114B124A1A60104B1A687B689E
:1012600013443A699A4207D207F02AF803460C223F
:101270001A604FF0FF3309E0084B1B68FB60074B17
:101280001A687B681344054A1360FB6818461837D0
:10129000BD4680BD0000012000040000E8020020DF
:1012A000D81D002080B400AF064BD3F88830054A23
:1012B00043F47003C2F8883000BFBD465DF8047B7C
:1012C000704700BF00ED00E090B583B000AF7860DC
:1012D0000B467B801421012006F0B2FE03461A461D
:1012E0007B681A607B68002B01D100232AE07A8892
:1012F0007B681C680121104606F0A2FE03462360AD
:101300007B681B681B68002B09D17B681B6818462B
:1013100006F0B4FE7B6800221A60002312E07B68AE
:101320001B687A88DA607B681B6801225A747B88A4
:101330005A1E7B681B689A607B885A1E7B681B68F4
:101340005A60012318460C37BD4690BD80B483B067
:1013500000AF786039607B68002B01D1002330E05A
:101360007B681B68002B01D100232AE07B685B7C33
:10137000002B01D0002324E07B689B6801337A684E
:10138000D268B3FBF2F101FB02F29A1A7B689A6011
:101390007B681A687B689B6813441A783B681A70EC
:1013A0007B6800221A747B689A687B685B689A4243
:1013B00006D17B6801225A747B689A687B685A6000
:1013C000012318460C37BD465DF8047B704780B496
:1013D00083B000AF78600B46FB707B68002B01D1B7
:1013E000002331E07B681B68002B01D100232BE038
:1013F0007B685B6801337A68D268B3FBF2F101FB6A
:1014000002F29A1A7B685A607B681A687B685B688C
:101410001344FA781A707B6800225A747B685A6801
:101420007B689B689A420ED17B6801221A747B68A4
:101430005B6801337A68D268B3FBF2F101FB02F218
:101440009A1A7B689A60012318460C37BD465DF8EE
:10145000047B7047DFF834D0FFF724FF0C480D49B8
:101460000D4A002302E0D458C4500433C4188C42FF
:10147000F9D30A4A0A4C002301E013600432A24265
:10148000FBD306F023FFFFF793FDFEE700000120EA
:1014900000000020B8010020D8880008B801002012
:1014A000D81D0020FEE7000080B483B000AF0346E3
:1014B0003960FB7197F90730002B0ADB3B68DAB221
:1014C0000C4997F907301201D2B20B4483F800237C
:1014D0000AE03B68DAB20849FB7903F00F03043BEA
:1014E0001201D2B20B441A7600BF0C37BD465DF82C
:1014F000047B704700E100E000ED00E080B500AF44
:10150000054B1B6802F0B2FE0346012B01D000F030
:10151000DBFF00BF80BD00BF10E000E080B500AF82
:1015200000216FF00400FFF7BFFF00BF80BD000087
:1015300080B483B000AFEFF305833B603B68002BC2
:1015400003D06FF005037B600CE00A4B1B68002B97
:1015500005D1084B01221A6000237B6002E04FF0A6
:10156000FF337B607B6818460C37BD465DF8047B13
:10157000704700BFEC02002080B582B000AFEFF3EF
:1015800005833B603B68002B03D06FF005037B6055
:1015900010E00B4B1B68012B09D1FFF7BFFF084B75
:1015A00002221A6002F068F900237B6002E04FF02B
:1015B000FF337B607B6818460837BD4680BD00BF9F
:1015C000EC02002080B58EB004AFF860B9607A609C
:1015D00000233B61EFF305837B617B69002B7ED1A8
:1015E000FB68002B7BD080233B621823FB61002328
:1015F0007B624FF0FF33BB617B68002B45D07B687B
:101600001B68002B02D07B681B687B627B689B6930
:10161000002B02D07B689B69FB61FB69002B08D023
:10162000FB69382B05D87B685B6803F00103002B4E
:1016300001D0002354E07B685B69002B03D07B68FA
:101640005B699B083B627B689B68002B0ED07B68C4
:10165000DB68A72B0AD97B681B69002B06D07B6847
:101660005B69002B02D00123BB6110E07B689B68A3
:10167000002B0CD17B68DB68002B08D17B681B69D1
:10168000002B04D10023BB6101E00023BB61BB69D7
:10169000012B10D17B681B697A68926802920193D2
:1016A000FB690093BB683A6A796AF86801F0F8FE52
:1016B00003463B6113E0BB69002B10D13B6A9AB231
:1016C00007F110030193FB690093BB68796AF8681E
:1016D00001F043FF0346012B01D000233B613B692E
:1016E00018462837BD4680BD80B584B000AF78600D
:1016F000EFF30583BB60BB68002B03D06FF00503DD
:10170000FB6007E00023FB607B68002B02D0786859
:1017100002F07EF8FB6818461037BD4680BD80B5E4
:1017200086B000AF786000237B61EFF30583FB6038
:10173000FB68002B2DD14FF0FF333B617B68002B02
:1017400015D07B689B68002B06D07B68DB681F2B5D
:1017500002D901233B610CE07B689B68002B08D118
:101760007B68DB68002B04D100233B6101E0002390
:101770003B613B69012B06D17B689B68184600F0F2
:1017800045FA786105E03B69002B02D100F075FA5B
:1017900078617B6918461837BD4680BD80B586B034
:1017A00000AF786039607B683B613B69002B04D0F7
:1017B0003B6803F07F43002B03D06FF003037B6192
:1017C00028E0EFF30583FB60FB68002B1DD00023AE
:1017D000BB6007F108031A463968386900F0F0FB6E
:1017E0000346002B03D16FF002037B6112E03B68DC
:1017F0007B61BB68002B0DD0094B4FF080521A6003
:10180000BFF34F8FBFF36F8F04E03968386900F082
:101810001DFB78617B6918461837BD4680BD00BF47
:1018200004ED00E080B58CB002AFF860B9607A607A
:101830003B60FB68BB61BB69002B04D0BB6803F055
:101840007F43002B03D06FF00303FB614BE0EFF30A
:1018500005837B617B69002B03D06FF00503FB617F
:1018600041E07B6803F00103002B02D001237B627F
:1018700001E000237B627B6803F00203002B02D0AF
:1018800000233B6201E001233B623B6800937B6ADB
:101890003A6AB968B86900F00BFAF8617B6803F03E
:1018A0000103002B10D0BA68FB691340BA689A4252
:1018B00019D03B68002B03D06FF00103FB6112E0ED
:1018C0006FF00203FB610EE0BA68FB691340002B66
:1018D00009D13B68002B03D06FF00103FB6102E0EC
:1018E0006FF00203FB61FB6918462837BD4680BDD7
:1018F00080B588B000AF78600023FB61EFF305830B
:10190000BB60BB68002B74D17B68002B03D07B6865
:101910005B68BB6101E00023BB61BB6903F00103AD
:10192000002B02D001237B6101E000237B61BB69B6
:1019300003F00803002B5CD14FF0FF333B617B6861
:10194000002B15D07B689B68002B06D07B68DB687A
:101950004F2B02D901233B610CE07B689B68002B75
:1019600008D17B68DB68002B04D100233B6101E0D8
:1019700000233B613B69012B12D17B69002B07D00F
:101980007B689B681946042001F087F9F86116E02E
:101990007B689B681946012001F07FF9F8610EE031
:1019A0003B69002B0BD17B69002B04D0042001F094
:1019B0005CF9F86103E0012001F057F9F861FB6977
:1019C000002B0CD07B68002B03D07B681B68FB606E
:1019D00001E00023FB60F968F86901F003FDFB6991
:1019E000002B06D07B69002B03D0FB6943F0010379
:1019F000FB61FB6918462037BD4680BD80B58AB0C3
:101A000002AFF860B9607A600023FB61EFF30583F1
:101A10003B613B69002B5FD1FB68002B5CD0BB684E
:101A2000002B59D04FF0FF33BB617B68002B29D0CE
:101A30007B689B68002B12D07B68DB684F2B0ED92C
:101A40007B681B69002B0AD07B685A69FB68B96800
:101A500001FB03F39A4202D30123BB6114E07B68CC
:101A60009B68002B10D17B68DB68002B0CD17B6856
:101A70001B69002B08D17B685B69002B04D1002314
:101A8000BB6101E00023BB61BB69012B0BD17B680B
:101A90001A697B689B6800210091B968F86800F0BA
:101AA000F5FFF86108E0BB69002B05D10022B96899
:101AB000F86801F063F8F861FB69002B0CD07B68D3
:101AC000002B03D07B681B687B6101E000237B61F6
:101AD0007969F86901F086FCFB6918462037BD4634
:101AE00080BD000080B588B000AFF860B9603B6091
:101AF0001346FB71FB68BB610023FB61EFF30583B9
:101B00007B617B69002B28D0BB69002B05D0BB68AB
:101B1000002B02D03B68002B03D06FF00303FB6166
:101B200038E000233B6107F110020023B968B8696F
:101B300001F0CCF90346012B03D06FF00203FB61E7
:101B400028E03B69002B25D0154B4FF080521A60DE
:101B5000BFF34F8FBFF36F8F1CE0BB69002B02D028
:101B6000BB68002B03D16FF00303FB6112E000237D
:101B70003A68B968B86901F0ABF80346012B09D09F
:101B80003B68002B03D06FF00103FB6102E06FF0B4
:101B90000203FB61FB6918462037BD4680BD00BFCC
:101BA00004ED00E080B485B000AFF860B9607A6001
:101BB000FB68074A1A60BB68064A1A607B68802285
:101BC0001A6000BF1437BD465DF8047B704700BF44
:101BD000F00200209803002080B485B000AFF860C8
:101BE000B9607A60FB68074A1A60BB68064A1A60E7
:101BF0007B684FF480721A6000BF1437BD465DF8F1
:101C0000047B7047980500204006002080B586B010
:101C100000AF78607B68002B0AD14FF0500383F34C
:101C20001188BFF36F8FBFF34F8F3B6100BFFEE79B
:101C30002023BB60BB68202B0AD04FF0500383F3F6
:101C40001188BFF36F8FBFF34F8FFB6000BFFEE7BC
:101C50007B687B617B69002B0AD07B6900221A605C
:101C60007B690433184600F0BFF97B6901221A77BB
:101C70007B6918461837BD4680BD80B582B000AF7D
:101C8000202000F0B1FC78607B68002B0AD07B68D4
:101C900000221A607B680433184600F0A5F97B68BF
:101CA00000221A777B6818460837BD4680BD0000C1
:101CB00080B590B000AFF860B9607A603B60FB68B7
:101CC0007B630023BB6300233B63FB68002B0AD1CB
:101CD0004FF0500383F31188BFF36F8FBFF34F8F23
:101CE0003B6200BFFEE7BB6803F07F43002B0AD0D6
:101CF0004FF0500383F31188BFF36F8FBFF34F8F03
:101D0000FB6100BFFEE7BB68002B0AD14FF0500318
:101D100083F31188BFF36F8FBFF34F8FBB6100BF99
:101D2000FEE702F0A3FA0346002B02D1BB6C002BA6
:101D300001D1012300E00023002B0AD14FF0500312
:101D400083F31188BFF36F8FBFF34F8F7B6100BFA9
:101D5000FEE701F001FE7B6B1B68FB623A68B96825
:101D6000F86A00F00BF9B862BB6A002B0ED0FB6A70
:101D7000FB630023BB647B68002B28D07B6B1A6855
:101D8000BB68DB431A407B6B1A6020E0BB6C002B06
:101D900004D1FB6AFB6301233B6318E07B68002BE3
:101DA00003D0BB6B43F08073BB633B68002B03D055
:101DB000BB6B43F08063BB637B6B181DBA68BB6B66
:101DC0001343BA6C194601F0C5FF0023FB6301F011
:101DD000D1FD7862BB6C002B31D07B6A002B07D120
:101DE000194B4FF080521A60BFF34F8FBFF36F8FC4
:101DF00002F0C8FAF863FB6B03F00073002B1AD1F2
:101E000000F0D0FA7B6B1B68FB633A68B968F86B2B
:101E100000F0B4F80346002B09D07B68002B06D0F5
:101E20007B6B1A68BB68DB431A407B6B1A6001232B
:101E30003B6300F0E7FAFB6B23F07F43FB63FB6B34
:101E400018464037BD4680BD04ED00E080B58EB039
:101E500000AF7860396000233B637B68BB6200237E
:101E6000FB627B68002B0AD14FF0500383F311888B
:101E7000BFF36F8FBFF34F8F3B6100BFFEE73B683F
:101E800003F07F43002B0AD04FF0500383F31188F7
:101E9000BFF36F8FBFF34F8FFB6000BFFEE7BB6ADE
:101EA00004337B627B6A08333B6201F055FD7B6A39
:101EB000DB687B63BB6A1A683B681A43BB6A1A60BB
:101EC0003CE07B6B5B68FB617B6B1B68BB61002349
:101ED000FB62BB6903F07F437B61BB6923F07F43F7
:101EE000BB617B6903F08063002B08D1BB6A1A6871
:101EF000BB691340002B0BD00123FB6208E0BB6AD7
:101F00001A68BB691340BA699A4201D10123FB6286
:101F1000FB6A002B10D07B6903F08073002B03D089
:101F20003A6BBB6913433B63BB6A1B6843F00073A6
:101F30001946786B01F0DAFFFB697B637A6B3B6AC9
:101F40009A42BED1BB6A1A683B6BDB431A40BB6A3C
:101F50001A6001F00FFDBB6A1B6818463837BD4692
:101F600080BD80B582B000AF78603960396878682C
:101F7000FFF76CFF00BF0837BD4680BD80B487B057
:101F800000AFF860B9607A6000237B617B68002B4A
:101F900007D1FA68BB681340002B0AD001237B618C
:101FA00007E0FA68BB681340BA689A4201D101237E
:101FB0007B617B6918461C37BD465DF8047B704722
:101FC00080B586B000AFF860B9607A607B68BA68A7
:101FD000F968044802F090FD78617B69184618376B
:101FE000BD4680BD631F000880B483B000AF786039
:101FF0007B6803F108027B685A607B684FF0FF3210
:102000009A607B6803F108027B68DA607B6803F101
:1020100008027B681A617B6800221A6000BF0C37D7
:10202000BD465DF8047B704780B483B000AF786034
:102030007B6800221A6100BF0C37BD465DF8047B47
:10204000704780B485B000AF786039607B685B68AA
:10205000FB603B68FA685A60FB689A683B689A6064
:10206000FB689B683A685A60FB683A689A603B680C
:102070007A681A617B681B685A1C7B681A6000BF0B
:102080001437BD465DF8047B704780B485B000AF5F
:10209000786039603B681B68BB60BB68B3F1FF3F89
:1020A00003D17B681B69FB600CE07B680833FB6035
:1020B00002E0FB685B68FB60FB685B681B68BA68F2
:1020C0009A42F6D2FB685A683B685A603B685B6884
:1020D0003A689A603B68FA689A60FB683A685A60A6
:1020E0003B687A681A617B681B685A1C7B681A60B7
:1020F00000BF1437BD465DF8047B704780B485B0DF
:1021000000AF78607B681B69FB607B685B687A68FE
:1021100092689A607B689B687A6852685A60FB682C
:102120005B687A689A4203D17B689A68FB685A6058
:102130007B6800221A61FB681B685A1EFB681A60E4
:10214000FB681B6818461437BD465DF8047B704772
:1021500080B485B000AFF860B9607A60FB68043B7A
:10216000FB60FB684FF080721A60FB68043BFB6009
:10217000BB6823F00102FB681A60FB68043BFB604C
:102180000C4AFB681A60FB68143BFB607A68FB68CA
:102190001A60FB68043BFB60FB686FF002021A6088
:1021A000FB68203BFB60FB6818461437BD465DF8B2
:1021B000047B7047B921000880B485B000AF0023CC
:1021C0007B60124B1B68B3F1FF3F0AD04FF0500306
:1021D00083F31188BFF36F8FBFF34F8FFB6000BF96
:1021E000FEE74FF0500383F31188BFF36F8FBFF307
:1021F0004F8FBB6000BF00BF7B68002BFCD000BFCF
:1022000000BF1437BD465DF8047B70475C010020B9
:10221000074B19680868B0E8F04F80F30988BFF3EE
:102220006F8F4FF0000080F311887047AFF300808C
:102230006016002000BF00BF08480068006880F3F7
:1022400008884FF0000080F3148862B661B6BFF3CF
:102250004F8FBFF36F8F00DF00BF00BF08ED00E0BE
:1022600080B586B000AF464B1B68464A93420AD100
:102270004FF0500383F31188BFF36F8FBFF34F8F7D
:102280003B6100BFFEE73E4B1B683F4A93420AD1C9
:102290004FF0500383F31188BFF36F8FBFF34F8F5D
:1022A000FB6000BFFEE7394B7B617B691B78DBB2CB
:1022B0007B607B69FF221A707B691B78DBB2FB7045
:1022C000FB78DBB203F05003DAB2314B1A70314BBA
:1022D00007221A6009E02F4B1B68013B2D4A13604F
:1022E000FB78DBB25B00DBB2FB70FB78DBB203F0A8
:1022F0008003802BEFD0274B1B68C3F10703042B0F
:102300000AD04FF0500383F31188BFF36F8FBFF3F0
:102310004F8FBB6000BFFEE71E4B1B681B021D4AB0
:1023200013601C4B1B6803F4E0631A4A13607B685C
:10233000DAB27B691A70184B1B68174A43F47003B2
:102340001360154B1B68144A43F07043136000F090
:10235000DDF8124B00221A6000F0FCF8104B1B68ED
:102360000F4A43F040431360FFF766FF01F06AFC39
:10237000FFF722FF002318461837BD4680BD00BF77
:1023800000ED00E071C20F4170C20F4100E400E0B7
:10239000400A0020440A002020ED00E05C010020FB
:1023A00034EF00E080B483B000AF4FF0500383F30C
:1023B0001188BFF36F8FBFF34F8F7B6000BF0F4B50
:1023C0001B6801330D4A13600C4B1B68012B0FD1A6
:1023D0000B4B1B68DBB2002B0AD04FF0500383F38A
:1023E0001188BFF36F8FBFF34F8F3B6000BFFEE7D5
:1023F00000BF0C37BD465DF8047B70475C010020D0
:1024000004ED00E080B483B000AF124B1B68002BDA
:102410000AD14FF0500383F31188BFF36F8FBFF3DE
:102420004F8F7B6000BFFEE70A4B1B68013B094AE8
:102430001360084B1B68002B05D100233B603B68F1
:1024400083F3118800BF00BF0C37BD465DF8047BE5
:10245000704700BF5C010020000000000000000089
:10246000EFF30980BFF36F8F154B1A681EF0100F42
:1024700008BF20ED108A20E9F04F10602DE9090017
:102480004FF0500080F31188BFF34F8FBFF36F8F71
:1024900001F0D8FB4FF0000080F3118809BC1968E7
:1024A0000868B0E8F04F1EF0100F08BFB0EC108ABB
:1024B00080F30988BFF36F8F704700BFAFF30080D0
:1024C0006016002000BF00BF80B582B000AF4FF0A3
:1024D000500383F31188BFF36F8FBFF34F8F7B607F
:1024E00000BF01F0F5FA0346002B03D0064B4FF076
:1024F00080521A6000233B603B6883F3118800BF61
:1025000000BF0837BD4680BD04ED00E080B400AFD9
:102510000B4B00221A600B4B00221A600A4B1B68FF
:102520000A4AA2FB03239B09094A013B1360044B9F
:1025300007221A6000BFBD465DF8047B704700BFEC
:1025400010E000E018E000E058010020D34D6210D8
:1025500014E000E0DFF80C00016841F47001016054
:10256000704700BF88ED00E080B485B000AFEFF3A6
:102570000583FB60FB680F2B14D9174AFB681344D3
:102580001B78FB72154B1B78FA7A9A420AD24FF0ED
:10259000500383F31188BFF36F8FBFF34F8F7B60BE
:1025A00000BFFEE70E4B1B6803F4E0620D4B1B6897
:1025B0009A420AD94FF0500383F31188BFF36F8F0B
:1025C000BFF34F8F3B6000BFFEE700BF1437BD462F
:1025D0005DF8047B704700BFF0E300E0400A002094
:1025E0000CED00E0440A002080B58AB000AF7860AE
:1025F0000023FB6101F0B0F95B4B1B68002B01D19C
:1026000000F020F9594B1A687B681340002B40F00A
:1026100093807B68002B1DD008227B6813447B606D
:102620007B6803F00703002B14D07B6823F00703BB
:1026300008337B607B6803F00703002B0AD04FF060
:10264000500383F31188BFF36F8FBFF34F8F7B610C
:1026500000BFFEE77B68002B6ED0454B1B687A6895
:102660009A4269D8434B3B62424B1B687B6204E051
:102670007B6A3B627B6A1B687B627B6A5B687A6809
:102680009A4203D97B6A1B68002BF1D1364B1B6839
:102690007A6A9A4250D03B6A1B6808221344FB6155
:1026A0007B6A1A683B6A1A607B6A5A687B68D21A2E
:1026B00008235B009A421FD97A6A7B681344BB6186
:1026C000BB6903F00703002B0AD04FF0500383F3DC
:1026D0001188BFF36F8FBFF34F8F3B6100BFFEE7E1
:1026E0007B6A5A687B68D21ABB695A607B6A7A68CF
:1026F0005A60B86900F008F91D4B1A687B6A5B687C
:10270000D31A1B4A13601A4B1A681B4B1B689A4258
:1027100003D2174B1B68184A13607B6A5A68134B25
:102720001B681A437B6A5A607B6A00221A60134B4B
:102730001B680133114A136001F01CF9FB6903F0B7
:102740000703002B0AD04FF0500383F31188BFF327
:102750006F8FBFF34F8FFB6000BFFEE7FB6918462A
:102760002837BD4680BD00BF081600201C1600207B
:102770000C16002000160020101600201416002051
:1027800080B586B000AF78607B687B617B68002B8A
:102790004DD008235B427A6913447B617B693B61BE
:1027A0003B695A68244B1B681340002B0AD14FF039
:1027B000500383F31188BFF36F8FBFF34F8FFB601C
:1027C00000BFFEE73B691B68002B0AD04FF05003A7
:1027D00083F31188BFF36F8FBFF34F8FBB6000BFD0
:1027E000FEE73B695A68144B1B681340002B1ED050
:1027F0003B691B68002B1AD13B695A680E4B1B685A
:10280000DB431A403B695A6001F0A6F83B695A68FD
:102810000A4B1B681344094A1360386900F074F8C6
:10282000074B1B680133064A136001F0A3F800BF91
:102830001837BD4680BD00BF1C1600200C160020B6
:102840001816002080B485B000AF40F6B833BB60E6
:10285000274BFB60FB6803F00703002B0CD0FB68E1
:102860000733FB60FB6823F00703FB60BA68FB6873
:10287000D31A1F4A1344BB60FB687B601D4A7B6808
:1028800013601C4B00225A607B68BA681344FB60DB
:102890000822FB689B1AFB60FB6823F00703FB60C0
:1028A000FB68154A1360144B1B6800225A60124BD8
:1028B0001B6800221A607B683B603B68FA68D21A8A
:1028C0003B685A600C4B1A683B681A603B685B684F
:1028D0000A4A13603B685B68094A1360094B4FF072
:1028E00000421A6000BF1437BD465DF8047B704794
:1028F000480A0020001600200816002010160020AC
:102900000C1600201C16002080B485B000AF786043
:10291000284BFB6002E0FB681B68FB60FB681B68E0
:102920007A689A42F7D8FB68BB60FB685B68BA6854
:1029300013447A689A4208D1FB685A687B685B68DE
:102940001A44FB685A60FB687B607B68BB607B68ED
:102950005B68BA681A44FB681B689A4218D1FB6826
:102960001A68154B1B689A420DD07B685A68FB6841
:102970001B685B681A447B685A60FB681B681A68AE
:102980007B681A6008E00C4B1A687B681A6003E0E9
:10299000FB681A687B681A60FA687B689A4202D002
:1029A000FB687A681A6000BF1437BD465DF8047B87
:1029B000704700BF001600200816002080B584B0C4
:1029C00000AF786039607B68FB60FB68002B0AD140
:1029D0004FF0500383F31188BFF36F8FBFF34F8F16
:1029E000BB6000BFFEE7FFF7DDFCFB681A68FB6811
:1029F000DB6BF968096C01FB03F31A44FB689A600E
:102A0000FB6800229A63FB681A68FB685A60FB68DF
:102A10001A68FB68DB6B013BF968096C01FB03F387
:102A20001A44FB68DA60FB68FF2283F84420FB68E5
:102A3000FF2283F845203B68002B14D1FB681B69FB
:102A4000002B1AD0FB681033184601F0EBF903464F
:102A5000002B12D00C4B4FF080521A60BFF34F8FF7
:102A6000BFF36F8F09E0FB6810331846FFF7BCFA1D
:102A7000FB6824331846FFF7B7FAFFF7C3FC0123BE
:102A800018461037BD4680BD04ED00E080B58EB01D
:102A900002AFF860B9607A603B60FB68002B0AD136
:102AA0004FF0500383F31188BFF36F8FBFF34F8F45
:102AB000BB6200BFFEE73B68002B0AD14FF050031A
:102AC00083F31188BFF36F8FBFF34F8F7B6200BF1B
:102AD000FEE77B68002B02D0BB68002B01D00123EE
:102AE00000E00023002B0AD14FF0500383F311883C
:102AF000BFF36F8FBFF34F8F3B6200BFFEE77B6872
:102B0000002B02D1BB68002B01D1012300E0002380
:102B1000002B0AD14FF0500383F31188BFF36F8F5E
:102B2000BFF34F8FFB6100BFFEE750237B617B69E2
:102B3000502B0AD04FF0500383F31188BFF36F8FEF
:102B4000BFF34F8FBB6100BFFEE77B693B68FB6251
:102B5000FB6A002B0DD0FB6A012283F8462097F810
:102B60003820FB6A009313467A68B968F86800F069
:102B70003FF8FB6A18463037BD4680BD80B58AB045
:102B800002AFF860B9601346FB71FB68002B0AD1F5
:102B90004FF0500383F31188BFF36F8FBFF34F8F54
:102BA0003B6100BFFEE7FB68BA6802FB03F3FB6111
:102BB000FB6950331846FFF717FDB861BB69002B5E
:102BC00011D0BB697B617B6950337B61BB6900229B
:102BD00083F84620FA79BB69009313467A69B9688D
:102BE000F86800F005F8BB6918462037BD4680BD7F
:102BF00080B584B000AFF860B9607A60FB70BB68E4
:102C0000002B03D1BB69BA691A6002E0BB697A681C
:102C10001A60BB69FA68DA63BB69BA681A64012191
:102C2000B869FFF7CBFEBB69FA7883F84C2000BF88
:102C30001037BD4680BD80B582B000AF78607B683C
:102C4000002B0ED07B6800229A607B6800221A60FD
:102C50007B680022DA60002300220021786800F0FF
:102C600037F800BF0837BD4680BD80B586B000AFDD
:102C70000346FB7101237B6100233B61FB791A460C
:102C800039697869FFF77AFFF860F868FFF7D3FFD2
:102C9000FB6818461837BD4680BD80B588B002AFC6
:102CA00003463960FB7101237B6100233B61FB79A3
:102CB00000933B68002239697869FFF7E7FEF86006
:102CC000F868FFF7B8FFFB6818461837BD4680BDA7
:102CD00080B58EB000AFF860B9607A603B600023C9
:102CE0007B63FB683B633B6B002B0AD14FF05003C7
:102CF00083F31188BFF36F8FBFF34F8FBB6200BFA9
:102D0000FEE7BB68002B03D13B6B1B6C002B01D192
:102D1000012300E00023002B0AD14FF0500383F37E
:102D20001188BFF36F8FBFF34F8F7B6200BFFEE749
:102D30003B68022B03D13B6BDB6B012B01D10123E1
:102D400000E00023002B0AD14FF0500383F31188D9
:102D5000BFF36F8FBFF34F8F3B6200BFFEE701F001
:102D600085FA0346002B02D17B68002B01D1012399
:102D700000E00023002B0AD14FF0500383F31188A9
:102D8000BFF36F8FBFF34F8FFB6100BFFEE7FFF70D
:102D900009FB3B6B9A6B3B6BDB6B9A4202D33B6844
:102DA000022B29D13A68B968386B00F00BFAF86247
:102DB0003B6B5B6A002B10D03B6B2433184601F051
:102DC00031F80346002B13D03F4B4FF080521A606E
:102DD000BFF34F8FBFF36F8F0AE0FB6A002B07D062
:102DE000394B4FF080521A60BFF34F8FBFF36F8F94
:102DF000FFF708FB012363E07B68002B03D1FFF79B
:102E000001FB00235CE07B6B002B06D107F1140370
:102E1000184601F0CDF801237B63FFF7F3FA00F0C9
:102E20009BFDFFF7BFFA3B6B93F844305BB2B3F105
:102E3000FF3F03D13B6B002283F844203B6B93F8A8
:102E400045305BB2B3F1FF3F03D13B6B002283F807
:102E50004520FFF7D7FA3A1D07F11403114618462B
:102E600001F0BCF80346002B24D1386B00F0A2FA25
:102E70000346002B18D03B6B10337A681146184676
:102E800000F044FF386B00F02DFA00F073FD0346AC
:102E9000002B7FF47CAF0C4B4FF080521A60BFF3D5
:102EA0004F8FBFF36F8F72E7386B00F01BFA00F0A3
:102EB00061FD6CE7386B00F015FA00F05BFD002354
:102EC00018463837BD4680BD04ED00E080B590B0AF
:102ED00000AFF860B9607A603B60FB68BB63BB6BB6
:102EE000002B0AD14FF0500383F31188BFF36F8F8B
:102EF000BFF34F8FBB6200BFFEE7BB68002B03D15F
:102F0000BB6B1B6C002B01D1012300E00023002BC5
:102F10000AD14FF0500383F31188BFF36F8FBFF3D3
:102F20004F8F7B6200BFFEE73B68022B03D1BB6B78
:102F3000DB6B012B01D1012300E00023002B0AD120
:102F40004FF0500383F31188BFF36F8FBFF34F8FA0
:102F50003B6200BFFEE7FFF707FBEFF311824FF084
:102F6000500383F31188BFF36F8FBFF34F8FFA6164
:102F7000BB61FB697B63BB6B9A6BBB6BDB6B9A4280
:102F800002D33B68022B2FD1BB6B93F8453087F8F7
:102F90003330BB6B9B6BFB623A68B968B86B00F06F
:102FA00011F997F93330B3F1FF3F12D1BB6B5B6A74
:102FB000002B16D0BB6B2433184600F033FF0346BA
:102FC000002B0ED07B68002B0BD07B6801221A608F
:102FD00007E097F833300133DBB25AB2BB6B83F8AA
:102FE00045200123FB6301E00023FB637B6B7B61D6
:102FF0007B6983F3118800BFFB6B18464037BD46E1
:1030000080BD000080B58CB000AFF860B9607A6018
:103010000023FB62FB68BB62BB6A002B0AD14FF046
:10302000500383F31188BFF36F8FBFF34F8F3B6261
:1030300000BFFEE7BB68002B03D1BB6A1B6C002BF3
:1030400001D1012300E00023002B0AD14FF05003EF
:1030500083F31188BFF36F8FBFF34F8FFB6100BF06
:10306000FEE701F003F90346002B02D17B68002B39
:1030700001D1012300E00023002B0AD14FF05003BF
:1030800083F31188BFF36F8FBFF34F8FBB6100BF16
:10309000FEE7FFF787F9BB6A9B6B7B627B6A002BBD
:1030A0001FD0B968B86A00F0F7F87B6A5A1EBB6A8D
:1030B0009A63BB6A1B69002B0FD0BB6A103318469A
:1030C00000F0B0FE0346002B07D03D4B4FF080527E
:1030D0001A60BFF34F8FBFF36F8FFFF793F9012390
:1030E00069E07B68002B03D1FFF78CF9002362E0D5
:1030F000FB6A002B06D107F11003184600F058FFB9
:103100000123FB62FFF77EF900F026FCFFF74AF986
:10311000BB6A93F844305BB2B3F1FF3F03D1BB6AA3
:10312000002283F84420BB6A93F845305BB2B3F1C8
:10313000FF3F03D1BB6A002283F84520FFF762F905
:103140003A1D07F110031146184600F047FF0346E9
:10315000002B23D1B86A00F017F90346002B17D0D3
:10316000BB6A24337A681146184600F0CFFDB86A6E
:1031700000F0B8F800F0FEFB0346002B89D1104B9D
:103180004FF080521A60BFF34F8FBFF36F8F80E70D
:10319000B86A00F0A7F800F0EDFB7AE7B86A00F033
:1031A000A1F800F0E7FBB86A00F0EEF80346002B48
:1031B0003FF46FAF002318463037BD4680BD00BFD7
:1031C00004ED00E080B586B000AFF860B9607A60C9
:1031D00000237B61FB689B6B3B61FB681B6C002BD6
:1031E0000DD1FB681B68002B4DD1FB689B6818460E
:1031F00001F05AF87861FB6800229A6043E07B682E
:10320000002B19D1FB685868FB681B6C1A46B9681B
:1032100005F082F8FB685A68FB681B6C1A44FB686F
:103220005A60FB685A68FB689B689A422BD3FB681C
:103230001A68FB685A6026E0FB68D868FB681B6C5C
:103240001A46B96805F068F8FB68DA68FB681B6C19
:103250005B421A44FB68DA60FB68DA68FB681B684B
:103260009A4207D2FB689A68FB681B6C5B421A445F
:10327000FB68DA607B68022B05D13B69002B02D02A
:103280003B69013B3B613B695A1CFB689A637B6964
:1032900018461837BD4680BD80B582B000AF786053
:1032A00039607B681B6C002B18D07B68DA687B6800
:1032B0001B6C1A447B68DA607B68DA687B689B6801
:1032C0009A4203D37B681A687B68DA607B68D968A6
:1032D0007B681B6C1A46386805F01EF800BF08377B
:1032E000BD4680BD80B584B000AF7860FFF75AF866
:1032F0007B6893F84530FB7311E07B685B6A002BB9
:1033000012D07B682433184600F08CFD0346002B56
:1033100001D000F0C5FEFB7B013BDBB2FB7397F9EC
:103320000F30002BE9DC00E000BF7B68FF2283F850
:103330004520FFF767F8FFF735F87B6893F84430CE
:10334000BB7311E07B681B69002B12D07B681033C4
:10335000184600F067FD0346002B01D000F0A0FEE8
:10336000BB7B013BDBB2BB7397F90E30002BE9DC72
:1033700000E000BF7B68FF2283F84420FFF742F89B
:1033800000BF1037BD4680BD80B584B000AF786007
:10339000FFF708F87B689B6B002B02D10123FB60D1
:1033A00001E00023FB60FFF72DF8FB68184610379B
:1033B000BD4680BD80B584B000AF7860FEF7F2FFF7
:1033C0007B689A6B7B68DB6B9A4202D10123FB60BE
:1033D00001E00023FB60FFF715F8FB681846103783
:1033E000BD4680BD80B485B000AF786039600023F1
:1033F000FB6014E00F4AFB6852F83330002B0BD10E
:103400000C49FB683A6841F833200A4AFB68DB0044
:1034100013447A685A6006E0FB680133FB60FB687E
:10342000072BE7D900BF00BF1437BD465DF8047B0A
:10343000704700BF2016002080B586B000AFF8604E
:10344000B9607A60FB687B61FEF7ACFF7B6993F83B
:1034500044305BB2B3F1FF3F03D17B69002283F8B4
:1034600044207B6993F845305BB2B3F1FF3F03D151
:103470007B69002283F84520FEF7C4FF7B699B6BC4
:10348000002B06D17B6924337A68B968184600F0AE
:103490009DFC7869FFF726FF00BF1837BD4680BD49
:1034A00080B58EB004AFF860B9607A603B607B6B2A
:1034B000002B0AD14FF0500383F31188BFF36F8FB5
:1034C000BFF34F8F3B6200BFFEE7BB6B002B0AD1FF
:1034D0004FF0500383F31188BFF36F8FBFF34F8F0B
:1034E000FB6100BFFEE7A8233B613B69A82B0AD024
:1034F0004FF0500383F31188BFF36F8FBFF34F8FEB
:10350000BB6100BFFEE73B69BB6B002B1ED07B6B32
:10351000002B1BD0BB6B7B627B6A7A6B1A637B6A66
:10352000022283F8A520002303937B6A029307F10C
:10353000140301933B6B00933B687A68B968F868A1
:1035400000F050F8786A00F0F3F801E000237B61A6
:103550007B6918462837BD4680BD80B58CB004AF66
:10356000F860B9603B601346FB80FB889B001846FF
:10357000FFF73AF878617B69002B0ED0A820FFF79F
:1035800033F8F861FB69002B03D0FB697A691A6391
:1035900005E07869FFF7F4F801E00023FB61FB69BF
:1035A000002B17D0FB69002283F8A520FA8800239E
:1035B0000393FB690293FB6A0193BB6A00933B6828
:1035C000B968F86800F00EF8F86900F0B1F8012366
:1035D000BB6102E04FF0FF33BB61BB691846203787
:1035E000BD4680BD80B588B000AFF860B9607A6034
:1035F0003B603B6B186B7B689B001A46A52104F06F
:10360000F1FD3B6B1A6B7B6803F18043013B9B0030
:103610001344BB61BB6923F00703BB61BB6903F0C3
:103620000703002B0AD04FF0500383F31188BFF338
:103630006F8FBFF34F8F7B6100BFFEE7BB68002B2E
:103640001FD00023FB6112E0BA68FB6913441978AC
:103650003A6BFB69134434330A461A70BA68FB6943
:1036600013441B78002B06D0FB690133FB61FB6917
:103670000F2BE9D900E000BF3B6B002283F8432009
:1036800003E03B6B002283F83420BB6A372B01D95F
:103690003723BB623B6BBA6ADA623B6BBA6ADA64A5
:1036A0003B6B00221A653B6B04331846FEF7BCFCEB
:1036B0003B6B18331846FEF7B7FC3B6B3A6B1A614D
:1036C000BB6AC3F138023B6B9A613B6B3A6B5A623F
:1036D0003B6B0022C3F8A0203B6B002283F8A420A0
:1036E0003B6B54334C220021184604F07BFD3B6BAE
:1036F0000C4A9A653B6B0C4ADA653B6B0B4A1A66BF
:103700003A68F968B869FEF723FD02463B6B1A6018
:10371000FB6A002B02D0FB6A3A6B1A6000BF2037AD
:10372000BD4680BD981C0020001D0020681D0020A3
:1037300080B582B000AF7860FEF734FE2D4B1B6879
:1037400001332C4A13602C4B1B68002B09D12A4AE9
:103750007B681360274B1B68012B10D100F0C4FC61
:103760000DE0264B1B68002B09D1234B1B68DA6A3E
:103770007B68DB6A9A4202D81F4A7B681360204B41
:103780001B6801331E4A13601D4B1A687B685A641C
:103790007B68DA6A1B4B1B689A4203D97B68DB6A39
:1037A000184A13607B68DA6A13469B0013449B0037
:1037B000154A1A447B68043319461046FEF741FC4B
:1037C000FEF720FE0D4B1B68002B0ED00A4B1B682A
:1037D000DA6A7B68DB6A9A4207D20C4B4FF0805260
:1037E0001A60BFF34F8FBFF36F8F00BF0837BD461E
:1037F00080BD00BF341B002060160020401B00204D
:10380000501B00203C1B00206416002004ED00E04B
:1038100080B584B000AF78600023FB607B68002B2C
:1038200017D0134B1B68002B0AD04FF0500383F3C3
:103830001188BFF36F8FBFF34F8FBB6000BFFEE7F0
:1038400000F08AF80021786800F0B4FD00F092F8EA
:10385000F860FB68002B07D1064B4FF080521A60CE
:10386000BFF34F8FBFF36F8F00BF1037BD4680BDD2
:103870005C1B002004ED00E080B58AB004AF00239B
:10388000BB6000237B603A46391D07F108031846E8
:10389000FEF788F939687B68BA68029201930023C1
:1038A000009300230A4624492448FFF7F9FD034604
:1038B000234A1360224B1B68002B02D001237B613B
:1038C00001E000237B617B69012B02D100F0C6FD82
:1038D00078617B69012B1BD14FF0500383F3118872
:1038E000BFF36F8FBFF34F8F3B6100BF154B1B685A
:1038F0005433154A1360154B4FF0FF321A60144BC6
:1039000001221A60134B00221A60FEF7A9FC0EE098
:103910007B69B3F1FF3F0AD14FF0500383F3118865
:10392000BFF36F8FBFF34F8FFB6000BFFEE700BF99
:103930001837BD4680BD00BF50840008B94000085C
:10394000581B002060160020B4010020541B0020EA
:10395000401B0020381B002080B400AF044B1B68C4
:103960000133034A136000BFBD465DF8047B704716
:103970005C1B002080B584B000AF0023FB600023F7
:10398000BB60424B1B68002B0AD14FF0500383F3FE
:103990001188BFF36F8FBFF34F8F3B6000BFFEE70F
:1039A000FEF700FD394B1B68013B384A1360374B6B
:1039B0001B68002B62D1364B1B68002B5ED02FE0BA
:1039C000344BDB68DB68FB60FB6818331846FEF796
:1039D00095FBFB6804331846FEF790FBFB68DA6A38
:1039E0002D4B1B689A4203D9FB68DB6A2A4A136095
:1039F000FB68DA6A13469B0013449B00274A1A446B
:103A0000FB68043319461046FEF71BFBFB68DA6AB5
:103A1000234B1B68DB6A9A4202D3224B01221A60B5
:103A20001C4B1B68002BCBD1FB68002B01D000F096
:103A3000FDFB1D4B1B687B607B68002B10D000F0EA
:103A400047F80346002B02D0164B01221A607B6810
:103A5000013B7B607B68002BF1D1134B00221A6085
:103A6000104B1B68002B09D00123BB600F4B4FF09C
:103A700080521A60BFF34F8FBFF36F8FFEF7C2FC07
:103A8000BB6818461037BD4680BD00BF5C1B0020D8
:103A9000341B0020F41A00203C1B00206416002078
:103AA00060160020481B0020441B002004ED00E0AD
:103AB00080B483B000AF054B1B687B607B68184601
:103AC0000C37BD465DF8047B704700BF381B0020F3
:103AD00080B586B000AF00237B614F4B1B68002B85
:103AE00040F08F804D4B1B6801333B614B4A3B6973
:103AF00013603B69002B20D1494B1B681B68002BCE
:103B00000AD04FF0500383F31188BFF36F8FBFF3D8
:103B10004F8F3B6000BFFEE7414B1B68FB60414B92
:103B20001B683F4A13603F4AFB6813603E4B1B68AB
:103B300001333D4A136000F079FB3C4B1B683A6946
:103B40009A4249D3364B1B681B68002B04D1374B74
:103B50004FF0FF321A603FE0314B1B68DB68DB68D7
:103B6000BB60BB685B687B603A697B689A4203D242
:103B70002E4A7B6813602FE0BB6804331846FEF7BB
:103B8000BDFABB689B6A002B04D0BB68183318468B
:103B9000FEF7B4FABB68DA6A254B1B689A4203D970
:103BA000BB68DB6A224A1360BB68DA6A13469B0073
:103BB00013449B001F4A1A44BB680433194610463D
:103BC000FEF73FFABB68DA6A1B4B1B68DB6A9A4256
:103BD000B8D301237B61B5E7174B1B68DA6A154937
:103BE00013469B0013449B000B441B68012B01D917
:103BF00001237B61114B1B68002B07D001237B61E4
:103C000004E00F4B1B6801330D4A13607B691846B3
:103C10001837BD4680BD00BF5C1B0020381B00204C
:103C2000EC1A0020F01A00204C1B0020541B00202E
:103C30003C1B00206416002060160020481B00205A
:103C4000441B002080B485B000AF2A4B1B68002BBA
:103C500003D0294B01221A6046E0274B00221A604C
:103C6000264B1B68FB6010E0FB68002B0AD14FF06D
:103C7000500383F31188BFF36F8FBFF34F8F7B60C7
:103C800000BFFEE7FB68013BFB601D49FA68134675
:103C90009B0013449B000B441B68002BE4D0FA6884
:103CA00013469B0013449B00154A1344BB60BB683A
:103CB0005B685A68BB685A60BB685A68BB6808335F
:103CC0009A4204D1BB685B685A68BB685A60BB689B
:103CD0005B68DB680B4A1360084AFB681360094B9A
:103CE0001B685433084A136000BF1437BD465DF8A3
:103CF000047B70475C1B0020481B00203C1B0020FD
:103D00006416002060160020B401002080B584B045
:103D100000AF786039607B68002B0AD14FF0500308
:103D200083F31188BFF36F8FBFF34F8FFB6000BF2A
:103D3000FEE7074B1B68183319467868FEF7A5F9AC
:103D40000121386800F036FB00BF1037BD4680BD4A
:103D50006016002080B586B000AFF860B9607A6068
:103D6000FB68002B0AD14FF0500383F31188BFF397
:103D70006F8FBFF34F8F7B6100BFFEE7114B1B6856
:103D8000002B0AD14FF0500383F31188BFF36F8FDC
:103D9000BFF34F8F3B6100BFFEE70B4B1B68BA6858
:103DA00042F000429A61084B1B6818331946F868C4
:103DB000FEF747F90121786800F0FCFA00BF1837D8
:103DC000BD4680BD5C1B00206016002080B586B01B
:103DD00000AFF860B9607A60FB68002B0AD14FF041
:103DE000500383F31188BFF36F8FBFF34F8F7B6155
:103DF00000BFFEE70A4B1B6818331946F868FEF748
:103E000020F97B68002B02D04FF0FF33BB6079684C
:103E1000B86800F0CFFA00BF1837BD4680BD00BFBC
:103E20006016002080B586B000AF78607B68DB68E4
:103E3000DB683B613B69002B0AD14FF0500383F3F1
:103E40001188BFF36F8FBFF34F8FFB6000BFFEE79A
:103E50003B6918331846FEF751F91E4B1B68002BBF
:103E60001DD13B6904331846FEF748F93B69DA6A0D
:103E7000194B1B689A4203D93B69DB6A164A1360E7
:103E80003B69DA6A13469B0013449B00134A1A44A9
:103E90003B69043319461046FEF7D3F805E03B6949
:103EA000183319460E48FEF7CCF83B69DA6A0D4B19
:103EB0001B68DB6A9A4205D901237B610A4B012208
:103EC0001A6001E000237B617B6918461837BD4604
:103ED00080BD00BF5C1B00203C1B0020641600203E
:103EE000F41A002060160020481B002080B586B020
:103EF00000AF78603960294B1B68002B0AD14FF066
:103F0000500383F31188BFF36F8FBFF34F8F3B6173
:103F100000BFFEE73B6843F000427B681A607B68A5
:103F2000DB687B617B69002B0AD14FF0500383F380
:103F30001188BFF36F8FBFF34F8FFB6000BFFEE7A9
:103F40007868FEF7DBF87B6904331846FEF7D6F88D
:103F50007B69DA6A124B1B689A4203D97B69DB6A78
:103F60000F4A13607B69DA6A13469B0013449B0077
:103F70000C4A1A447B69043319461046FEF761F86F
:103F80007B69DA6A084B1B68DB6A9A4202D9074BE5
:103F900001221A6000BF1837BD4680BD5C1B00209F
:103FA0003C1B00206416002060160020481B0020E7
:103FB00080B483B000AF7860064B1A687B681A60E3
:103FC000054B1A687B685A6000BF0C37BD465DF828
:103FD000047B70474C1B0020381B002080B588B044
:103FE00000AF786039607B68002B0AD14FF0500336
:103FF00083F31188BFF36F8FBFF34F8F3B6100BF17
:10400000FEE73B68002B0AD14FF0500383F3118881
:10401000BFF36F8FBFF34F8FFB6000BFFEE7FEF76C
:10402000C1F91D4B1B68BB617B685B68BA69D31A19
:104030007B613B681B68B3F1FF3F02D10023FB614A
:1040400023E07B681A68154B1B689A4207D07B688F
:104050005B68BA699A4202D30123FB6115E03B68B1
:104060001B687A699A420BD23B681A687B69D21A3C
:104070003B681A607868FFF79BFF0023FB6104E050
:104080003B6800221A600123FB61FEF7BBF9FB6964
:1040900018462037BD4680BD381B00204C1B002031
:1040A00080B400AF034B01221A6000BFBD465DF82B
:1040B000047B7047481B002080B582B000AF786059
:1040C00000F052F8064B1B68012BF9D9054B4FF055
:1040D00080521A60BFF34F8FBFF36F8FF0E700BFBE
:1040E0006416002004ED00E080B582B000AF00232C
:1040F0007B600CE07A6813469B0013449B00124AD5
:1041000013441846FDF770FF7B6801337B607B68C2
:10411000372BEFD90D48FDF767FF0D48FDF764FF1A
:104120000C48FDF761FF0C48FDF75EFF0B48FDF7FB
:104130005BFF0B4B054A1A600A4B054A1A6000BF29
:104140000837BD4680BD00BF64160020C41A002099
:10415000D81A0020F41A0020081B0020201B002081
:10416000EC1A0020F01A002080B582B000AF19E0F0
:10417000FEF718F9104BDB68DB687B607B68043363
:104180001846FDF7BBFF0D4B1B68013B0B4A136044
:104190000B4B1B68013B0A4A1360FEF733F9786842
:1041A00000F010F8064B1B68002BE1D100BF00BFE8
:1041B0000837BD4680BD00BF081B0020341B00200F
:1041C0001C1B002080B584B000AF78607B6854333E
:1041D000184604F00FF87B6893F8A530002B08D13F
:1041E0007B681B6B1846FEF7CBFA7868FEF7C8FAB7
:1041F00018E07B6893F8A530012B03D17868FEF7AF
:10420000BFFA0FE07B6893F8A530022B0AD04FF07D
:10421000500383F31188BFF36F8FBFF34F8FFB60A1
:1042200000BFFEE700BF1037BD4680BD80B483B03D
:1042300000AF0C4B1B681B68002B04D10A4B4FF0DE
:10424000FF321A6008E0074B1B68DB68DB687B60A5
:104250007B685B68044A136000BF0C37BD465DF89D
:10426000047B7047EC1A0020541B002080B483B0FC
:1042700000AF0B4B1B68002B02D101237B6008E0D1
:10428000084B1B68002B02D102237B6001E0002356
:104290007B607B6818460C37BD465DF8047B704731
:1042A000401B00205C1B002080B586B000AF78600A
:1042B0007B683B6100237B617B68002B56D02E4BD3
:1042C0001B683A699A420AD04FF0500383F3118871
:1042D000BFF36F8FBFF34F8FFB6000BFFEE73B69FB
:1042E0001B6D002B0AD14FF0500383F31188BFF3ED
:1042F0006F8FBFF34F8FBB6000BFFEE73B691B6D45
:104300005A1E3B691A653B69DA6A3B69DB6C9A4263
:104310002CD03B691B6D002B28D13B690433184618
:10432000FDF7ECFE3B69DA6C3B69DA623B69DB6AFC
:10433000C3F138023B699A613B69DA6A0F4B1B682B
:104340009A4203D93B69DB6A0C4A13603B69DA6A1B
:1043500013469B0013449B00094A1A443B690433EB
:1043600019461046FDF76DFE01237B617B691846F7
:104370001837BD4680BD00BF601600203C1B0020E2
:104380006416002080B483B000AF094B1B689B69A2
:104390007B60074B1B68DA6A054B1B68C2F1380269
:1043A0009A617B6818460C37BD465DF8047B704700
:1043B0006016002080B584B000AF78603960214B72
:1043C0001B68FB60204B1B6804331846FDF796FE04
:1043D0007B68B3F1FF3F0AD13B68002B07D01A4B33
:1043E0001B68043319461948FDF72BFE26E0FA68CE
:1043F0007B681344BB60144B1B68BA685A60BA6888
:10440000FB689A4209D2124B1A680F4B1B6804339F
:1044100019461046FDF739FE10E00E4B1A680A4B9C
:104420001B68043319461046FDF72FFE0A4B1B6824
:10443000BA689A4202D2084ABB68136000BF1037BC
:10444000BD4680BD381B002060160020201B0020C8
:10445000F01A0020EC1A0020541B002080B58AB00E
:1044600004AF00237B6100F007FB1C4B1B68002B93
:1044700021D00023FB600023BB603A1D07F1080137
:1044800007F10C031846FDF7A7FB7968BB68FA68CB
:10449000029201930223009300230A461049114817
:1044A000FEF7FEFF0346104A13600F4B1B68002BFC
:1044B00001D001237B617B69002B0AD14FF05003AF
:1044C00083F31188BFF36F8FBFF34F8F3B6100BF42
:1044D000FEE77B6918461837BD4680BD901B00205B
:1044E0005884000821460008941B002080B58AB03B
:1044F00000AFF860B9607A603B6000237B62FB68C4
:10450000002B0AD14FF0500383F31188BFF36F8F54
:10451000BFF34F8F3B6200BFFEE71A4B1B68002BB7
:104520002AD0BB683B617B687B61FB68BB61BB6871
:10453000052B18DCFFF79AFE0346022B09D1114B1D
:10454000186807F1100100233A6BFEF7C1FB78628F
:1045500012E00C4B186807F1100100230022FEF74F
:10456000B7FB786208E0074B186807F110010023D9
:104570003A68FEF7ABFC78627B6A18462837BD467E
:1045800080BD00BF901B002080B588B002AF78606E
:104590003960224B1B68DB68DB687B617B69043315
:1045A0001846FDF7ABFD7B6993F8283003F0040350
:1045B000002B22D07B699A697B68D1187B683A68A6
:1045C000786900F0D1F80346002B1FD00023009338
:1045D00000237A6800217869FFF788FF38613B691A
:1045E000002B13D14FF0500383F31188BFF36F8F6B
:1045F000BFF34F8FFB6000BFFEE77B6993F8283065
:1046000023F00103DAB27B6983F828207B691B6AF7
:104610007869984700BF1837BD4680BD881B0020C9
:1046200080B584B000AF786007F10803184600F049
:1046300057F8F860BB681946F86800F003F800F016
:10464000D5F8F1E780B584B000AF78603960FFF746
:1046500083F907F10803184600F066F8F860BB68B4
:10466000002B30D13B68002B0AD17A68FB689A4254
:1046700006D8FFF77FF9F9687868FFF785FF24E02F
:104680003B68002B08D0134B1B681B68002B01D123
:10469000012300E000233B600F4B18687A68FB6839
:1046A000D31A3A681946FEF7C7FEFFF763F90346C7
:1046B000002B0AD1094B4FF080521A60BFF34F8F85
:1046C000BFF36F8F01E0FFF755F900BF1037BD460C
:1046D00080BD00BF8C1B0020901B002004ED00E07B
:1046E00080B485B000AF78600E4B1B681B68002B50
:1046F00001D1012200E000227B681A607B681B6800
:10470000002B05D1074B1B68DB681B68FB6001E0D1
:104710000023FB60FB6818461437BD465DF8047B38
:10472000704700BF881B002080B584B000AF786060
:10473000FFF7BEF9F8600B4B1B68FA689A4205D286
:1047400000F036F97B6801221A6002E07B680022E3
:104750001A60044AFB681360FB6818461037BD46B0
:1047600080BD00BF981B002080B586B000AFF86008
:10477000B9607A603B6000237B61FB68BA685A606D
:10478000FB68FA681A61BA687B689A4212D87A683C
:104790003B68D21AFB689B699A4202D301237B6172
:1047A0001BE0104B1A68FB68043319461046FDF7EE
:1047B0006CFC12E07A683B689A4206D2BA683B68A1
:1047C0009A4202D301237B6107E0074B1A68FB681A
:1047D000043319461046FDF758FC7B691846183714
:1047E000BD4680BD8C1B0020881B002080B58EB08C
:1047F00002AFCAE07B68002B18DA3B1D0433FB6272
:10480000FB6A002B0AD14FF0500383F31188BFF3EA
:104810006F8FBFF34F8FFB6100BFFEE7FB6A1B6822
:10482000FA6A5068FA6A9268114698477B68002BCA
:10483000C0F2AB80FB68BB62BB6A5B69002B04D033
:10484000BB6A04331846FDF759FC3B461846FFF790
:104850006BFF78627B68092B00F2968001A252F808
:1048600023F000BF8D4800088D4800088D480008DF
:1048700001490008154900085F4900088D480008F3
:104880008D4800080149000815490008BB6A93F8E3
:10489000283043F00103DAB2BB6A83F82820BA68F3
:1048A000BB6A9B69D118BB687A6AB86AFFF75CFF7C
:1048B0000346002B69D0BB6A1B6AB86A9847BB6A7B
:1048C00093F8283003F00403002B5ED0BA68BB6A6B
:1048D0009B691A440023009300230021B86AFFF764
:1048E00005FE38623B6A002B4FD14FF0500383F333
:1048F0001188BFF36F8FBFF34F8FBB6100BFFEE71F
:10490000BB6A93F8283023F00103DAB2BB6A83F85C
:1049100028203AE0BB6A93F8283043F00103DAB26A
:10492000BB6A83F82820BA68BB6A9A61BB6A9B6934
:10493000002B0AD14FF0500383F31188BFF36F8F20
:10494000BFF34F8F7B6100BFFEE7BB6A9A697B6A4A
:10495000D1187B6A7A6AB86AFFF706FF15E0BB6A6E
:1049600093F8283003F00203002B03D1B86AFDF757
:1049700007FF0AE0BB6A93F8283023F00103DAB29C
:10498000BB6A83F8282000E000BF084B1B68391D74
:1049900000221846FEF736FB0346002B7FF42AAFB1
:1049A00000BF00BF3037BD4680BD00BF901B002058
:1049B00080B588B002AF48E02D4B1B68DB681B68F0
:1049C0003B612B4B1B68DB68DB68FB60FB680433D7
:1049D0001846FDF793FBFB681B6AF8689847FB686D
:1049E00093F8283003F00403002B2ED0FB689B695A
:1049F0003A691344BB60BA683B699A420ED9FB68B6
:104A0000BA685A60FB68FA681A61194B1A68FB6841
:104A1000043319461046FDF738FB16E000230093D7
:104A200000233A690021F868FFF760FD78607B6831
:104A3000002B0AD14FF0500383F31188BFF36F8F1F
:104A4000BFF34F8F3B6000BFFEE7094B1B681B683D
:104A5000002BB1D1064B1B687B61064B1B68044AD7
:104A60001360044A7B69136000BF1837BD4680BDE0
:104A7000881B00208C1B002080B582B002AFFDF7A0
:104A800091FC154B1B68002B20D11448FDF7ACFAA4
:104A90001348FDF7A9FA134B104A1A60124B104A3B
:104AA0001A6000230093114B114A10210A20FDF7D0
:104AB000EDFF0346084A1360074B1B68002B05D027
:104AC000054B1B680B491846FEF78CFCFDF79AFC5A
:104AD00000BFBD4680BD00BF901B0020601B0020B2
:104AE000741B0020881B00208C1B00203C1C002015
:104AF0009C1B00206084000880B58AB000AFF8607D
:104B0000B9607A603B606FF001037B61FB68BB6159
:104B1000BB68FB617B683B62064B186807F11401B8
:104B200000233A68FEF7D2F978627B6A1846283784
:104B3000BD4680BD901B002080B485B000AF78607A
:104B40007B6803F00703FB600C4BDB68BB60BA6853
:104B50004FF6FF031340BB60FB681A02BB681343A8
:104B600043F0BF6343F40033BB60044ABB68D360C7
:104B700000BF1437BD465DF8047B704700ED00E0D0
:104B800080B400AF044BDB681B0A03F00703184630
:104B9000BD465DF8047B704700ED00E080B483B053
:104BA00000AF0346FB7197F90730002B0BDBFB7955
:104BB00003F01F02074997F907305B09012000FA4B
:104BC00002F241F8232000BF0C37BD465DF8047B9C
:104BD000704700BF00E100E080B483B000AF03463F
:104BE0003960FB7197F90730002B0ADB3B68DAB2BA
:104BF0000C4997F907301201D2B20B4483F8002315
:104C00000AE03B68DAB20849FB7903F00F03043B82
:104C10001201D2B20B441A7600BF0C37BD465DF8C4
:104C2000047B704700E100E000ED00E080B489B053
:104C300000AFF860B9607A60FB6803F00703FB61BE
:104C4000FB69C3F10703042B28BF0423BB61FB6985
:104C50000433062B02D9FB69033B00E000237B6190
:104C60004FF0FF32BB6902FA03F3DA43BB681A4024
:104C70007B699A404FF0FF317B6901FA03F3D94316
:104C80007B680B40134318462437BD465DF8047B10
:104C9000704780B582B000AF78607868FFF74CFF4E
:104CA00000BF0837BD4680BD80B586B000AF034663
:104CB000B9607A60FB7300237B61FFF761FF786165
:104CC0007A68B9687869FFF7B1FF024697F90F3043
:104CD00011461846FFF780FF00BF1837BD4680BD5C
:104CE00080B582B000AF0346FB7197F907301846D4
:104CF000FFF754FF00BF0837BD4680BD80B485B0C4
:104D000000AF78600023FB737B6893F82530DBB23B
:104D1000022B08D07B680422DA637B68002283F8C8
:104D20002420012322E07B681B681A687B681B68CB
:104D300022F00E021A607B681B681A687B681B6889
:104D400022F001021A607B685B6C03F01C027B6836
:104D50001B6C012101FA02F25A607B68012283F880
:104D600025207B68002283F82420FB7B184614371B
:104D7000BD465DF8047B704780B584B000AF7860B5
:104D80000023FB737B6893F82530DBB2022B05D040
:104D90007B680422DA630123FB7329E07B681B68CC
:104DA0001A687B681B6822F00E021A607B681B6819
:104DB0001A687B681B6822F001021A607B685B6CD2
:104DC00003F01C027B681B6C012101FA02F25A609D
:104DD0007B68012283F825207B68002283F8242049
:104DE0007B689B6B002B03D07B689B6B7868984734
:104DF000FB7B18461037BD4680BD000080B487B0ED
:104E000000AF7860396000237B6154E13B681A6829
:104E100001217B6901FA03F31340FB60FB68002B5F
:104E200000F046813B685B6803F00303012B05D06B
:104E30003B685B6803F00303022B30D17B689B68FF
:104E40003B617B695B00032202FA03F3DB433A69AF
:104E500013403B613B68DA687B695B0002FA03F34D
:104E60003A6913433B617B683A699A607B685B6887
:104E70003B6101227B6902FA03F3DB433A69134089
:104E80003B613B685B681B0903F001027B6902FA26
:104E900003F33A6913433B617B683A695A603B68A4
:104EA0005B6803F00303032B17D07B68DB683B616F
:104EB0007B695B00032202FA03F3DB433A69134088
:104EC0003B613B689A687B695B0002FA03F33A69CD
:104ED00013433B617B683A69DA603B685B6803F0C7
:104EE0000303022B23D17B69DA087B68083253F86D
:104EF00022303B617B6903F007039B000F2202FA1B
:104F000003F3DB433A6913403B613B681A697B69F1
:104F100003F007039B0002FA03F33A6913433B6172
:104F20007B69DA087B680832396943F822107B68AC
:104F30001B683B617B695B00032202FA03F3DB43DE
:104F40003A6913403B613B685B6803F003027B698D
:104F50005B0002FA03F33A6913433B617B683A69E9
:104F60001A603B685B6803F44033002B00F0A080BC
:104F7000584B1B6E574A43F001031366554B1B6E8B
:104F800003F00103BB60BB68534A7B699B08023393
:104F900052F823303B617B6903F003039B000F222F
:104FA00002FA03F3DB433A6913403B617B68B3F1D8
:104FB000904F19D07B68494A934213D07B68484A86
:104FC00093420DD07B68474A934207D07B68464A9C
:104FD000934201D1042308E0072306E0032304E001
:104FE000022302E0012300E000237A6902F00302B9
:104FF000920093403A6913433B6137497B699B08B0
:1050000002333A6941F82320384B9B683B61FB68C7
:10501000DB433A6913403B613B685B6803F48013F0
:10502000002B03D03A69FB6813433B612F4A3B696D
:1050300093602E4BDB683B61FB68DB433A691340AE
:105040003B613B685B6803F40013002B03D03A69B3
:10505000FB6813433B61254A3B69D360234B5B6884
:105060003B61FB68DB433A6913403B613B685B682B
:1050700003F40033002B03D03A69FB6813433B6110
:105080001A4A3B695360194B1B683B61FB68DB4361
:105090003A6913403B613B685B6803F48033002B43
:1050A00003D03A69FB6813433B61104A3B691360C4
:1050B0007B6901337B613B681A687B6922FA03F3E1
:1050C000002B7FF4A3AE00BF00BF1C37BD465DF8C8
:1050D000047B7047001002400000014000040048BB
:1050E00000080048000C004800100048000401407F
:1050F00080B483B000AF78600B467B8013467B7032
:105100007B78002B03D07A887B689A6102E07A88EA
:105110007B689A6200BF0C37BD465DF8047B704720
:1051200080B582B000AF0346FB80084B5A69FB880C
:105130001340002B06D0054AFB885361FB881846B4
:1051400000F006F800BF0837BD4680BD00040140EE
:1051500080B483B000AF0346FB8000BF0C37BD4670
:105160005DF8047B704780B584B000AF78607B68E1
:105170001B689B69FB607B681B681B68BB607B6866
:105180005B6B002B05D07B685B6BBA68F96878684D
:10519000984700BF1037BD4680BD000080B400AF07
:1051A000044B1B6803F4C0631846BD465DF8047BDE
:1051B000704700BF0070004080B485B000AF7860D9
:1051C0007B68B3F5007F30D1234B1B6803F4C063C9
:1051D000B3F5007F38D0204B1B6823F4C0631E4A10
:1051E00043F4007313601D4B1B68322202FB03F370
:1051F0001B4AA2FB03239B0C0133FB6002E0FB680C
:10520000013BFB60144B5B6903F48063B3F5806F73
:1052100002D1FB68002BF2D10F4B5B6903F4806372
:10522000B3F5806F10D103230FE00B4B1B6803F421
:10523000C063B3F5806F07D0074B1B6823F4C063CE
:10524000054A43F480631360002318461437BD46B3
:105250005DF8047B704700BF0070004058010020DB
:1052600083DE1B4380B586B000AF78600023FB74FB
:105270000023BB747B681B6803F40063002B31D0F0
:105280007B685B6CB3F5400F1AD0B3F5400F14D8B0
:10529000002B09D0B3F5000F0FD15D4BDB685C4AE2
:1052A00043F48033D3600CE07B680433002118465C
:1052B00000F022FA0346FB7403E00123FB7400E0D4
:1052C00000BFFB7C002B0BD1514BD3F8883023F46B
:1052D00040027B685B6C4E491343C1F8883001E0A3
:1052E000FB7CBB747B681B6803F40033002B00F06D
:1052F0009E8000237B74464B9B6D03F08053002BF4
:1053000001D1012300E00023002B0DD0404B9B6D09
:105310003F4A43F0805393653D4B9B6D03F08053B0
:10532000BB60BB6801237B743A4B1B68394A43F46A
:105330008073136002F078FEF86009E002F074FEFA
:105340000246FB68D31A022B02D90323FB7405E043
:10535000304B1B6803F48073002BEFD0FB7C002BD9
:105360005AD12B4BD3F8903003F440737B617B69A7
:10537000002B1ED07B68DB6D7A699A4219D0244BD2
:10538000D3F8903023F440737B61214BD3F89030F5
:105390001F4A43F48033C2F890301D4BD3F890304D
:1053A0001B4A23F48033C2F89030194A7B69C2F853
:1053B00090307B6903F00103002B16D002F034FE1D
:1053C000F8600BE002F030FE0246FB68D31A41F2AF
:1053D0008832934202D90323FB7406E00C4BD3F8C6
:1053E000903003F00203002BECD0FB7C002B0BD1A0
:1053F000074BD3F8903023F440727B68DB6D04498F
:105400001343C1F8903009E0FB7CBB7406E000BF99
:105410000010024000700040FB7CBB747B7C012BC1
:1054200005D18D4B9B6D8C4A23F0805393657B682F
:105430001B6803F00103002B0AD0874BD3F8883098
:1054400023F003027B681B6A83491343C1F8883049
:105450007B681B6803F00203002B0AD07E4BD3F855
:10546000883023F00C027B685B6A7B491343C1F8E8
:1054700088307B681B6803F00403002B0AD0764B4E
:10548000D3F8883023F030027B689B6A724913435B
:10549000C1F888307B681B6803F02003002B0AD01A
:1054A0006D4BD3F8883023F440627B68DB6A6A492D
:1054B0001343C1F888307B681B6803F40073002B2A
:1054C0000AD0654BD3F8883023F440227B68DB6B2D
:1054D00061491343C1F888307B681B6803F480631B
:1054E000002B0AD05C4BD3F8883023F440127B6841
:1054F0001B6C59491343C1F888307B681B6803F063
:105500004003002B0AD0544BD3F8883023F4405288
:105510007B681B6B50491343C1F888307B681B685C
:1055200003F08003002B0AD04B4BD3F8883023F4D0
:1055300040427B685B6B48491343C1F888307B6805
:105540001B6803F48073002B0AD0434BD3F88830D8
:1055500023F440327B689B6B3F491343C1F888308A
:105560007B681B6803F40053002B28D03A4BD3F818
:10557000883023F040627B689B6C37491343C1F845
:1055800088307B689B6CB3F1006F06D1324BDB68CF
:10559000314A43F48013D36011E07B689B6CB3F114
:1055A000806F0CD17B6804330121184600F0A4F809
:1055B0000346FB74FB7C002B01D0FB7CBB747B6837
:1055C0001B6803F40023002B28D0234BD3F888302A
:1055D00023F040627B68DB6C1F491343C1F88830BD
:1055E0007B68DB6CB3F1006F06D11B4BDB681A4A9A
:1055F00043F48013D36011E07B68DB6CB3F1806F00
:105600000CD17B6804330121184600F075F803467D
:10561000FB74FB7C002B01D0FB7CBB747B681B689C
:1056200003F48023002B2BD00B4BD3F8883023F0CE
:1056300040627B681B6D08491343C1F888307B6862
:105640001B6DB3F1006F09D1034BDB68024A43F4D1
:105650008013D36014E000BF001002407B681B6D14
:10566000B3F1806F0CD17B6804330121184600F040
:1056700043F80346FB74FB7C002B01D0FB7CBB741E
:105680007B681B6803F48043002B1CD0194BD3F8B4
:10569000883023F040527B685B6D16491343C1F894
:1056A00088307B685B6DB3F1805F0CD17B6804331D
:1056B0000221184600F020F80346FB74FB7C002B07
:1056C00001D0FB7CBB747B681B6803F40043002B98
:1056D0000AD0084BD3F8883023F080427B689B6D5A
:1056E00004491343C1F88830BB7C18461837BD46BF
:1056F00080BD00BF0010024080B584B000AF78606C
:1057000039600023FB73744BDB6803F00303002B49
:1057100018D0714BDB6803F003027B681B689A4268
:105720000DD17B681B68002B09D06B4BDB681B0914
:1057300003F007035A1C7B685B689A4247D0012339
:10574000FB7344E07B681B68032B18D0032B25D820
:10575000012B02D0022B09D020E05F4B1B6803F025
:105760000203002B1DD10123FB731AE05A4B1B6867
:1057700003F48063002B16D10123FB7313E0564B17
:105780001B6803F40033002B0FD1534B1B6803F449
:105790008023002B09D10123FB7306E00123FB7357
:1057A00004E000BF02E000BF00E000BFFB7B002B75
:1057B0000DD1494BDB6823F073027B6819687B6865
:1057C0005B68013B1B010B4343491343CB60FB7BED
:1057D000002B7CD1404B1B683F4A23F08063136051
:1057E00002F022FCB86009E002F01EFC0246BB6831
:1057F000D31A022B02D90323FB7305E0364B1B6837
:1058000003F00063002BEFD1FB7B002B5FD13B68E3
:10581000002B10D1304B1B6923F0784323F4FE4357
:105820007A68926811027A68D268D2060A432A49D5
:1058300013430B6127E03B68012B12D1264B1B69F8
:1058400023F4C00323F4FE437A68926811027A6855
:1058500012695208013A52050A431F4913430B616A
:1058600011E01D4B1B6923F0C06323F4FE437A68EB
:10587000926811027A6852695208013A52060A4344
:10588000154913430B61144B1B68134A43F08063A3
:10589000136002F0C9FBB86009E002F0C5FB0246E4
:1058A000BB68D31A022B02D90323FB7305E00A4B12
:1058B0001B6803F00063002BEFD0FB7B002B06D1AD
:1058C000054B1A697B689B69034913430B61FB7B9A
:1058D00018461037BD4680BD0010024080B588B024
:1058E00000AF78607B68002B02D1012300F002BC7E
:1058F000964B9B6803F00C03BB61944BDB6803F091
:1059000003037B617B681B6803F01003002B00F02E
:10591000E480BB69002B07D0BB690C2B40F08B8067
:105920007B69012B40F08780884B1B6803F00203E2
:10593000002B05D07B689B69002B01D10123D9E3A3
:105940007B681A6A814B1B6803F00803002B04D0A4
:105950007E4B1B6803F0F00305E07C4BD3F89430DA
:105960001B0903F0F003934223D27B681B6A18469D
:1059700000F0BCFD0346002B01D00123BAE3734BBA
:105980001B68724A43F008031360704B1B6823F0D6
:10599000F0027B681B6A6D4913430B606B4B5B68BD
:1059A00023F47F427B68DB691B02684913434B6029
:1059B00025E0664B1B68654A43F008031360634BA0
:1059C0001B6823F0F0027B681B6A604913430B607D
:1059D0005E4B5B6823F47F427B68DB691B025B499B
:1059E00013434B60BB69002B09D17B681B6A1846C7
:1059F00000F07CFD0346002B01D001237AE300F088
:105A000081FC0246514B9B681B0903F00F03504970
:105A1000CB5C03F01F0322FA03F34E4A13604E4B94
:105A20001B681846FBF778FB0346FB73FB7B002BD8
:105A300052D0FB7B5EE37B689B69002B32D0434BEB
:105A40001B68424A43F00103136002F0EDFA38612B
:105A500008E002F0E9FA02463B69D31A022B01D9A9
:105A6000032347E3394B1B6803F00203002BF0D0FC
:105A7000364B1B68354A43F008031360334B1B68F1
:105A800023F0F0027B681B6A304913430B602F4BF5
:105A90005B6823F47F427B68DB691B022B4913435D
:105AA0004B601AE0294B1B68284A23F0010313605E
:105AB00002F0BAFA386108E002F0B6FA02463B6931
:105AC000D31A022B01D9032314E3204B1B6803F0E4
:105AD0000203002BF0D100E000BF7B681B6803F0DD
