:020000040800F2
:1000000000000120E9090008850900088B090008A3
:1000100091090008970900089D09000800000000E8
:10002000000000000000000000000000510F000868
:10003000A309000800000000A1110008910A0008AF
:10004000390A0008390A0008390A0008390A000884
:10005000390A0008390A0008390A0008290400088A
:10006000390A0008390A0008390A0008390A000864
:10007000390A0008390A0008390A0008390A000854
:10008000390A0008390A0008390A0008390A000844
:10009000390A0008390A0008390A0008390A000834
:1000A000390A0008B1090008390A0008390A0008AD
:1000B000390A00080000000000000000FD060008EA
:1000C000390A000811070008390A0008390A00082F
:1000D000390A00083907000825070008390A00080E
:1000E000390A0008390A000800000000000000007A
:1000F0000000000000000000000000000000000000
:1001000000000000390A000800000000390A000859
:100110000000000000000000390A0008390A000849
:10012000390A0008390A0008390A0008390A0008A3
:10013000390A000800000000000000000000000074
:10014000390A0008390A0008390A0008390A000883
:10015000390A0008390A0008390A0008390A000873
:10016000390A0008390A0008390A000800000000AE
:10017000390A0008390A0008390A0008000000009E
:0C018000390A0008390A0008390A000892
:1001900010B5054C237833B9044B13B10448AFF3C1
:1001A00000800123237010BD9C010020000000008E
:1001B0003461000808B5034B1BB103490348AFF392
:1001C000008008BD00000000A0010020346100088C
:1001D00080B58CB000AF0346FB71FB791A2B01D9B7
:1001E0000023EFE007F11C0300221A605A609A60B6
:1001F000DA601A61FA7975491346DB009B1A9B0095
:100200000B441B68724A93423DD0714A934254DCBE
:10021000B3F1904F03D06F4A93421AD04DE06E4B2A
:100220001B7803F00103002B49D16C4BDB6C6B4A4C
:1002300043F00103D364694BDB6C03F001037B6182
:100240007B69654B1B7843F00103DAB2624B1A708D
:1002500035E0614B1B7803F00203002B31D15F4B7B
:10026000DB6C5E4A43F00203D3645C4BDB6C03F04F
:1002700002033B613B69584B1B7843F00203DAB23F
:10028000554B1A701DE0544B1B7803F00403002BF0
:1002900019D1524BDB6C514A43F00403D3644F4BEA
:1002A000DB6C03F00403FB60FB684B4B1B7843F0F3
:1002B0000403DAB2484B1A7005E0002382E000BF65
:1002C00002E000BF00E000BFFA7940491346DB00BE
:1002D0009B1A9B000B441868FA793C491346DB00D3
:1002E0009B1A9B000B4404331B689BB200221946E7
:1002F00003F042FCFA7935491346DB009B1A9B0058
:100300000B4404331B68FB61FA7930491346DB0068
:100310009B1A9B000B4408331B683B62FA792B49FC
:100320001346DB009B1A9B000B440C331B68BB621B
:10033000FA7926491346DB009B1A9B000B441033C5
:100340001B687B62FA7921491346DB009B1A9B00EC
:100350000B4414331B68FB62FA791C491346DB001B
:100360009B1A9B000B441B6807F11C0211461846A0
:1003700003F088FAFA7915491346DB009B1A9B00B3
:100380000B4418331B78002B1BD0FA790F49134606
:10039000DB009B1A9B000B44193393F900300022B9
:1003A0000521184603F0C4F9FA7908491346DB0021
:1003B0009B1A9B000B44193393F90030184603F045
:1003C000D3F9012318463037BD4680BD706100085F
:1003D0000008004800040048B80100200010024056
:1003E00080B582B000AF0023FB710023BB710EE02B
:1003F000BB791846FFF7ECFE034683F00103DBB23E
:10040000002B01D00123FB71BB790133BB71BB7998
:100410001A2BEDD9FB79012B01D1002300E0012338
:1004200018460837BD4680BD80B500AF022003F0F6
:10043000BBFB00BF80BD000080B582B000AF0346AB
:10044000FB71FB79012B01D90023CAE0FB79184627
:1004500000F0D0F8034683F00103DBB2002B01D09B
:100460000023BEE0FA79F979604813465B00134433
:100470001B0103441A685E48542301FB03F3034441
:100480001A60FA79F979594813465B0013441B0145
:10049000034404331A685648542301FB03F303440E
:1004A00004331A60FA79F979504813465B00134413
:1004B0001B01034410331A684D48542301FB03F316
:1004C000034408331A60FA79F979484813465B0007
:1004D00013441B01034420331A684548542301FB8D
:1004E00003F3034410331A60FA79F9793F4813464D
:1004F0005B0013441B01034414331A683C48542323
:1005000001FB03F3034414331A60FA79F97937488D
:1005100013465B0013441B01034418331A68344824
:10052000542301FB03F3034418331A60FA79F97971
:100530002E4813465B0013441B01034424331A68FE
:100540002B48542301FB03F303441C331A60FA794C
:10055000F979264813465B0013441B0103442833F2
:100560001A682348542301FB03F3034420331A6021
:10057000FB79542202FB03F31D4A1344184603F08F
:10058000CDFB0346002B29D1FB79542202FB03F358
:10059000174A9818FA79154913465B0013441B0152
:1005A0000B4408331B68194603F021FB0346002B5C
:1005B00014D1FB79542202FB03F30D4A9818FA79FF
:1005C0000A4913465B0013441B010B440C331B68A0
:1005D000194603F057FB0346002B01D000F034F915
:1005E000012318460837BD4680BD00BF646400087B
:1005F000BC01002080B59CB000AF0346FB71FA79C6
:100600003C4913465B0013441B010B442D331B78FC
:100610001846FFF7DDFD034683F00103DBB2002B34
:1006200001D0002361E0FA79324913465B0013449C
:100630001B010B442C331B781846FFF7C9FD0346FA
:1006400083F00103DBB2002B01D000234DE007F162
:10065000100360220021184605F0A2FCFB79012B53
:1006600023D140233B6100233B6407F1100318466C
:1006700003F06CFC0346002B01D000F0E5F81E4BA4
:100680009B6D1D4A43F4001393651B4B9B6D03F454
:100690000013FB60FB68002205211F2003F048F8CF
:1006A0001F2003F061F801231FE0FB79002B1BD111
:1006B00080233B6100237B6407F11003184603F09D
:1006C00045FC0346002B01D000F0BEF80A4B9B6DA1
:1006D000094A43F480039365074B9B6D03F4800341
:1006E000BB60BB68012300E0002318467037BD469D
:1006F00080BD00BF646400080010024080B500AFF8
:10070000024803F0A4FB00BF80BD00BF1002002020
:1007100080B500AF024803F09AFB00BF80BD00BF68
:100720001002002080B500AF024805F027F800BF96
:1007300080BD00BF0000002080B500AF024805F07A
:100740001DF800BF80BD00BF9400002080B500AF41
:1007500005F0B9FB00F018F8FFF742FE0120FFF7A3
:100760006BFE00F0AFF9054A0021054800F0F4F9EE
:100770000346044A136000F0C9F9FEE7C4640008A8
:10078000130800086402002080B596B000AF07F19E
:10079000140344220021184605F002FC3B460022C7
:1007A0001A605A609A60DA601A614FF4007003F0C0
:1007B00077FB0346002B01D000F046F801237B6154
:1007C0004FF48033BB610023FB6307F11403184629
:1007D00003F0F8FE0346002B01D000F035F80F239C
:1007E0003B6002237B600023BB604FF4A063FB608F
:1007F0004FF4A0633B613B460021184604F0F6FA33
:100800000346002B01D000F01FF800BF5837BD464B
:1008100080BD80B582B000AF78604FF4FA7000F010
:100820002DFAFAE780B582B000AF78607B681B686C
:10083000044A934201D105F05FFB00BF0837BD4673
:1008400080BD00BF002C014080B400AF72B600BF75
:10085000FEE7000080B582B000AF114B1B6E104A5E
:1008600043F0010313660E4B1B6E03F001037B6024
:100870007B680B4B9B6D0A4A43F080539365084B92
:100880009B6D03F080533B603B6800220F216FF0AB
:10089000010002F04DFF00BF0837BD4680BD00BF1C
:1008A0000010024080B58CB000AF7860002387F85C
:1008B0002F302F4B1B6E2E4A43F4006313662C4BD4
:1008C0001B6E03F40063BB60BB6807F10C0207F109
:1008D00010031146184604F035FC04F01DFC0346D5
:1008E0005B00BB62BB6A234AA2FB03239B0C013B58
:1008F0007B62214B214A1A601F4B40F2E732DA60DB
:100900001D4A7B6A53601C4B00221A611A4B00225D
:100910009A60194B00229A61174804F0C3FC034601
:1009200087F82F3097F82F30002B1BD1124804F096
:100930001BFD034687F82F3097F82F30002B11D17D
:10094000192002F011FF7B680F2B08D8002279686C
:10095000192002F0EDFE0A4A7B68136002E00123D1
:1009600087F82F3097F82F3018463037BD4680BDB6
:100970000010024083DE1B4368020020002C01406F
:100980003001002080B400AFFEE780B400AFFEE786
:1009900080B400AFFEE780B400AFFEE780B400AFE4
:1009A000FEE780B400AF00BFBD465DF8047B704732
:1009B00080B500AF024804F02BFD00BF80BD00BF32
:1009C0006802002080B400AF064BD3F88830054A97
:1009D00043F47003C2F8883000BFBD465DF8047B65
:1009E000704700BF00ED00E0DFF834D0FFF7EAFF0A
:1009F0000C480D490D4A002302E0D458C45004337A
:100A0000C4188C42F9D30A4A0A4C002301E013604F
:100A10000432A242FBD305F08FFAFFF797FEFEE700
:100A200000000120000000209C01002098650008C3
:100A30009C010020881C0020FEE7000080B483B0E9
:100A400000AF03463960FB7197F90730002B0ADBD2
:100A50003B68DAB20C4997F907301201D2B20B4465
:100A600083F800230AE03B68DAB20849FB7903F017
:100A70000F03043B1201D2B20B441A7600BF0C37AD
:100A8000BD465DF8047B704700E100E000ED00E04A
:100A900080B500AF054B1B6802F064F90346012BDB
:100AA00001D000F0B1FB00BF80BD00BF10E000E04E
:100AB00080B500AF00216FF00400FFF7BFFF00BF5B
:100AC00080BD000080B483B000AFEFF305833B60CE
:100AD0003B68002B03D06FF005037B600CE00A4BF2
:100AE0001B68002B05D1084B01221A6000237B6094
:100AF00002E04FF0FF337B607B6818460C37BD4641
:100B00005DF8047B704700BFB402002080B582B05E
:100B100000AFEFF305833B603B68002B03D06FF021
:100B200005037B6010E00B4B1B68012B09D1FFF71D
:100B3000BFFF084B02221A6001F0B8FC00237B6063
:100B400002E04FF0FF337B607B6818460837BD46F4
:100B500080BD00BFB402002080B58EB004AFF86045
:100B6000B9607A6000233B61EFF305837B617B69A9
:100B7000002B7ED1FB68002B7BD080233B621823A7
:100B8000FB6100237B624FF0FF33BB617B68002B6E
:100B900045D07B681B68002B02D07B681B687B629A
:100BA0007B689B69002B02D07B689B69FB61FB69BA
:100BB000002B08D0FB69382B05D87B685B6803F0F5
:100BC0000103002B01D0002354E07B685B69002BFC
:100BD00003D07B685B699B083B627B689B68002B4A
:100BE0000ED07B68DB68BB2B0AD97B681B69002BA6
:100BF00006D07B685B69002B02D00123BB6110E04B
:100C00007B689B68002B0CD17B68DB68002B08D1CC
:100C10007B681B69002B04D10023BB6101E000232A
:100C2000BB61BB69012B10D17B681B697A68926834
:100C300002920193FB690093BB683A6A796AF8688B
:100C400001F048FA03463B6113E0BB69002B10D169
:100C50003B6A9AB207F110030193FB690093BB68EA
:100C6000796AF86801F093FA0346012B01D000235A
:100C70003B613B6918462837BD4680BD80B584B0CE
:100C800000AF7860EFF30583BB60BB68002B03D037
:100C90006FF00503FB6007E00023FB607B68002B1F
:100CA00002D0786801F0CEFBFB6818461037BD46CD
:100CB00080BD000080B485B000AFF860B9607A6094
:100CC000FB68074A1A60BB68064A1A607B68802284
:100CD0001A6000BF1437BD465DF8047B704700BF43
:100CE000B80200207403002080B485B000AFF86023
:100CF000B9607A60FB68074A1A60BB68064A1A60E6
:100D00007B684FF480721A6000BF1437BD465DF8EF
:100D1000047B7047740500203006002080B483B047
:100D200000AF78607B6803F108027B685A607B68DB
:100D30004FF0FF329A607B6803F108027B68DA604B
:100D40007B6803F108027B681A617B6800221A60E5
:100D500000BF0C37BD465DF8047B704780B483B09C
:100D600000AF78607B6800221A6100BF0C37BD4677
:100D70005DF8047B704780B485B000AF786039605F
:100D80007B685B68FB603B68FA685A60FB689A683E
:100D90003B689A60FB689B683A685A60FB683A68EF
:100DA0009A603B687A681A617B681B685A1C7B688A
:100DB0001A6000BF1437BD465DF8047B704780B4ED
:100DC00085B000AF786039603B681B68BB60BB686A
:100DD000B3F1FF3F03D17B681B69FB600CE07B68CC
:100DE0000833FB6002E0FB685B68FB60FB685B68E4
:100DF0001B68BA689A42F6D2FB685A683B685A6028
:100E00003B685B683A689A603B68FA689A60FB687E
:100E10003A685A603B687A681A617B681B685A1C9A
:100E20007B681A6000BF1437BD465DF8047B7047CD
:100E300080B485B000AF78607B681B69FB607B681D
:100E40005B687A6892689A607B689B687A68526887
:100E50005A60FB685B687A689A4203D17B689A683B
:100E6000FB685A607B6800221A61FB681B685A1E87
:100E7000FB681A60FB681B6818461437BD465DF8AE
:100E8000047B704780B485B000AFF860B9607A60C9
:100E9000FB68043BFB60FB684FF080721A60FB68E4
:100EA000043BFB60BB6823F00102FB681A60FB682F
:100EB000043BFB600C4AFB681A60FB68143BFB6058
:100EC0007A68FB681A60FB68043BFB60FB686FF0A4
:100ED00002021A60FB68203BFB60FB68184614376F
:100EE000BD465DF8047B7047ED0E000880B485B008
:100EF00000AF00237B60124B1B68B3F1FF3F0AD0A9
:100F00004FF0500383F31188BFF36F8FBFF34F8F00
:100F1000FB6000BFFEE74FF0500383F31188BFF37F
:100F20006F8FBFF34F8FBB6000BF00BF7B68002B8C
:100F3000FCD000BF00BF1437BD465DF8047B70478E
:100F40002C01002000000000000000000000000054
:100F5000074B19680868B0E8F04F80F30988BFF3C1
:100F60006F8F4FF0000080F311887047AFF300805F
:100F70005016002000BF00BF08480068006880F3DA
:100F800008884FF0000080F3148862B661B6BFF3A2
:100F90004F8FBFF36F8F00DF00BF00BF08ED00E091
:100FA00080B586B000AF464B1B68464A93420AD1D3
:100FB0004FF0500383F31188BFF36F8FBFF34F8F50
:100FC0003B6100BFFEE73E4B1B683F4A93420AD19C
:100FD0004FF0500383F31188BFF36F8FBFF34F8F30
:100FE000FB6000BFFEE7394B7B617B691B78DBB29E
:100FF0007B607B69FF221A707B691B78DBB2FB7018
:10100000FB78DBB203F05003DAB2314B1A70314B8C
:1010100007221A6009E02F4B1B68013B2D4A136021
:10102000FB78DBB25B00DBB2FB70FB78DBB203F07A
:101030008003802BEFD0274B1B68C3F10703042BE1
:101040000AD04FF0500383F31188BFF36F8FBFF3C3
:101050004F8FBB6000BFFEE71E4B1B681B021D4A83
:1010600013601C4B1B6803F4E0631A4A13607B682F
:10107000DAB27B691A70184B1B68174A43F4700385
:101080001360154B1B68144A43F07043136000F063
:10109000DDF8124B00221A6000F0FCF8104B1B68C0
:1010A0000F4A43F040431360FFF766FF01F0E4FB93
:1010B000FFF71CFF002318461837BD4680BD00BF50
:1010C00000ED00E071C20F4170C20F4100E400E08A
:1010D000300A0020340A002020ED00E02C0100201E
:1010E00034EF00E080B483B000AF4FF0500383F3DF
:1010F0001188BFF36F8FBFF34F8F7B6000BF0F4B23
:101100001B6801330D4A13600C4B1B68012B0FD178
:101110000B4B1B68DBB2002B0AD04FF0500383F35C
:101120001188BFF36F8FBFF34F8F3B6000BFFEE7A7
:1011300000BF0C37BD465DF8047B70472C010020D2
:1011400004ED00E080B483B000AF124B1B68002BAD
:101150000AD14FF0500383F31188BFF36F8FBFF3B1
:101160004F8F7B6000BFFEE70A4B1B68013B094ABB
:101170001360084B1B68002B05D100233B603B68C4
:1011800083F3118800BF00BF0C37BD465DF8047BB8
:10119000704700BF2C01002000000000000000008C
:1011A000EFF30980BFF36F8F154B1A681EF0100F15
:1011B00008BF20ED108A20E9F04F10602DE90900EA
:1011C0004FF0500080F31188BFF34F8FBFF36F8F44
:1011D00001F052FB4FF0000080F3118809BC196840
:1011E0000868B0E8F04F1EF0100F08BFB0EC108A8E
:1011F00080F30988BFF36F8F704700BFAFF30080A3
:101200005016002000BF00BF80B582B000AF4FF085
:10121000500383F31188BFF36F8FBFF34F8F7B6051
:1012200000BF01F06FFA0346002B03D0064B4FF0CE
:1012300080521A6000233B603B6883F3118800BF33
:1012400000BF0837BD4680BD04ED00E080B400AFAC
:101250000B4B00221A600B4B00221A600A4B1B68D2
:101260000A4AA2FB03239B09094A013B1360044B72
:1012700007221A6000BFBD465DF8047B704700BFBF
:1012800010E000E018E000E028010020D34D6210DB
:1012900014E000E0DFF80C00016841F47001016027
:1012A000704700BF88ED00E080B485B000AFEFF379
:1012B0000583FB60FB680F2B14D9174AFB681344A6
:1012C0001B78FB72154B1B78FA7A9A420AD24FF0C0
:1012D000500383F31188BFF36F8FBFF34F8F7B6091
:1012E00000BFFEE70E4B1B6803F4E0620D4B1B686A
:1012F0009A420AD94FF0500383F31188BFF36F8FDE
:10130000BFF34F8F3B6000BFFEE700BF1437BD4601
:101310005DF8047B704700BFF0E300E0300A002076
:101320000CED00E0340A002080B58AB000AF786090
:101330000023FB6101F02AF95B4B1B68002B01D1F4
:1013400000F020F9594B1A687B681340002B40F0DD
:1013500093807B68002B1DD008227B6813447B6040
:101360007B6803F00703002B14D07B6823F007038E
:1013700008337B607B6803F00703002B0AD04FF033
:10138000500383F31188BFF36F8FBFF34F8F7B61DF
:1013900000BFFEE77B68002B6ED0454B1B687A6868
:1013A0009A4269D8434B3B62424B1B687B6204E024
:1013B0007B6A3B627B6A1B687B627B6A5B687A68DC
:1013C0009A4203D97B6A1B68002BF1D1364B1B680C
:1013D0007A6A9A4250D03B6A1B6808221344FB6128
:1013E0007B6A1A683B6A1A607B6A5A687B68D21A01
:1013F00008235B009A421FD97A6A7B681344BB6159
:10140000BB6903F00703002B0AD04FF0500383F3AE
:101410001188BFF36F8FBFF34F8F3B6100BFFEE7B3
:101420007B6A5A687B68D21ABB695A607B6A7A68A1
:101430005A60B86900F008F91D4B1A687B6A5B684E
:10144000D31A1B4A13601A4B1A681B4B1B689A422B
:1014500003D2174B1B68184A13607B6A5A68134BF8
:101460001B681A437B6A5A607B6A00221A60134B1E
:101470001B680133114A136001F096F8FB6903F011
:101480000703002B0AD04FF0500383F31188BFF3FA
:101490006F8FBFF34F8FFB6000BFFEE7FB691846FD
:1014A0002837BD4680BD00BFF81500200C1600206F
:1014B000FC150020F0150020001600200416002066
:1014C00080B586B000AF78607B687B617B68002B5D
:1014D0004DD008235B427A6913447B617B693B6191
:1014E0003B695A68244B1B681340002B0AD14FF00C
:1014F000500383F31188BFF36F8FBFF34F8FFB60EF
:1015000000BFFEE73B691B68002B0AD04FF0500379
:1015100083F31188BFF36F8FBFF34F8FBB6000BFA2
:10152000FEE73B695A68144B1B681340002B1ED022
:101530003B691B68002B1AD13B695A680E4B1B682C
:10154000DB431A403B695A6001F020F83B695A6856
:101550000A4B1B681344094A1360386900F074F899
:10156000074B1B680133064A136001F01DF800BFEA
:101570001837BD4680BD00BF0C160020FC150020AA
:101580000816002080B485B000AF40F6B833BB60C9
:10159000274BFB60FB6803F00703002B0CD0FB68B4
:1015A0000733FB60FB6823F00703FB60BA68FB6846
:1015B000D31A1F4A1344BB60FB687B601D4A7B68DB
:1015C00013601C4B00225A607B68BA681344FB60AE
:1015D0000822FB689B1AFB60FB6823F00703FB6093
:1015E000FB68154A1360144B1B6800225A60124BAB
:1015F0001B6800221A607B683B603B68FA68D21A5D
:101600003B685A600C4B1A683B681A603B685B6821
:101610000A4A13603B685B68094A1360094B4FF044
:1016200000421A6000BF1437BD465DF8047B704766
:10163000380A0020F0150020F815002000160020C0
:10164000FC1500200C16002080B485B000AF786037
:10165000284BFB6002E0FB681B68FB60FB681B68B3
:101660007A689A42F7D8FB68BB60FB685B68BA6827
:1016700013447A689A4208D1FB685A687B685B68B1
:101680001A44FB685A60FB687B607B68BB607B68C0
:101690005B68BA681A44FB681B689A4218D1FB68F9
:1016A0001A68154B1B689A420DD07B685A68FB6814
:1016B0001B685B681A447B685A60FB681B681A6881
:1016C0007B681A6008E00C4B1A687B681A6003E0BC
:1016D000FB681A687B681A60FA687B689A4202D0D5
:1016E000FB687A681A6000BF1437BD465DF8047B5A
:1016F000704700BFF0150020F815002080B584B0B9
:1017000000AF786039607B68FB60FB68002B0AD112
:101710004FF0500383F31188BFF36F8FBFF34F8FE8
:10172000BB6000BFFEE7FFF7DDFCFB681A68FB68E3
:10173000DB6BF968096C01FB03F31A44FB689A60E0
:10174000FB6800229A63FB681A68FB685A60FB68B2
:101750001A68FB68DB6B013BF968096C01FB03F35A
:101760001A44FB68DA60FB68FF2283F84420FB68B8
:10177000FF2283F845203B68002B14D1FB681B69CE
:10178000002B1AD0FB681033184601F029F90346E4
:10179000002B12D00C4B4FF080521A60BFF34F8FCA
:1017A000BFF36F8F09E0FB6810331846FFF7B6FAF6
:1017B000FB6824331846FFF7B1FAFFF7C3FC012397
:1017C00018461037BD4680BD04ED00E080B58EB0F0
:1017D00002AFF860B9607A603B60FB68002B0AD109
:1017E0004FF0500383F31188BFF36F8FBFF34F8F18
:1017F000BB6200BFFEE73B68002B0AD14FF05003ED
:1018000083F31188BFF36F8FBFF34F8F7B6200BFED
:10181000FEE77B68002B02D0BB68002B01D00123C0
:1018200000E00023002B0AD14FF0500383F311880E
:10183000BFF36F8FBFF34F8F3B6200BFFEE77B6844
:10184000002B02D1BB68002B01D1012300E0002353
:10185000002B0AD14FF0500383F31188BFF36F8F31
:10186000BFF34F8FFB6100BFFEE750237B617B69B5
:10187000502B0AD04FF0500383F31188BFF36F8FC2
:10188000BFF34F8FBB6100BFFEE77B693B68FB6224
:10189000FB6A002B0DD0FB6A012283F8462097F8E3
:1018A0003820FB6A009313467A68B968F86800F03C
:1018B00005F8FB6A18463037BD4680BD80B584B058
:1018C00000AFF860B9607A60FB70BB68002B03D191
:1018D000BB69BA691A6002E0BB697A681A60BB69C1
:1018E000FA68DA63BB69BA681A640121B869FFF75C
:1018F00005FFBB69FA7883F84C2000BF1037BD465E
:1019000080BD000080B58EB000AFF860B9607A602D
:101910003B6000237B63FB683B633B6B002B0AD17E
:101920004FF0500383F31188BFF36F8FBFF34F8FD6
:10193000BB6200BFFEE7BB68002B03D13B6B1B6C97
:10194000002B01D1012300E00023002B0AD14FF02E
:10195000500383F31188BFF36F8FBFF34F8F7B6208
:1019600000BFFEE73B68022B03D13B6BDB6B012B17
:1019700001D1012300E00023002B0AD14FF05003D6
:1019800083F31188BFF36F8FBFF34F8F3B6200BFAC
:10199000FEE701F0E7F90346002B02D17B68002B3C
:1019A00001D1012300E00023002B0AD14FF05003A6
:1019B00083F31188BFF36F8FBFF34F8FFB6100BFBD
:1019C000FEE7FFF78FFB3B6B9A6B3B6BDB6B9A423F
:1019D00002D33B68022B29D13A68B968386B00F012
:1019E0000BFAF8623B6B5B6A002B10D03B6B243325
:1019F000184600F0F5FF0346002B13D03F4B4FF085
:101A000080521A60BFF34F8FBFF36F8F0AE0FB6AFB
:101A1000002B07D0394B4FF080521A60BFF34F8F25
:101A2000BFF36F8FFFF78EFB012363E07B68002B12
:101A300003D1FFF787FB00235CE07B6B002B06D113
:101A400007F11403184601F02FF801237B63FFF719
:101A500079FB00F09BFDFFF745FB3B6B93F84430AF
:101A60005BB2B3F1FF3F03D13B6B002283F844200C
:101A70003B6B93F845305BB2B3F1FF3F03D13B6B57
:101A8000002283F84520FFF75DFB3A1D07F11403A0
:101A90001146184601F01EF80346002B24D1386B7E
:101AA00000F0A2FA0346002B18D03B6B10337A6883
:101AB0001146184600F044FF386B00F02DFA00F094
:101AC00073FD0346002B7FF47CAF0C4B4FF080522C
:101AD0001A60BFF34F8FBFF36F8F72E7386B00F060
:101AE0001BFA00F061FD6CE7386B00F015FA00F0AE
:101AF0005BFD002318463837BD4680BD04ED00E08D
:101B000080B590B000AFF860B9607A603B60FB6868
:101B1000BB63BB6B002B0AD14FF0500383F31188DA
:101B2000BFF36F8FBFF34F8FBB6200BFFEE7BB6891
:101B3000002B03D1BB6B1B6C002B01D1012300E0F8
:101B40000023002B0AD14FF0500383F31188BFF319
:101B50006F8FBFF34F8F7B6200BFFEE73B68022BA6
:101B600003D1BB6BDB6B012B01D1012300E0002310
:101B7000002B0AD14FF0500383F31188BFF36F8F0E
:101B8000BFF34F8F3B6200BFFEE7FFF78DFBEFF324
:101B900011824FF0500383F31188BFF36F8FBFF3AF
:101BA0004F8FFA61BB61FB697B63BB6B9A6BBB6B4D
:101BB000DB6B9A4202D33B68022B2FD1BB6B93F8AD
:101BC000453087F83330BB6B9B6BFB623A68B96872
:101BD000B86B00F011F997F93330B3F1FF3F12D130
:101BE000BB6B5B6A002B16D0BB6B2433184600F02E
:101BF000F7FE0346002B0ED07B68002B0BD07B68D2
:101C000001221A6007E097F833300133DBB25AB291
:101C1000BB6B83F845200123FB6301E00023FB63DA
:101C20007B6B7B617B6983F3118800BFFB6B18467C
:101C30004037BD4680BD000080B58CB000AFF86075
:101C4000B9607A600023FB62FB68BB62BB6A002B51
:101C50000AD14FF0500383F31188BFF36F8FBFF3A6
:101C60004F8F3B6200BFFEE7BB68002B03D1BB6A0E
:101C70001B6C002B01D1012300E00023002B0AD1B3
:101C80004FF0500383F31188BFF36F8FBFF34F8F73
:101C9000FB6100BFFEE701F065F80346002B02D1AF
:101CA0007B68002B01D1012300E00023002B0AD127
:101CB0004FF0500383F31188BFF36F8FBFF34F8F43
:101CC000BB6100BFFEE7FFF70DFABB6A9B6B7B624F
:101CD0007B6A002B1FD0B968B86A00F0F7F87B6AFE
:101CE0005A1EBB6A9A63BB6A1B69002B0FD0BB6A82
:101CF0001033184600F074FE0346002B07D03D4B0E
:101D00004FF080521A60BFF34F8FBFF36F8FFFF712
:101D100019FA012369E07B68002B03D1FFF712FA5F
:101D2000002362E0FB6A002B06D107F1100318467E
:101D300000F0BAFE0123FB62FFF704FA00F026FC74
:101D4000FFF7D0F9BB6A93F844305BB2B3F1FF3FC1
:101D500003D1BB6A002283F84420BB6A93F8453064
:101D60005BB2B3F1FF3F03D1BB6A002283F8452089
:101D7000FFF7E8F93A1D07F110031146184600F085
:101D8000A9FE0346002B23D1B86A00F017F90346D9
:101D9000002B17D0BB6A24337A681146184600F02E
:101DA000CFFDB86A00F0B8F800F0FEFB0346002B48
:101DB00089D1104B4FF080521A60BFF34F8FBFF3A1
:101DC0006F8F80E7B86A00F0A7F800F0EDFB7AE7C4
:101DD000B86A00F0A1F800F0E7FBB86A00F0EEF88E
:101DE0000346002B3FF46FAF002318463037BD4643
:101DF00080BD00BF04ED00E080B586B000AFF860A4
:101E0000B9607A6000237B61FB689B6B3B61FB6878
:101E10001B6C002B0DD1FB681B68002B4DD1FB68A0
:101E20009B68184600F0BCFF7861FB6800229A604E
:101E300043E07B68002B19D1FB685868FB681B6C7A
:101E40001A46B96804F09EF8FB685A68FB681B6C78
:101E50001A44FB685A60FB685A68FB689B689A42A0
:101E60002BD3FB681A68FB685A6026E0FB68D868C9
:101E7000FB681B6C1A46B96804F084F8FB68DA68E2
:101E8000FB681B6C5B421A44FB68DA60FB68DA682B
:101E9000FB681B689A4207D2FB689A68FB681B6C58
:101EA0005B421A44FB68DA607B68022B05D13B6910
:101EB000002B02D03B69013B3B613B695A1CFB682C
:101EC0009A637B6918461837BD4680BD80B582B0DD
:101ED00000AF786039607B681B6C002B18D07B6882
:101EE000DA687B681B6C1A447B68DA607B68DA68A6
:101EF0007B689B689A4203D37B681A687B68DA60C8
:101F00007B68D9687B681B6C1A46386804F03AF81D
:101F100000BF0837BD4680BD80B584B000AF786093
:101F2000FFF7E0F87B6893F84530FB7311E07B68BE
:101F30005B6A002B12D07B682433184600F050FDFA
:101F40000346002B01D000F027FEFB7B013BDBB2F8
:101F5000FB7397F90F30002BE9DC00E000BF7B68D2
:101F6000FF2283F84520FFF7EDF8FFF7BBF87B6809
:101F700093F84430BB7311E07B681B69002B12D0CF
:101F80007B681033184600F02BFD0346002B01D070
:101F900000F002FEBB7B013BDBB2BB7397F90E3056
:101FA000002BE9DC00E000BF7B68FF2283F84420BF
:101FB000FFF7C8F800BF1037BD4680BD80B584B0BC
:101FC00000AF7860FFF78EF87B689B6B002B02D127
:101FD0000123FB6001E00023FB60FFF7B3F8FB681F
:101FE00018461037BD4680BD80B584B000AF78601C
:101FF000FFF778F87B689A6B7B68DB6B9A4202D1BB
:102000000123FB6001E00023FB60FFF79BF8FB6806
:1020100018461037BD4680BD80B485B000AF7860EB
:1020200039600023FB6014E00F4AFB6852F833303C
:10203000002B0BD10C49FB683A6841F833200A4A5F
:10204000FB68DB0013447A685A6006E0FB680133E2
:10205000FB60FB68072BE7D900BF00BF1437BD4604
:102060005DF8047B704700BF1016002080B586B075
:1020700000AFF860B9607A60FB687B61FFF732F807
:102080007B6993F844305BB2B3F1FF3F03D17B69C6
:10209000002283F844207B6993F845305BB2B3F1AA
:1020A000FF3F03D17B69002283F84520FFF74AF800
:1020B0007B699B6B002B06D17B6924337A68B968F6
:1020C000184600F061FC7869FFF726FF00BF18375B
:1020D000BD4680BD80B58EB004AFF860B9607A604F
:1020E0003B607B6B002B0AD14FF0500383F31188C8
:1020F000BFF36F8FBFF34F8F3B6200BFFEE7BB6B39
:10210000002B0AD14FF0500383F31188BFF36F8F78
:10211000BFF34F8FFB6100BFFEE7BC233B613B6910
:10212000BC2B0AD04FF0500383F31188BFF36F8F9D
:10213000BFF34F8FBB6100BFFEE73B69BB6B002B5A
:102140001ED07B6B002B1BD0BB6B7B627B6A7A6BD8
:102150001A637B6A022283F8B920002303937B6A07
:10216000029307F1140301933B6B00933B687A6879
:10217000B968F86800F050F8786A00F0F3F801E008
:1021800000237B617B6918462837BD4680BD80B53A
:102190008CB004AFF860B9603B601346FB80FB88ED
:1021A0009B001846FFF7C0F878617B69002B0ED0C2
:1021B000BC20FFF7B9F8F861FB69002B03D0FB697D
:1021C0007A691A6305E07869FFF77AF901E000237C
:1021D000FB61FB69002B17D0FB69002283F8B92053
:1021E000FA8800230393FB690293FB6A0193BB6A9D
:1021F00000933B68B968F86800F00EF8F86900F0E1
:10220000B1F80123BB6102E04FF0FF33BB61BB6952
:1022100018462037BD4680BD80B588B000AFF86055
:10222000B9607A603B603B6B186B7B689B001A4619
:10223000A52103F0B5FE3B6B1A6B7B6803F180436D
:10224000013B9B001344BB61BB6923F00703BB61E7
:10225000BB6903F00703002B0AD04FF0500383F350
:102260001188BFF36F8FBFF34F8F7B6100BFFEE715
:10227000BB68002B1FD00023FB6112E0BA68FB692A
:10228000134419783A6BFB69134434330A461A70C5
:10229000BA68FB6913441B78002B06D0FB69013335
:1022A000FB61FB690F2BE9D900E000BF3B6B00220B
:1022B00083F8432003E03B6B002283F83420BB6AA1
:1022C000372B01D93723BB623B6BBA6ADA623B6BAF
:1022D000BA6ADA643B6B00221A653B6B043318461A
:1022E000FEF73CFD3B6B18331846FEF737FD3B6BA2
:1022F0003A6B1A61BB6AC3F138023B6B9A613B6B64
:102300003A6B5A623B6B0022C3F8B4203B6B00224D
:1023100083F8B8203B6B543360220021184603F049
:102320003FFE3B6B0C4A9A653B6B0C4ADA653B6B94
:102330000B4A1A663A68F968B869FEF7A3FD0246C7
:102340003B6B1A60FB6A002B02D0FB6A3A6B1A6087
:1023500000BF2037BD4680BD50650008706500088D
:102360003065000880B582B000AF7860FEF7BAFE35
:102370002D4B1B6801332C4A13602C4B1B68002B20
:1023800009D12A4A7B681360274B1B68012B10D1A7
:1023900000F026FC0DE0264B1B68002B09D1234BD7
:1023A0001B68DA6A7B68DB6A9A4202D81F4A7B683C
:1023B0001360204B1B6801331E4A13601D4B1A68C3
:1023C0007B685A647B68DA6A1B4B1B689A4203D9A4
:1023D0007B68DB6A184A13607B68DA6A13469B00E5
:1023E00013449B00154A1A447B680433194610466F
:1023F000FEF7C1FCFEF7A6FE0D4B1B68002B0ED0AE
:102400000A4B1B68DA6A7B68DB6A9A4207D20C4B7C
:102410004FF080521A60BFF34F8FBFF36F8F00BF32
:102420000837BD4680BD00BF241B00205016002089
:10243000301B0020401B00202C1B002054160020C5
:1024400004ED00E080B584B000AF78600023FB604D
:102450007B68002B17D0134B1B68002B0AD04FF062
:10246000500383F31188BFF36F8FBFF34F8FBB60AF
:1024700000BFFEE700F08AF80021786800F0FEFC5B
:1024800000F092F8F860FB68002B07D1064B4FF084
:1024900080521A60BFF34F8FBFF36F8F00BF1037AA
:1024A000BD4680BD4C1B002004ED00E080B58AB025
:1024B00004AF0023BB6000237B603A46391D07F15F
:1024C00008031846FEF7F6FB39687B68BA68029283
:1024D00001930023009300230A4624492448FFF770
:1024E000F9FD0346234A1360224B1B68002B02D0E0
:1024F00001237B6101E000237B617B69012B02D119
:1025000000F010FD78617B69012B1BD14FF0500367
:1025100083F31188BFF36F8FBFF34F8F3B6100BF11
:10252000154B1B685433154A1360154B4FF0FF329F
:102530001A60144B01221A60134B00221A60FEF736
:102540002FFD0EE07B69B3F1FF3F0AD14FF050033E
:1025500083F31188BFF36F8FBFF34F8FFB6000BF12
:10256000FEE700BF1837BD4680BD00BF58610008B8
:10257000B12B0008481B0020501600203801002015
:10258000441B0020301B0020281B002080B400AF1B
:10259000044B1B680133034A136000BFBD465DF85E
:1025A000047B70474C1B002080B584B000AF002333
:1025B000FB600023BB60424B1B68002B0AD14FF02D
:1025C000500383F31188BFF36F8FBFF34F8F3B60CE
:1025D00000BFFEE7FEF786FD394B1B68013B384A1A
:1025E0001360374B1B68002B62D1364B1B68002BE6
:1025F0005ED02FE0344BDB68DB68FB60FB68183390
:102600001846FEF715FCFB6804331846FEF710FC6D
:10261000FB68DA6A2D4B1B689A4203D9FB68DB6AB8
:102620002A4A1360FB68DA6A13469B0013449B0036
:10263000274A1A44FB68043319461046FEF79BFBF1
:10264000FB68DA6A234B1B68DB6A9A4202D3224B8F
:1026500001221A601C4B1B68002BCBD1FB68002B9E
:1026600001D000F05FFB1D4B1B687B607B68002B7B
:1026700010D000F047F80346002B02D0164B012281
:102680001A607B68013B7B607B68002BF1D1134BA8
:1026900000221A60104B1B68002B09D00123BB607D
:1026A0000F4B4FF080521A60BFF34F8FBFF36F8F05
:1026B000FEF748FDBB6818461037BD4680BD00BF19
:1026C0004C1B0020241B0020E41A00202C1B00209F
:1026D0005416002050160020381B0020341B002008
:1026E00004ED00E080B483B000AF054B1B687B6055
:1026F0007B6818460C37BD465DF8047B704700BF09
:10270000281B002080B586B000AF00237B614F4BB3
:102710001B68002B40F08F804D4B1B6801333B61E1
:102720004B4A3B6913603B69002B20D1494B1B6826
:102730001B68002B0AD04FF0500383F31188BFF3BE
:102740006F8FBFF34F8F3B6000BFFEE7414B1B68AD
:10275000FB60414B1B683F4A13603F4AFB681360B4
:102760003E4B1B6801333D4A136000F0DBFA3C4BE3
:102770001B683A699A4249D3364B1B681B68002B89
:1027800004D1374B4FF0FF321A603FE0314B1B68EA
:10279000DB68DB68BB60BB685B687B603A697B6851
:1027A0009A4203D22E4A7B6813602FE0BB68043341
:1027B0001846FEF73DFBBB689B6A002B04D0BB6844
:1027C00018331846FEF734FBBB68DA6A254B1B68E2
:1027D0009A4203D9BB68DB6A224A1360BB68DA6A93
:1027E00013469B0013449B001F4A1A44BB680433E2
:1027F00019461046FEF7BFFABB68DA6A1B4B1B6826
:10280000DB6A9A42B8D301237B61B5E7174B1B689B
:10281000DA6A154913469B0013449B000B441B685E
:10282000012B01D901237B61114B1B68002B07D0C1
:1028300001237B6104E00F4B1B6801330D4A1360D9
:102840007B6918461837BD4680BD00BF4C1B002071
:10285000281B0020DC1A0020E01A00203C1B00206E
:10286000441B00202C1B0020541600205016002072
:10287000381B0020341B002080B485B000AF2A4BE9
:102880001B68002B03D0294B01221A6046E0274B1E
:1028900000221A60264B1B68FB6010E0FB68002BCF
:1028A0000AD14FF0500383F31188BFF36F8FBFF34A
:1028B0004F8F7B6000BFFEE7FB68013BFB601D495B
:1028C000FA6813469B0013449B000B441B68002BC3
:1028D000E4D0FA6813469B0013449B00154A134446
:1028E000BB60BB685B685A68BB685A60BB685A6863
:1028F000BB6808339A4204D1BB685B685A68BB68FE
:102900005A60BB685B68DB680B4A1360084AFB6867
:102910001360094B1B685433084A136000BF143717
:10292000BD465DF8047B70474C1B0020381B00201F
:102930002C1B0020541600205016002038010020C7
:1029400080B584B000AF786039607B68002B0AD115
:102950004FF0500383F31188BFF36F8FBFF34F8F96
:10296000FB6000BFFEE7074B1B6818331946786809
:10297000FEF725FA0121386800F080FA00BF103711
:10298000BD4680BD5016002080B586B000AFF8600F
:10299000B9607A60FB68002B0AD14FF0500383F3D3
:1029A0001188BFF36F8FBFF34F8F7B6100BFFEE7CE
:1029B0000A4B1B6818331946F868FEF7DCF97B6888
:1029C000002B02D04FF0FF33BB607968B86800F08D
:1029D00055FA00BF1837BD4680BD00BF5016002015
:1029E00080B586B000AF78607B68DB68DB683B61F0
:1029F0003B69002B0AD14FF0500383F31188BFF3DA
:102A00006F8FBFF34F8FFB6000BFFEE73B6918334A
:102A10001846FEF70DFA1E4B1B68002B1DD13B69B3
:102A200004331846FEF704FA3B69DA6A194B1B684F
:102A30009A4203D93B69DB6A164A13603B69DA6A3A
:102A400013469B0013449B00134A1A443B6904330A
:102A500019461046FEF78FF905E03B691833194611
:102A60000E48FEF788F93B69DA6A0D4B1B68DB6A92
:102A70009A4205D901237B610A4B01221A6001E0C9
:102A800000237B617B6918461837BD4680BD00BFB7
:102A90004C1B00202C1B002054160020E41A0020A0
:102AA00050160020381B002080B483B000AF78603F
:102AB000064B1A687B681A60054B1A687B685A6077
:102AC00000BF0C37BD465DF8047B70473C1B0020FF
:102AD000281B002080B588B000AF786039607B6823
:102AE000002B0AD14FF0500383F31188BFF36F8F8F
:102AF000BFF34F8F3B6100BFFEE73B68002B0AD15D
:102B00004FF0500383F31188BFF36F8FBFF34F8FE4
:102B1000FB6000BFFEE7FEF7E5FA1D4B1B68BB61DB
:102B20007B685B68BA69D31A7B613B681B68B3F149
:102B3000FF3F02D10023FB6123E07B681A68154B3D
:102B40001B689A4207D07B685B68BA699A4202D3D5
:102B50000123FB6115E03B681B687A699A420BD23E
:102B60003B681A687B69D21A3B681A607868FFF77D
:102B70009BFF0023FB6104E03B6800221A600123F5
:102B8000FB61FEF7DFFAFB6918462037BD4680BDC2
:102B9000281B00203C1B002080B400AF034B012207
:102BA0001A6000BFBD465DF8047B7047381B0020EB
:102BB00080B582B000AF786000F052F8064B1B6819
:102BC000012BF9D9054B4FF080521A60BFF34F8F9C
:102BD000BFF36F8FF0E700BF5416002004ED00E054
:102BE00080B582B000AF00237B600CE07A681346AA
:102BF0009B0013449B00124A13441846FEF78EF8BC
:102C00007B6801337B607B68372BEFD90D48FEF77B
:102C100085F80D48FEF782F80C48FEF77FF80C485F
:102C2000FEF77CF80B48FEF779F80B4B054A1A6063
:102C30000A4B054A1A6000BF0837BD4680BD00BF79
:102C400054160020B41A0020C81A0020E41A0020EC
:102C5000F81A0020101B0020DC1A0020E01A0020C7
:102C600080B582B000AF19E0FEF73CFA104BDB688C
:102C7000DB687B607B6804331846FEF7D9F80D4BA0
:102C80001B68013B0B4A13600B4B1B68013B0A4A54
:102C90001360FEF757FA786800F010F8064B1B68CF
:102CA000002BE1D100BF00BF0837BD4680BD00BF8B
:102CB000F81A0020241B00200C1B002080B584B0D3
:102CC00000AF78607B685433184603F0CBF97B681B
:102CD00093F8B930002B08D17B681B6B1846FEF7C0
:102CE000EFFB7868FEF7ECFB18E07B6893F8B930EF
:102CF000012B03D17868FEF7E3FB0FE07B6893F8C4
:102D0000B930022B0AD04FF0500383F31188BFF380
:102D10006F8FBFF34F8FFB6000BFFEE700BF103720
:102D2000BD4680BD80B483B000AF0C4B1B681B68F0
:102D3000002B04D10A4B4FF0FF321A6008E0074B1A
:102D40001B68DB68DB687B607B685B68044A136038
:102D500000BF0C37BD465DF8047B7047DC1A0020CD
:102D6000441B002080B483B000AF0B4B1B68002BCA
:102D700002D101237B6008E0084B1B68002B02D1C5
:102D800002237B6001E000237B607B6818460C37E0
:102D9000BD465DF8047B7047301B00204C1B0020B3
:102DA00080B586B000AF78607B683B6100237B61B3
:102DB0007B68002B56D02E4B1B683A699A420AD08A
:102DC0004FF0500383F31188BFF36F8FBFF34F8F22
:102DD000FB6000BFFEE73B691B6D002B0AD14FF083
:102DE000500383F31188BFF36F8FBFF34F8FBB6026
:102DF00000BFFEE73B691B6D5A1E3B691A653B69C4
:102E0000DA6A3B69DB6C9A422CD03B691B6D002B64
:102E100028D13B6904331846FEF70AF83B69DA6C9F
:102E20003B69DA623B69DB6AC3F138023B699A614C
:102E30003B69DA6A0F4B1B689A4203D93B69DB6A2C
:102E40000C4A13603B69DA6A13469B0013449B00EB
:102E5000094A1A443B69043319461046FDF78BFFB3
:102E600001237B617B6918461837BD4680BD00BFD2
:102E7000501600202C1B00205416002080B584B072
:102E800000AF78603960214B1B68FB60204B1B68EA
:102E900004331846FDF7CCFF7B68B3F1FF3F0AD13E
:102EA0003B68002B07D01A4B1B680433194619489E
:102EB000FDF761FF26E0FA687B681344BB60144BA2
:102EC0001B68BA685A60BA68FB689A4209D2124B0A
:102ED0001A680F4B1B68043319461046FDF76FFF45
:102EE00010E00E4B1A680A4B1B6804331946104653
:102EF000FDF765FF0A4B1B68BA689A4202D2084A7E
:102F0000BB68136000BF1037BD4680BD281B002082
:102F100050160020101B0020E01A0020DC1A0020B0
:102F2000441B002080B58AB004AF00237B6100F011
:102F300007FB1C4B1B68002B21D00023FB600023E8
:102F4000BB603A1D07F1080107F10C031846FDF7B5
:102F5000CBFE7968BB68FA68029201930223009362
:102F600000230A4610491148FFF7B4F80346104AF7
:102F700013600F4B1B68002B01D001237B617B6921
:102F8000002B0AD14FF0500383F31188BFF36F8FEA
:102F9000BFF34F8F3B6100BFFEE77B6918461837D0
:102FA000BD4680BD801B002060610008E93000083C
:102FB000841B002080B58AB000AFF860B9607A60E9
:102FC0003B6000237B62FB68002B0AD14FF050036B
:102FD00083F31188BFF36F8FBFF34F8F3B6200BF46
:102FE000FEE71A4B1B68002B2AD0BB683B617B684D
:102FF0007B61FB68BB61BB68052B18DCFFF7B2FE89
:103000000346022B09D1114B186807F11001002368
:103010003A6BFEF777FC786212E00C4B186807F108
:10302000100100230022FEF76DFC786208E0074BD8
:10303000186807F1100100233A68FEF761FD786215
:103040007B6A18462837BD4680BD00BF801B002024
:1030500080B588B002AF78603960224B1B68DB68AE
:10306000DB687B617B6904331846FDF7E1FE7B6911
:1030700093F8283003F00403002B22D07B699A696F
:103080007B68D1187B683A68786900F0D1F803460C
:10309000002B1FD00023009300237A680021786959
:1030A000FFF788FF38613B69002B13D14FF05003C5
:1030B00083F31188BFF36F8FBFF34F8FFB6000BFA7
:1030C000FEE77B6993F8283023F00103DAB27B69CD
:1030D00083F828207B691B6A7869984700BF1837F6
:1030E000BD4680BD781B002080B584B000AF7860FD
:1030F00007F10803184600F057F8F860BB68194656
:10310000F86800F003F800F0D5F8F1E780B584B076
:1031100000AF78603960FFF739FA07F10803184605
:1031200000F066F8F860BB68002B30D13B68002BDC
:103130000AD17A68FB689A4206D8FFF735FAF9682F
:103140007868FFF785FF24E03B68002B08D0134B1D
:103150001B681B68002B01D1012300E000233B60AA
:103160000F4B18687A68FB68D31A3A681946FEF75D
:103170007DFFFFF719FA0346002B0AD1094B4FF0E8
:1031800080521A60BFF34F8FBFF36F8F01E0FFF7DC
:103190000BFA00BF1037BD4680BD00BF7C1B00206E
:1031A000801B002004ED00E080B485B000AF7860A3
:1031B0000E4B1B681B68002B01D1012200E000228E
:1031C0007B681A607B681B68002B05D1074B1B6866
:1031D000DB681B68FB6001E00023FB60FB681846AE
:1031E0001437BD465DF8047B704700BF781B002094
:1031F00080B584B000AF7860FFF774FAF8600B4BCD
:103200001B68FA689A4205D200F036F97B68012201
:103210001A6002E07B6800221A60044AFB681360AF
:10322000FB6818461037BD4680BD00BF881B0020D4
:1032300080B586B000AFF860B9607A603B6000236B
:103240007B61FB68BA685A60FB68FA681A61BA6801
:103250007B689A4212D87A683B68D21AFB689B69ED
:103260009A4202D301237B611BE0104B1A68FB6872
:10327000043319461046FDF7A2FD12E07A683B6858
:103280009A4206D2BA683B689A4202D301237B6114
:1032900007E0074B1A68FB68043319461046FDF730
:1032A0008EFD7B6918461837BD4680BD7C1B00200B
:1032B000781B002080B58EB002AFCAE07B68002B7F
:1032C00018DA3B1D0433FB62FB6A002B0AD14FF076
:1032D000500383F31188BFF36F8FBFF34F8FFB61F0
:1032E00000BFFEE7FB6A1B68FA6A5068FA6A9268D8
:1032F000114698477B68002BC0F2AA80FB68BB622E
:10330000BB6A5B69002B04D0BB6A04331846FDF727
:103310008FFD3B461846FFF76BFF78627B68092BF1
:1033200000F2978001A252F823F000BF5533000845
:103330005533000855330008C9330008DD33000851
:10334000273400085533000855330008C9330008F6
:10335000DD330008BB6A93F8283043F00103DAB28A
:10336000BB6A83F82820BA68BB6A9B69D118BB681E
:103370007A6AB86AFFF75CFF0346002B69D0BB6A24
:103380001B6AB86A9847BB6A93F8283003F00403B5
:10339000002B5ED0BA68BB6A9B691A440023009375
:1033A00000230021B86AFFF705FE38623B6A002B54
:1033B0004FD14FF0500383F31188BFF36F8FBFF3EA
:1033C0004F8FBB6100BFFEE7BB6A93F8283023F044
:1033D0000103DAB2BB6A83F828203AE0BB6A93F8AB
:1033E000283043F00103DAB2BB6A83F82820BA68B8
:1033F000BB6A9A61BB6A9B69002B0AD14FF05003EC
:1034000083F31188BFF36F8FBFF34F8F7B6100BFD2
:10341000FEE7BB6A9A697B6AD1187B6A7A6AB86AE6
:10342000FFF706FF15E0BB6A93F8283003F00203AC
:10343000002B03D1B86AFEF743F80AE0BB6A93F8A1
:10344000283023F00103DAB2BB6A83F8282000E0B9
:1034500000BF084B1B68391D00221846FEF7ECFB25
:103460000346002B7FF42AAF00BF00BF3037BD46B4
:1034700080BD00BF801B002080B588B002AF48E04F
:103480002D4B1B68DB681B683B612B4B1B68DB68A3
:10349000DB68FB60FB6804331846FDF7C9FCFB687A
:1034A0001B6AF8689847FB6893F8283003F0040318
:1034B000002B2ED0FB689B693A691344BB60BA6845
:1034C0003B699A420ED9FB68BA685A60FB68FA6891
:1034D0001A61194B1A68FB68043319461046FDF748
:1034E0006EFC16E00023009300233A690021F8687F
:1034F000FFF760FD78607B68002B0AD14FF0500326
:1035000083F31188BFF36F8FBFF34F8F3B6000BF12
:10351000FEE7094B1B681B68002BB1D1064B1B68EB
:103520007B61064B1B68044A1360044A7B69136085
:1035300000BF1837BD4680BD781B00207C1B0020D3
:1035400080B582B002AFFDF7CDFD154B1B68002B97
:1035500020D11448FDF7E2FB1348FDF7DFFB134BC6
:10356000104A1A60124B104A1A6000230093114B44
:10357000114A10210A20FEF729F90346084A136070
:10358000074B1B68002B05D0054B1B680B491846E1
:10359000FEF742FDFDF7D6FD00BFBD4680BD00BF72
:1035A000801B0020501B0020641B0020781B002083
:1035B0007C1B00202C1C00208C1B00206861000854
:1035C00080B485B000AF78607B6803F00703FB60D0
:1035D0000C4BDB68BB60BA684FF6FF031340BB605F
:1035E000FB681A02BB68134343F0BF6343F4003324
:1035F000BB60044ABB68D36000BF1437BD465DF8AA
:10360000047B704700ED00E080B400AF044BDB6842
:103610001B0A03F007031846BD465DF8047B70479C
:1036200000ED00E080B483B000AF0346FB7197F972
:103630000730002B0BDBFB7903F01F02074997F9DA
:1036400007305B09012000FA02F241F8232000BF95
:103650000C37BD465DF8047B704700BF00E100E019
:1036600080B483B000AF03463960FB7197F907302F
:10367000002B0ADB3B68DAB20C4997F907301201DC
:10368000D2B20B4483F800230AE03B68DAB208495F
:10369000FB7903F00F03043B1201D2B20B441A76FC
:1036A00000BF0C37BD465DF8047B704700E100E0C9
:1036B00000ED00E080B489B000AFF860B9607A60D6
:1036C000FB6803F00703FB61FB69C3F10703042BED
:1036D00028BF0423BB61FB690433062B02D9FB69B5
:1036E000033B00E000237B614FF0FF32BB6902FA2D
:1036F00003F3DA43BB681A407B699A404FF0FF310D
:103700007B6901FA03F3D9437B680B4013431846E6
:103710002437BD465DF8047B704780B582B000AFAA
:1037200078607868FFF74CFF00BF0837BD4680BD62
:1037300080B586B000AF0346B9607A60FB730023A2
:103740007B61FFF761FF78617A68B9687869FFF794
:10375000B1FF024697F90F3011461846FFF780FF78
:1037600000BF1837BD4680BD80B582B000AF0346AC
:10377000FB7197F907301846FFF754FF00BF083771
:10378000BD4680BD80B485B000AF78600023FB7378
:103790007B6893F82530DBB2022B08D07B680422CB
:1037A000DA637B68002283F82420012322E07B680F
:1037B0001B681A687B681B6822F00E021A607B681F
:1037C0001B681A687B681B6822F001021A607B681C
:1037D0005B6C03F01C027B681B6C012101FA02F296
:1037E0005A607B68012283F825207B68002283F8D9
:1037F0002420FB7B18461437BD465DF8047B7047D8
:1038000080B584B000AF78600023FB737B6893F8C9
:103810002530DBB2022B05D07B680422DA6301235A
:10382000FB7329E07B681B681A687B681B6822F0C1
:103830000E021A607B681B681A687B681B6822F09E
:1038400001021A607B685B6C03F01C027B681B6CD6
:10385000012101FA02F25A607B68012283F82520D7
:103860007B68002283F824207B689B6B002B03D0AD
:103870007B689B6B78689847FB7B18461037BD4682
:1038800080BD000080B487B000AF7860396000234D
:103890007B6154E13B681A6801217B6901FA03F3FB
:1038A0001340FB60FB68002B00F046813B685B68BF
:1038B00003F00303012B05D03B685B6803F00303AF
:1038C000022B30D17B689B683B617B695B000322E4
:1038D00002FA03F3DB433A6913403B613B68DA6861
:1038E0007B695B0002FA03F33A6913433B617B682F
:1038F0003A699A607B685B683B6101227B6902FAE6
:1039000003F3DB433A6913403B613B685B681B0987
:1039100003F001027B6902FA03F33A6913433B6146
:103920007B683A695A603B685B6803F00303032BCA
:1039300017D07B68DB683B617B695B00032202FA7E
:1039400003F3DB433A6913403B613B689A687B6948
:103950005B0002FA03F33A6913433B617B683A69FF
:10396000DA603B685B6803F00303022B23D17B69B9
:10397000DA087B68083253F822303B617B6903F038
:1039800007039B000F2202FA03F3DB433A6913405B
:103990003B613B681A697B6903F007039B0002FAED
:1039A00003F33A6913433B617B69DA087B680832A9
:1039B000396943F822107B681B683B617B695B00B7
:1039C000032202FA03F3DB433A6913403B613B688D
:1039D0005B6803F003027B695B0002FA03F33A6958
:1039E00013433B617B683A691A603B685B6803F488
:1039F0004033002B00F0A080584B1B6E574A43F019
:103A000001031366554B1B6E03F00103BB60BB68DB
:103A1000534A7B699B08023352F823303B617B6930
:103A200003F003039B000F2202FA03F3DB433A691E
:103A300013403B617B68B3F1904F19D07B68494AD2
:103A4000934213D07B68484A93420DD07B68474A23
:103A5000934207D07B68464A934201D1042308E091
:103A6000072306E0032304E0022302E0012300E031
:103A700000237A6902F00302920093403A691343EB
:103A80003B6137497B699B0802333A6941F823203F
:103A9000384B9B683B61FB68DB433A6913403B61F1
:103AA0003B685B6803F48013002B03D03A69FB6822
:103AB00013433B612F4A3B6993602E4BDB683B61AC
:103AC000FB68DB433A6913403B613B685B6803F486
:103AD0000013002B03D03A69FB6813433B61254A6E
:103AE0003B69D360234B5B683B61FB68DB433A690E
:103AF00013403B613B685B6803F40033002B03D049
:103B00003A69FB6813433B611A4A3B695360194B9E
:103B10001B683B61FB68DB433A6913403B613B68D0
:103B20005B6803F48033002B03D03A69FB681343CE
:103B30003B61104A3B6913607B6901337B613B68E1
:103B40001A687B6922FA03F3002B7FF4A3AE00BF4F
:103B500000BF1C37BD465DF8047B70470010024073
:103B6000000001400004004800080048000C004824
:103B7000001000480004014080B483B000AF7860BA
:103B80000B467B8013467B707B78002B03D07A88B2
:103B90007B689A6102E07A887B689A6200BF0C3782
:103BA000BD465DF8047B704780B582B000AF034628
:103BB000FB80084B5A69FB881340002B06D0054A4E
:103BC000FB885361FB88184600F006F800BF0837F1
:103BD000BD4680BD0004014080B483B000AF034601
:103BE000FB8000BF0C37BD465DF8047B704780B496
:103BF00083B000AF786039607B6893F84130DBB206
:103C0000202B38D17B6893F84030012B01D102235F
:103C100032E07B68012283F840207B68242283F80D
:103C200041207B681B681A687B681B6822F00102D0
:103C30001A607B681B681A687B681B6822F48052D4
:103C40001A607B681B6819687B681B683A680A43BE
:103C50001A607B681B681A687B681B6842F0010267
:103C60001A607B68202283F841207B68002283F859
:103C70004020002300E0022318460C37BD465DF8C3
:103C8000047B704780B485B000AF786039607B6892
:103C900093F84130DBB2202B39D17B6893F8403068
:103CA000012B01D1022333E07B68012283F84020FD
:103CB0007B68242283F841207B681B681A687B6834
:103CC0001B6822F001021A607B681B681B68FB609E
:103CD000FB6823F47063FB603B681B02FA681343C4
:103CE000FB607B681B68FA681A607B681B681A684F
:103CF0007B681B6842F001021A607B68202283F80F
:103D000041207B68002283F84020002300E002234A
:103D100018461437BD465DF8047B704780B582B005
:103D200000AF78607B68002B01D1012381E07B68C4
:103D300093F84130DBB2002B06D17B68002283F878
:103D40004020786800F079F87B68242283F84120CD
:103D50007B681B681A687B681B6822F001021A6086
:103D60007B685A687B681B6822F070621A617B6806
:103D70001B689A687B681B6822F400429A607B6823
:103D8000DB68012B07D17B689A687B681B6842F46B
:103D900000429A6006E07B689A687B681B6842F480
:103DA00004429A607B68DB68022B04D17B681B6845
:103DB0004FF400625A607B681B685B687A6812681F
:103DC00043F0007343F4004353607B681B68DA6878
:103DD0007B681B6822F40042DA607B681A697B68A2
:103DE0005B6942EA03017B689B691A027B681B6876
:103DF0000A43DA607B68D9697B681A6A7B681B684A
:103E00000A431A607B681B681A687B681B6842F06B
:103E100001021A607B6800225A647B68202283F8C2
:103E200041207B6800221A637B68002283F84220CD
:103E3000002318460837BD4680BD80B483B000AF6C
:103E4000786000BF0C37BD465DF8047B704780B5D5
:103E500084B000AF78607B681B689B69FB607B68FF
:103E60001B681B68BB607B685B6B002B05D07B68A5
:103E70005B6BBA68F9687868984700BF1037BD4631
:103E800080BD000080B400AF044B1B6803F4C06326
:103E90001846BD465DF8047B704700BF00700040C7
:103EA00080B485B000AF78607B68B3F5007F30D117
:103EB000234B1B6803F4C063B3F5007F38D0204B5D
:103EC0001B6823F4C0631E4A43F4007313601D4B48
:103ED0001B68322202FB03F31B4AA2FB03239B0C49
:103EE0000133FB6002E0FB68013BFB60144B5B6944
:103EF00003F48063B3F5806F02D1FB68002BF2D12D
:103F00000F4B5B6903F48063B3F5806F10D103231B
:103F10000FE00B4B1B6803F4C063B3F5806F07D051
:103F2000074B1B6823F4C063054A43F480631360A6
:103F3000002318461437BD465DF8047B704700BF68
:103F4000007000402801002083DE1B4380B586B04E
:103F500000AF78600023FB740023BB747B681B6890
:103F600003F40063002B31D07B685B6CB3F5400F2A
:103F70001AD0B3F5400F14D8002B09D0B3F5000FB9
:103F80000FD15D4BDB685C4A43F48033D3600CE0B7
:103F90007B6804330021184600F022FA0346FB74C4
:103FA00003E00123FB7400E000BFFB7C002B0BD17E
:103FB000514BD3F8883023F440027B685B6C4E4948
:103FC0001343C1F8883001E0FB7CBB747B681B683D
:103FD00003F40033002B00F09E8000237B74464BDB
:103FE0009B6D03F08053002B01D1012300E00023DF
:103FF000002B0DD0404B9B6D3F4A43F0805393659F
:104000003D4B9B6D03F08053BB60BB6801237B7409
:104010003A4B1B68394A43F48073136001F080FF08
:10402000F86009E001F07CFF0246FB68D31A022B1E
:1040300002D90323FB7405E0304B1B6803F4807343
:10404000002BEFD0FB7C002B5AD12B4BD3F89030B8
:1040500003F440737B617B69002B1ED07B68DB6DB2
:104060007A699A4219D0244BD3F8903023F44073E4
:104070007B61214BD3F890301F4A43F48033C2F860
:1040800090301D4BD3F890301B4A23F48033C2F894
:104090009030194A7B69C2F890307B6903F00103C4
:1040A000002B16D001F03CFFF8600BE001F038FF68
:1040B0000246FB68D31A41F28832934202D90323A5
:1040C000FB7406E00C4BD3F8903003F00203002B96
:1040D000ECD0FB7C002B0BD1074BD3F8903023F4B2
:1040E00040727B68DB6D04491343C1F8903009E0EE
:1040F000FB7CBB7406E000BF001002400070004073
:10410000FB7CBB747B7C012B05D18D4B9B6D8C4A5A
:1041100023F0805393657B681B6803F00103002B39
:104120000AD0874BD3F8883023F003027B681B6AE0
:1041300083491343C1F888307B681B6803F002038E
:10414000002B0AD07E4BD3F8883023F00C027B681A
:104150005B6A7B491343C1F888307B681B6803F0B6
:104160000403002B0AD0764BD3F8883023F03002BA
:104170007B689B6A72491343C1F888307B681B686F
:1041800003F02003002B0AD06D4BD3F8883023F4C2
:1041900040627B68DB6A6A491343C1F888307B68F8
:1041A0001B6803F40073002B0AD0654BD3F88830EA
:1041B00023F440227B68DB6B61491343C1F88830EC
:1041C0007B681B6803F48063002B0AD05C4BD3F838
:1041D000883023F440127B681B6C59491343C1F8A3
:1041E00088307B681B6803F04003002B0AD0544BD7
:1041F000D3F8883023F440527B681B6B504913433B
:10420000C1F888307B681B6803F08003002B0AD05C
:104210004B4BD3F8883023F440427B685B6B4849B2
:104220001343C1F888307B681B6803F48073002B4C
:104230000AD0434BD3F8883023F440327B689B6B21
:104240003F491343C1F888307B681B6803F400536F
:10425000002B28D03A4BD3F8883023F040627B689B
:104260009B6C37491343C1F888307B689B6CB3F172
:10427000006F06D1324BDB68314A43F48013D360C0
:1042800011E07B689B6CB3F1806F0CD17B680433C9
:104290000121184600F0A4F80346FB74FB7C002BB8
:1042A00001D0FB7CBB747B681B6803F40023002BEC
:1042B00028D0234BD3F8883023F040627B68DB6C36
:1042C0001F491343C1F888307B68DB6CB3F1006F82
:1042D00006D11B4BDB681A4A43F48013D36011E00C
:1042E0007B68DB6CB3F1806F0CD17B6804330121F8
:1042F000184600F075F80346FB74FB7C002B01D0D8
:10430000FB7CBB747B681B6803F48023002B2BD0E1
:104310000B4BD3F8883023F040627B681B6D084953
:104320001343C1F888307B681B6DB3F1006F09D16E
:10433000034BDB68024A43F48013D36014E000BFF0
:10434000001002407B681B6DB3F1806F0CD17B685D
:1043500004330121184600F043F80346FB74FB7C4C
:10436000002B01D0FB7CBB747B681B6803F480438B
:10437000002B1CD0194BD3F8883023F040527B68B7
:104380005B6D16491343C1F888307B685B6DB3F1F0
:10439000805F0CD17B6804330221184600F020F8BE
:1043A0000346FB74FB7C002B01D0FB7CBB747B6859
:1043B0001B6803F40043002B0AD0084BD3F8883065
:1043C00023F080427B689B6D04491343C1F8883019
:1043D000BB7C18461837BD4680BD00BF00100240A8
:1043E00080B584B000AF786039600023FB73744BF4
:1043F000DB6803F00303002B18D0714BDB6803F07C
:1044000003027B681B689A420DD17B681B68002BF6
:1044100009D06B4BDB681B0903F007035A1C7B6850
:104420005B689A4247D00123FB7344E07B681B68BA
:10443000032B18D0032B25D8012B02D0022B09D037
:1044400020E05F4B1B6803F00203002B1DD101230A
:10445000FB731AE05A4B1B6803F48063002B16D1E0
:104460000123FB7313E0564B1B6803F40033002B4E
:104470000FD1534B1B6803F48023002B09D1012378
:10448000FB7306E00123FB7304E000BF02E000BF02
:1044900000E000BFFB7B002B0DD1494BDB6823F014
:1044A00073027B6819687B685B68013B1B010B43E7
:1044B00043491343CB60FB7B002B7CD1404B1B68F3
:1044C0003F4A23F08063136001F02AFDB86009E0E1
:1044D00001F026FD0246BB68D31A022B02D9032342
:1044E000FB7305E0364B1B6803F00063002BEFD134
:1044F000FB7B002B5FD13B68002B10D1304B1B693D
:1045000023F0784323F4FE437A68926811027A68B4
:10451000D268D2060A432A4913430B6127E03B685D
:10452000012B12D1264B1B6923F4C00323F4FE4355
:104530007A68926811027A6812695208013A520543
:104540000A431F4913430B6111E01D4B1B6923F004
:10455000C06323F4FE437A68926811027A68526954
:104560005208013A52060A43154913430B61144B92
:104570001B68134A43F08063136001F0D1FCB860FC
:1045800009E001F0CDFC0246BB68D31A022B02D928
:104590000323FB7305E00A4B1B6803F00063002B49
:1045A000EFD0FB7B002B06D1054B1A697B689B691A
:1045B000034913430B61FB7B18461037BD4680BD92
:1045C0000010024080B588B000AF78607B68002B97
:1045D00002D1012300F002BC964B9B6803F00C0350
:1045E000BB61944BDB6803F003037B617B681B6852
:1045F00003F01003002B00F0E480BB69002B07D010
:10460000BB690C2B40F08B807B69012B40F08780CD
:10461000884B1B6803F00203002B05D07B689B6965
:10462000002B01D10123D9E37B681A6A814B1B68F7
:1046300003F00803002B04D07E4B1B6803F0F0034B
:1046400005E07C4BD3F894301B0903F0F003934250
:1046500023D27B681B6A184600F0A6FD0346002B98
:1046600001D00123BAE3734B1B68724A43F008037D
:104670001360704B1B6823F0F0027B681B6A6D4966
:1046800013430B606B4B5B6823F47F427B68DB69F1
:104690001B02684913434B6025E0664B1B68654A63
:1046A00043F008031360634B1B6823F0F0027B6840
:1046B0001B6A604913430B605E4B5B6823F47F42C7
:1046C0007B68DB691B025B4913434B60BB69002BB2
:1046D00009D17B681B6A184600F066FD0346002B73
:1046E00001D001237AE300F081FC0246514B9B6824
:1046F0001B0903F00F035049CB5C03F01F0322FAA0
:1047000003F34E4A13604E4B1B681846FCF7CAF879
:104710000346FB73FB7B002B52D0FB7B5EE37B6885
:104720009B69002B32D0434B1B68424A43F0010384
:10473000136001F0F5FB386108E001F0F1FB02467F
:104740003B69D31A022B01D9032347E3394B1B687A
:1047500003F00203002BF0D0364B1B68354A43F0C0
:1047600008031360334B1B6823F0F0027B681B6A5D
:10477000304913430B602F4B5B6823F47F427B6807
:10478000DB691B022B4913434B601AE0294B1B6862
:10479000284A23F00103136001F0C2FB386108E0EE
:1047A00001F0BEFB02463B69D31A022B01D9032359
:1047B00014E3204B1B6803F00203002BF0D100E050
:1047C00000BF7B681B6803F00103002B73D0BB693B
:1047D000082B05D0BB690C2B0ED17B69032B0BD1A9
:1047E000144B1B6803F40033002B63D07B685B68B9
:1047F000002B5FD10123F1E27B685B68B3F5803F5A
:1048000006D10C4B1B680B4A43F48033136025E040
:104810007B685B68B3F5A02F14D1064B1B68054A73
:1048200043F480231360034B1B68024A43F4803334
:10483000136013E000100240E86400082801002023
:1048400030010020A04B1B689F4A23F48033136083
:104850009D4B1B689C4A23F4802313607B685B6834
:10486000002B13D001F05CFB386108E001F058FB2D
:1048700002463B69D31A642B01D90323AEE2924B63
:104880001B6803F40033002BF0D014E001F048FB68
:10489000386108E001F044FB02463B69D31A642BFF
:1048A00001D903239AE2884B1B6803F40033002BE1
:1048B000F0D100E000BF7B681B6803F00203002B0F
:1048C00060D0BB69042B05D0BB690C2B19D17B6967
:1048D000022B16D17C4B1B6803F48063002B05D0A0
:1048E0007B68DB68002B01D1012377E2764B5B68A4
:1048F00023F0F8527B681B691B06734913434B6016
:1049000040E07B68DB68002B23D06F4B1B686E4A4E
:1049100043F48073136001F003FB386108E001F099
:10492000FFFA02463B69D31A022B01D9032355E251
:10493000654B1B6803F48063002BF0D0624B5B680F
:1049400023F0F8527B681B691B065F4913434B60D9
:1049500018E05D4B1B685C4A23F48073136001F020
:10496000DFFA386108E001F0DBFA02463B69D31A4E
:10497000022B01D9032331E2534B1B6803F48063FC
:10498000002BF0D17B681B6803F00803002B3CD0A0
:104990007B685B69002B1CD04B4BD3F894304A4AA0
:1049A00043F00103C2F8943001F0BAFA386108E02C
:1049B00001F0B6FA02463B69D31A022B01D9032350
:1049C0000CE2414BD3F8943003F00203002BEFD0FC
:1049D0001BE03D4BD3F894303B4A23F00103C2F86F
:1049E000943001F09DFA386108E001F099FA02462E
:1049F0003B69D31A022B01D90323EFE1324BD3F8E1
:104A0000943003F00203002BEFD17B681B6803F0A6
:104A10000403002B00F0A6800023FB772A4B9B6D3C
:104A200003F08053002B0DD1274B9B6D264A43F09A
:104A300080539365244B9B6D03F08053BB60BB6830
:104A40000123FB77214B1B6803F48073002B18D1E3
:104A50001E4B1B681D4A43F48073136001F060FA1B
:104A6000386108E001F05CFA02463B69D31A022B78
:104A700001D90323B2E1154B1B6803F48073002BAB
:104A8000F0D07B689B68012B08D10F4BD3F8903096
:104A90000D4A43F00103C2F8903029E07B689B681F
:104AA000052B15D1084BD3F89030074A43F0040387
:104AB000C2F89030044BD3F89030034A43F001031E
:104AC000C2F8903014E000BF0010024000700040B7
:104AD0009A4BD3F89030994A23F00103C2F89030F2
:104AE000964BD3F89030954A23F00403C2F89030E7
:104AF0007B689B68002B16D001F012FA38610AE03F
:104B000001F00EFA02463B69D31A41F28832934211
:104B100001D9032362E1894BD3F8903003F00203FB
:104B2000002BEDD015E001F0FBF938610AE001F04F
:104B3000F7F902463B69D31A41F28832934201D910
:104B400003234BE17D4BD3F8903003F00203002B9D
:104B5000EDD1FB7F012B05D1784B9B6D774A23F07C
:104B6000805393657B681B6803F02003002B3CD0C7
:104B70007B685B6A002B1CD0704BD3F898306F4A6F
:104B800043F00103C2F8983001F0CAF9386108E037
:104B900001F0C6F902463B69D31A022B01D903235F
:104BA0001CE1664BD3F8983003F00203002BEFD0E2
:104BB0001BE0624BD3F89830604A23F00103C2F83F
:104BC000983001F0ADF9386108E001F0A9F902462A
:104BD0003B69D31A022B01D90323FFE0574BD3F8CB
:104BE000983003F00203002BEFD17B689B6A002B07
:104BF00000F0F3807B689B6A022B40F0C9804F4B2A
:104C0000DB687B617B6903F003027B68DB6A9A42A5
:104C10002CD17B6903F070027B681B6B013B1B018D
:104C20009A4223D17B6903F4FE427B685B6B1B02D3
:104C30009A421BD17B6903F078427B689B6BDB0651
:104C40009A4213D17B6903F4C0027B68DB6B5B087B
:104C5000013B5B059A4209D17B6903F0C0627B6826
:104C60001B6C5B08013B5B069A426BD0BB690C2B4B
:104C700062D0324B1B6803F08063002B01D001230C
:104C8000ACE02E4B1B682D4A23F08073136001F0BB
:104C900047F9386108E001F043F902463B69D31A4D
:104CA000022B01D9032399E0244B1B6803F0007306
:104CB000002BF0D1214BDA68214B13407A68D16A7E
:104CC0007A68126B013A120111437A68526B120230
:104CD00011437A68D26B5208013A520511437A683F
:104CE000126C5208013A520611437A68926BD2064E
:104CF0000A4312491343CB60104B1B680F4A43F021
:104D0000807313600D4BDB680C4A43F08073D360F3
:104D100001F006F9386108E001F002F902463B694A
:104D2000D31A022B01D9032358E0044B1B6803F06C
:104D30000073002BF0D050E001234FE00010024040
:104D40008C809D01274B1B6803F00073002B44D11E
:104D5000244B1B68234A43F080731360214BDB68AC
:104D6000204A43F08073D36001F0DAF8386108E03C
:104D700001F0D6F802463B69D31A022B01D903236E
:104D80002CE0184B1B6803F00073002BF0D024E0DC
:104D9000BB690C2B1FD0134B1B68124A23F0807386
:104DA000136001F0BDF8386108E001F0B9F802467F
:104DB0003B69D31A022B01D903230FE0094B1B686F
:104DC00003F00073002BF0D1064BDA680549064B5F
:104DD0001340CB6001E0012300E000231846203798
:104DE000BD4680BD00100240FCFFEEFE80B584B0E1
:104DF00000AF786039607B68002B01D10123E7E0C8
:104E0000754B1B6803F007033A689A4210D9724B3E
:104E10001B6823F0070270493B6813430B606E4B1D
:104E20001B6803F007033A689A4201D00123CFE0E0
:104E30007B681B6803F00203002B10D07B689A6824
:104E4000664B9B6803F0F0039A4208D9634B9B685A
:104E500023F0F0027B689B68604913438B607B689A
:104E60001B6803F00103002B4CD07B685B68032BAD
:104E700007D15A4B1B6803F00073002B21D101238B
:104E8000A6E07B685B68022B07D1544B1B6803F4D8
:104E90000033002B15D101239AE07B685B68002B5F
:104EA00007D14E4B1B6803F00203002B09D10123ED
:104EB0008EE04A4B1B6803F48063002B01D1012371
:104EC00086E0464B9B6823F003027B685B6843499E
:104ED00013438B6001F024F8F8600AE001F020F839
:104EE0000246FB68D31A41F28832934201D9032368
:104EF0006EE03A4B9B6803F00C027B685B689B009A
:104F00009A42EBD17B681B6803F00203002B10D0A0
:104F10007B689A68314B9B6803F0F0039A4208D291
:104F20002E4B9B6823F0F0027B689B682B49134350
:104F30008B60294B1B6803F007033A689A4210D232
:104F4000254B1B6823F0070223493B6813430B6082
:104F5000214B1B6803F007033A689A4201D00123F2
:104F600036E07B681B6803F00403002B08D01B4B62
:104F70009B6823F4E0627B68DB68184913438B600D
:104F80007B681B6803F00803002B09D0134B9B6858
:104F900023F460527B681B69DB00104913438B606C
:104FA00000F024F802460D4B9B681B0903F00F0329
:104FB0000B49CB5C03F01F0322FA03F3094A136089
:104FC000094B1B681846FBF76DFC0346FB72FB7A26
:104FD00018461037BD4680BD002002400010024038
:104FE000E8640008280100203001002080B489B066
:104FF00000AF0023FB610023BB613E4B9B6803F0C5
:105000000C033B613B4BDB6803F00303FB603B6934
:10501000002B05D03B690C2B21D1FB68012B1ED145
:10502000344B1B6803F00803002B07D1314BD3F836
:1050300094301B0A03F00F03FB6105E02D4B1B6846
:105040001B0903F00F03FB612B4AFB6952F8233065
:10505000FB613B69002B0DD1FB69BB610AE03B6939
:10506000042B02D1254BBB6104E03B69082B01D125
:10507000224BBB613B690C2B34D11E4BDB6803F028
:105080000303BB60BB68022B03D0BB68032B03D0B8
:1050900005E01A4B7B6105E0184B7B6102E0FB6980
:1050A0007B6100BF134BDB681B0903F0070301336F
:1050B0007B60104BDB681B0A03F07F037A6903FBFC
:1050C00002F27B68B2FBF3F37B610A4BDB685B0E99
:1050D00003F0030301335B003B607A693B68B2FB7A
:1050E000F3F3BB61BB6918462437BD465DF8047B0A
:1050F000704700BF00100240006500080024F40063
:1051000080B400AF034B1B681846BD465DF8047BB6
:10511000704700BF2801002080B500AFFFF7F0FF07
:105120000246064B9B68DB0A03F007030449CB5C8D
:1051300003F01F0322FA03F3184680BD001002405B
:10514000F864000880B483B000AF786039607B6891
:105150000F221A60124B9B6803F003027B685A60AF
:105160000F4B9B6803F0F0027B689A600C4B9B68C6
:1051700003F4E0627B68DA60094B9B68DB0803F4A8
:10518000E0627B681A61074B1B6803F007023B680B
:105190001A6000BF0C37BD465DF8047B704700BF46
:1051A000001002400020024080B586B000AF786059
:1051B00000233B612A4B9B6D03F08053002B03D0EF
:1051C000FEF760FE786114E0254B9B6D244A43F0A6
:1051D00080539365224B9B6D03F08053FB60FB680B
:1051E000FEF750FE78611E4B9B6D1D4A23F08053E5
:1051F00093657B69B3F5007F0BD17B68802B19D950
:105200007B68A02B02D902233B6113E001233B61A1
:1052100010E07B68802B02D903233B610AE07B68A6
:10522000802B02D102233B6104E07B68702B01D10B
:1052300001233B610B4B1B6823F0070209493B69C3
:1052400013430B60074B1B6803F007033A699A424C
:1052500001D0012300E0002318461837BD4680BD69
:10526000001002400020024080B483B000AF78609C
:1052700000BF0C37BD465DF8047B704780B483B037
:1052800000AF786000BF0C37BD465DF8047B704707
:1052900080B483B000AF786000BF0C37BD465DF8C6
:1052A000047B704780B582B000AF78607B68002BCC
:1052B00001D1012349E07B6893F83D30DBB2002B3C
:1052C00006D17B68002283F83C20786800F041F822
:1052D0007B68022283F83D207B681A687B68043370
:1052E0001946104600F0DCF97B68012283F848205B
:1052F0007B68012283F83E207B68012283F83F20EF
:105300007B68012283F840207B68012283F84120DA
:105310007B68012283F842207B68012283F84320C6
:105320007B68012283F844207B68012283F84520B2
:105330007B68012283F846207B68012283F847209E
:105340007B68012283F83D20002318460837BD46BC
:1053500080BD80B483B000AF786000BF0C37BD461D
:105360005DF8047B7047000080B485B000AF7860C2
:105370007B6893F83D30DBB2012B01D001233BE089
:105380007B68022283F83D207B681B68DA687B68B3
:105390001B6842F00102DA607B681B68194A93427D
:1053A00009D07B681B68B3F1804F04D07B681B6811
:1053B000154A934215D17B681B689A68134B1340BA
:1053C000FB60FB68062B15D0FB68B3F5803F11D05E
:1053D0007B681B681A687B681B6842F001021A60D0
:1053E00008E07B681B681A687B681B6842F0010252
:1053F0001A6000E000BF002318461437BD465DF870
:10540000047B7047002C0140004001400700010070
:1054100080B582B000AF78607B681B681B6903F0C1
:105420000203022B22D17B681B68DB6803F00203B6
:10543000022B1BD17B681B686FF002021A617B682C
:1054400001221A777B681B689B6903F00303002B1A
:1054500003D0786800F005F905E0786800F0F7F807
:10546000786800F008F97B6800221A777B681B686F
:105470001B6903F00403042B22D17B681B68DB68E3
:1054800003F00403042B1BD17B681B686FF004023C
:105490001A617B6802221A777B681B689B6903F498
:1054A0004073002B03D0786800F0DBF805E07868E3
:1054B00000F0CDF8786800F0DEF87B6800221A77FB
:1054C0007B681B681B6903F00803082B22D17B68EB
:1054D0001B68DB6803F00803082B1BD17B681B6883
:1054E0006FF008021A617B6804221A777B681B68D8
:1054F000DB6903F00303002B03D0786800F0B1F8F8
:1055000005E0786800F0A3F8786800F0B4F87B68EC
:1055100000221A777B681B681B6903F01003102BAD
:1055200022D17B681B68DB6803F01003102B1BD1B2
:105530007B681B686FF010021A617B6808221A777B
:105540007B681B68DB6903F44073002B03D0786829
:1055500000F087F805E0786800F079F8786800F0E6
:105560008AF87B6800221A777B681B681B6903F046
:105570000103012B0ED17B681B68DB6803F001037C
:10558000012B07D17B681B686FF001021A617868F4
:10559000FBF748F97B681B681B6903F08003802BCD
:1055A0000ED17B681B68DB6803F08003802B07D17A
:1055B0007B681B686FF080021A617868FFF75EFEF7
:1055C0007B681B681B6903F48073B3F5807F0ED181
:1055D0007B681B68DB6803F08003802B07D17B6846
:1055E0001B686FF480721A617868FFF751FE7B6860
:1055F0001B681B6903F04003402B0ED17B681B68BE
:10560000DB6803F04003402B07D17B681B686FF019
:1056100040021A61786800F038F87B681B681B69E3
:1056200003F02003202B0ED17B681B68DB6803F09E
:105630002003202B07D17B681B686FF020021A61C2
:105640007868FFF711FE00BF0837BD4680BD80B403
:1056500083B000AF786000BF0C37BD465DF8047BB7
:10566000704780B483B000AF786000BF0C37BD4690
:105670005DF8047B704780B483B000AF786000BFF2
:105680000C37BD465DF8047B704780B483B000AF33
:10569000786000BF0C37BD465DF8047B70470000A2
:1056A00080B485B000AF786039607B681B68FB60B0
:1056B0007B682A4A934203D07B68B3F1804F08D1BC
:1056C000FB6823F07003FB603B685B68FA68134378
:1056D000FB607B68214A93420BD07B68B3F1804F1B
:1056E00007D07B681E4A934203D07B681D4A9342D1
:1056F00008D1FB6823F44073FB603B68DB68FA6801
:105700001343FB60FB6823F080023B685B69134333
:10571000FB607B68FA681A603B689A687B68DA62AB
:105720003B681A687B689A627B680C4A934207D090
:105730007B680B4A934203D07B680A4A934203D1A9
:105740003B681A697B681A637B6801225A6100BF53
:105750001437BD465DF8047B704700BF002C014044
:10576000004001400044014080B483B000AF786045
:1057700000BF0C37BD465DF8047B704780B5BAB0FA
:1057800000AF78607B681B68DB69C7F8E4307B6832
:105790001B681B68C7F8E0307B681B689B68C7F80C
:1057A000DC30D7F8E42040F60F031340C7F8D830B8
:1057B000D7F8D830002B15D1D7F8E43003F0200308
:1057C000002B0FD0D7F8E03003F02003002B09D0D6
:1057D0007B685B6E002B00F0A6827B685B6E78684E
:1057E0009847A0E2D7F8D830002B00F01781D7F8FF
:1057F000DC3003F00103002B06D1D7F8E020854B05
:105800001340002B00F00A81D7F8E43003F00103C5
:10581000002B11D0D7F8E03003F48073002B0BD0AD
:105820007B681B6801221A627B68D3F8803043F0E2
:1058300001027B68C3F88020D7F8E43003F002034C
:10584000002B11D0D7F8DC3003F00103002B0BD074
:105850007B681B6802221A627B68D3F8803043F0B1
:1058600004027B68C3F88020D7F8E43003F0040317
:10587000002B11D0D7F8DC3003F00103002B0BD044
:105880007B681B6804221A627B68D3F8803043F07F
:1058900002027B68C3F88020D7F8E43003F00803E5
:1058A000002B17D0D7F8E03003F02003002B05D1F0
:1058B000D7F8DC3003F00103002B0BD07B681B68AA
:1058C00008221A627B68D3F8803043F008027B68B4
:1058D000C3F88020D7F8E43003F40063002B12D023
:1058E000D7F8E03003F08063002B0CD07B681B6896
:1058F0004FF400621A627B68D3F8803043F02002D4
:105900007B68C3F880207B68D3F88030002B00F0E0
:105910000C82D7F8E43003F02003002B0DD0D7F829
:10592000E03003F02003002B07D07B685B6E002B78
:1059300003D07B685B6E786898477B68D3F88030CB
:10594000C7F8D4307B681B689B6803F04003402B8A
:1059500005D0D7F8D43003F02803002B4FD0786857
:1059600000F00EFA7B681B689B6803F04003402B35
:1059700041D17B681B680833C7F89C30D7F89C304E
:1059800053E8003FC7F89830D7F8983023F0400329
:10599000C7F8D0307B681B680833D7F8D020C7F829
:1059A000A820C7F8A430D7F8A410D7F8A82041E859
:1059B0000023C7F8A030D7F8A030002BD9D17B68DE
:1059C0001B6F002B13D07B681B6F134A9A637B6895
:1059D0001B6F1846FDF714FF0346002B17D07B689A
:1059E0001B6F9B6B7A68126F104698470FE07868C0
:1059F00000F0B0F90BE0786800F0ACF907E07868E7
:105A000000F0A8F97B680022C3F880208DE100BF78
:105A10008BE100BF20010004475E00087B681B6E1D
:105A2000012B40F04681D7F8E43003F01003002B3F
:105A300000F03F81D7F8E03003F01003002B00F0B6
:105A400038817B681B6810221A627B681B689B6820
:105A500003F04003402B40F0B4807B681B6F1B6851
:105A60005B68A7F8BE30B7F8BE30002B00F05F814E
:105A70007B68B3F85830B7F8BE209A4280F057815F
:105A80007B68B7F8BE20A3F85A207B681B6F1B68A1
:105A90001B6803F02003002B40F085807B681B68A7
:105AA000C7F88830D7F8883053E8003FC7F884300B
:105AB000D7F8843023F48073C7F8B8307B681B684C
:105AC0001A46D7F8B830C7F89430C7F89020D7F8FE
:105AD0009010D7F8942041E80023C7F88C30D7F80D
