:020000040800F2
:10000000000001202D1100085110000857100008B1
:100010005D1000086310000869100008000000006F
:100020000000000000000000000000009116000821
:100030006F10000800000000E1180008D51100084A
:100040007D1100087D1100087D1100087D11000858
:100050007D1100087D1100087D1100087D11000848
:100060007D1100087D1100087D1100087D11000838
:100070007D1100087D1100087D1100087D11000828
:100080007D1100087D1100087D1100087D11000818
:100090007D1100087D1100087D1100087D11000808
:1000A0007D1100087D1000087D1100087D110008F9
:1000B0007D11000800000000000000009110000801
:1000C000A5100008B9100008CD1000087D11000827
:1000D0007D110008E1100008F51000087D110008EE
:1000E0007D1100087D1100080000000000000000E4
:1000F0000000000000000000000000000000000000
:10010000000000007D110008000000007D110008C3
:1001100000000000000000007D1100087D110008B3
:100120007D1100087D1100087D1100087D11000877
:100130007D11000800000000000000000000000029
:100140007D1100087D1100087D1100087D11000857
:100150007D1100087D1100087D1100087D11000847
:100160007D1100087D1100087D11000800000000CD
:100170007D1100087D1100087D11000800000000BD
:0C0180007D1100087D1100087D110008B1
:1001900010B5054C237833B9044B13B10448AFF3C1
:1001A00000800123237010BD7400002000000000B7
:1001B0006C7C000808B5034B1BB103490348AFF33F
:1001C000008008BD00000000780000206C7C000862
:1001D00053B94AB9002908BF00281CBF4FF0FF31AE
:1001E0004FF0FF3000F074B9ADF1080C6DE904CEAA
:1001F00000F006F8DDF804E0DDE9022304B0704702
:100200002DE9F047089D04468E46002B4DD18A42C9
:10021000944669D9B2FA82F252B101FA02F3C2F1FC
:10022000200120FA01F10CFA02FC41EA030E94408D
:100230004FEA1C48210CBEFBF8F61FFA8CF708FBAE
:1002400016E341EA034306FB07F199420AD91CEB86
:10025000030306F1FF3080F01F81994240F21C81B8
:10026000023E63445B1AA4B2B3FBF8F008FB103300
:1002700044EA034400FB07F7A7420AD91CEB040435
:1002800000F1FF3380F00A81A74240F20781644405
:10029000023840EA0640E41B00261DB1D44000238A
:1002A000C5E900433146BDE8F0878B4209D9002DEE
:1002B00000F0EF800026C5E9000130463146BDE878
:1002C000F087B3FA83F6002E4AD18B4202D38242E2
:1002D00000F2F980841A61EB030301209E46002D91
:1002E000E0D0C5E9004EDDE702B9FFDEB2FA82F2E6
:1002F000002A40F09280A1EB0C014FEA1C471FFA44
:100300008CFE0126200CB1FBF7F307FB131140EA2A
:1003100001410EFB03F0884208D91CEB010103F1F7
:10032000FF3802D2884200F2CB804346091AA4B2B9
:10033000B1FBF7F007FB101144EA01440EFB00FE8D
:10034000A64508D91CEB040400F1FF3102D2A645F2
:1003500000F2BB800846A4EB0E0440EA03409CE791
:10036000C6F12007B34022FA07FC4CEA030C20FA3E
:1003700007F401FA06F31C43F9404FEA1C4900FA5E
:1003800006F3B1FBF9F8200C1FFA8CFE09FB1811DB
:1003900040EA014108FB0EF0884202FA06F20BD94E
:1003A0001CEB010108F1FF3A80F08880884240F29E
:1003B0008580A8F102086144091AA4B2B1FBF9F0E2
:1003C00009FB101144EA014100FB0EFE8E4508D9DD
:1003D0001CEB010100F1FF346CD28E456AD9023862
:1003E000614440EA0840A0FB0294A1EB0E01A14247
:1003F000C846A64656D353D05DB1B3EB080261EBB5
:100400000E0101FA07F722FA06F3F1401F43C5E98E
:10041000007100263146BDE8F087C2F12003D840C4
:100420000CFA02FC21FA03F3914001434FEA1C4706
:100430001FFA8CFEB3FBF7F007FB10360B0C43EAF8
:10044000064300FB0EF69E4204FA02F408D91CEBA8
:10045000030300F1FF382FD29E422DD902386344A6
:100460009B1B89B2B3FBF7F607FB163341EA034146
:1004700006FB0EF38B4208D91CEB010106F1FF3895
:1004800016D28B4214D9023E6144C91A46EA00468C
:1004900038E72E46284605E70646E3E61846F8E61E
:1004A0004B45A9D2B9EB020864EB0C0E0138A3E767
:1004B0004646EAE7204694E74046D1E7D0467BE748
:1004C000023B614432E7304609E76444023842E7C0
:1004D000704700BF80B485B000AF78607B6803F0E0
:1004E0000703FB600C4BDB68BB60BA684FF6FF0389
:1004F0001340BB60FB681A02BB68134343F0BF6341
:1005000043F40033BB60044ABB68D36000BF1437B8
:10051000BD465DF8047B704700ED00E080B483B019
:1005200000AF0346FB7197F90730002B0BDBFB791B
:1005300003F01F02074997F907305B09012000FA11
:1005400002F241F8232000BF0C37BD465DF8047B62
:10055000704700BF00E100E080B483B000AF034605
:100560003960FB7197F90730002B0ADB3B68DAB280
:100570000C4997F907301201D2B20B4483F80023DB
:100580000AE03B68DAB20849FB7903F00F03043B49
:100590001201D2B20B441A7600BF0C37BD465DF88B
:1005A000047B704700E100E000ED00E00FB480B58F
:1005B0008AB000AF97F830301C2B01D90023E7E058
:1005C00007F1140300221A605A609A60DA601A6117
:1005D00097F8302072491346DB009B1A9B000B44AE
:1005E0001B68704A93423DD06E4A934254DCB3F18B
:1005F000904F03D06C4A93421AD04DE06B4B1B785E
:1006000003F00103002B49D1694BDB6C684A43F0CE
:100610000103D364664BDB6C03F00103FB60FB68F2
:10062000624B1B7843F00103DAB2604B1A7035E07D
:100630005E4B1B7803F00203002B31D15C4BDB6C6B
:100640005B4A43F00203D364594BDB6C03F00203B3
:10065000BB60BB68554B1B7843F00203DAB2534BC7
:100660001A701DE0514B1B7803F00403002B19D1C5
:100670004F4BDB6C4E4A43F00403D3644C4BDB6CB2
:1006800003F004037B607B68484B1B7843F0040352
:10069000DAB2464B1A7005E0002379E000BF02E0B1
:1006A00000BF00E000BF97F830203D491346DB0053
:1006B0009B1A9B000B44186897F830203849134662
:1006C000DB009B1A9B000B4404331B689BB2002287
:1006D000194603F017FE97F8302031491346DB0026
:1006E0009B1A9B000B4404331B687B6197F83020F6
:1006F0002B491346DB009B1A9B000B4408331B68F5
:10070000BB6197F8302026491346DB009B1A9B00FB
:100710000B440C331B683B6297F83020204913468A
:10072000DB009B1A9B000B4410331B68FB6197F89E
:1007300030201B491346DB009B1A9B000B441433EB
:100740001B687B6297F8302015491346DB009B1A23
:100750009B000B441B6807F114021146184603F076
:100760003FFC97F830200E491346DB009B1A9B0094
:100770000B4418331B78002B09D00020FFF7AAFE8A
:100780001E210620FFF7E8FE0620FFF7C7FE012323
:1007900018462837BD46BDE8804004B0704700BF0A
:1007A000A87C0008000800480004004890000020D1
:1007B0000010024080B582B000AF0346FB71FB79A8
:1007C0001C2B01D9002315E0FA790C491346DB00F4
:1007D0009B1A9B000B441868FA7908491346DB0002
:1007E0009B1A9B000B4404331B689BB2194603F011
:1007F000A1FD012318460837BD4680BDA87C00082E
:1008000080B582B000AF03460A46FB711346BB7148
:10081000FB791C2B01D9002335E0BB79002B18D0C4
:10082000012B2DD1FA791A491346DB009B1A9B0044
:100830000B441868FA7916491346DB009B1A9B0093
:100840000B4404331B689BB20122194603F05AFD86
:1008500018E0FA790E491346DB009B1A9B000B4403
:100860001868FA790A491346DB009B1A9B000B446F
:1008700004331B689BB20022194603F043FD01E0DC
:10088000002300E0012318460837BD4680BD00BFA5
:10089000A87C000880B584B000AF03463960FB71C6
:1008A0003B68002B01D1002332E0FB791C2B04D9DB
:1008B0003B6802221A7000232AE0FA79164913468F
:1008C000DB009B1A9B000B441868FA791249134607
:1008D000DB009B1A9B000B4404331B689BB2194638
:1008E00003F0F8FC0346FB73FB7B002B02D0012BCB
:1008F00004D007E03B6801221A7008E03B68002240
:100900001A7004E03B6802221A70002300E0012301
:1009100018461037BD4680BDA87C000880B500AFE2
:1009200007F06EF800F028F80D20FFF73FFE0E20CC
:10093000FFF73CFE0F20FFF739FE00210F20FFF7E5
:100940005FFF00F0DBF800F05DF800F099F800F0D0
:1009500005F900F059FC054A0021054800F09EFC0D
:100960000346044A136000F073FCFEE7D47F0008DE
:10097000BD0B00084402002080B596B000AF07F11F
:10098000140344220021184607F0A6F83B46002233
:100990001A605A609A60DA601A614FF4007004F0CD
:1009A000AFFB0346002B01D000F02CF901237B6143
:1009B0004FF48033BB610023FB6307F11403184637
:1009C00004F030FF0346002B01D000F01BF90F2389
:1009D0003B6002237B600023BB604FF4A063FB609D
:1009E0004FF4A0633B613B460021184605F02EFB07
:1009F0000346002B01D000F005F900BF5837BD4673
:100A000080BD000080B500AF1B4B1C4A1A601A4B1A
:100A100040F614625A60184B00229A60164B01226D
:100A2000DA60154B00221A61134B00225A61124BF7
:100A300000229A61104B0022DA610F4B00221A62E9
:100A40000D4803F028FD0346002B01D000F0DAF832
:100A50000021094803F088FC0346002B01D000F078
:100A6000D1F80021044803F0CAFC0346002B01D052
:100A700000F0C8F800BF80BD940000200054004082
:100A800080B500AF1B4B1C4A1A601A4B40F614622B
:100A90005A60184B00229A60164B0122DA60154BFF
:100AA00000221A61134B00225A61124B00229A61F4
:100AB000104B0022DA610F4B00221A620D4803F03E
:100AC000EAFC0346002B01D000F09CF80021094805
:100AD00003F04AFC0346002B01D000F093F80021FC
:100AE000044803F08CFC0346002B01D000F08AF888
:100AF00000BF80BDE80000200058004080B500AF76
:100B0000144B154A1A60134B4FF4E1325A60114BE3
:100B100000229A600F4B0022DA600E4B00221A610D
:100B20000C4B0C225A610B4B00229A61094B00229C
:100B3000DA61084B00221A62064B00225A6205480D
:100B400005F062FF0346002B01D000F05BF800BF08
:100B500080BD00BF3C0100200038014080B500AFDF
:100B6000144B154A1A60134B4FF4E1325A60114B83
:100B700000229A600F4B0022DA600E4B00221A61AD
:100B80000C4B0C225A610B4B00229A61094B00223C
:100B9000DA61084B00221A62064B00225A620548AD
:100BA00005F032FF0346002B01D000F02BF800BF08
:100BB00080BD00BFC00100200044004080B582B06D
:100BC00000AF78600D20FFF7F5FD04490D20FFF719
:100BD00061FE4FF4FA7000F0F3FBF3E748020020E7
:100BE00080B582B000AF78607B681B68044A93428E
:100BF00001D106F01DFF00BF0837BD4680BD00BF14
:100C0000002C014080B400AF72B600BFFEE70000C8
:100C100080B582B000AF114B1B6E104A43F0010348
:100C200013660E4B1B6E03F001037B607B680B4B5E
:100C30009B6D0A4A43F080539365084B9B6D03F00C
:100C400080533B603B6800220F216FF0010003F0EE
:100C50000FF900BF0837BD4680BD00BF001002403D
:100C600080B5A4B000AF786007F17C0300221A6061
:100C70005A609A60DA601A6107F11C036022002151
:100C8000184606F029FF7B681B68524A93424CD1F4
:100C90004023FB610023FB6407F11C03184604F0AA
:100CA00085FA0346002B01D0FFF7ACFF4A4BDB6C03
:100CB000494A43F00103D364474BDB6C03F0010363
:100CC000BB61BB694FF4C063FB671223C7F8803078
:100CD0000023C7F884300323C7F888300423C7F8FB
:100CE0008C3007F17C0319464FF0904003F078F9FF
:100CF000394B9B6D384A43F400139365364B9B6D1B
:100D000003F400137B617B69002205211F2003F09F
:100D1000AFF81F2003F0C8F800220521202003F0BF
:100D2000A7F8202003F0C0F84FE07B681B682B4A2F
:100D300093424AD18023FB6100233B6507F11C03EA
:100D4000184604F033FA0346002B01D0FFF75AFF90
:100D5000214BDB6C204A43F00203D3641E4BDB6C57
:100D600003F002033B613B694FF44063FB671223CE
:100D7000C7F880300023C7F884300323C7F88830D1
:100D80000423C7F88C3007F17C031946144803F09C
:100D900027F9114B9B6D104A43F4800393650E4B6A
:100DA0009B6D03F48003FB60FB680022052121207A
:100DB00003F05EF8212003F077F8002205212220BD
:100DC00003F056F8222003F06FF800BF9037BD46BD
:100DD00080BD00BF00540040001002400058004099
:100DE0000004004880B5A4B000AF786007F17C0330
:100DF00000221A605A609A60DA601A6107F11C03D7
:100E000060220021184606F067FE7B681B68544A82
:100E1000934242D10123FB610023FB6307F11C03D2
:100E2000184604F0C3F90346002B01D0FFF7EAFE91
:100E30004C4B1B6E4B4A43F480431366494B1B6E6D
:100E400003F48043BB61BB69464BDB6C454A43F00E
:100E50000203D364434BDB6C03F002037B617B69C9
:100E6000C023FB670223C7F880300023C7F8843013
:100E70000323C7F888300723C7F88C3007F17C03B9
:100E80001946394803F0ACF800220521252002F06C
:100E9000EFFF252003F008F85DE07B681B68334A0C
:100EA000934258D10223FB6100233B6407F11C03EA
:100EB000184604F07BF90346002B01D0FFF7A2FE91
:100EC000284B9B6D274A43F400339365254B9B6D5C
:100ED00003F400333B613B69224BDB6C214A43F056
:100EE0000103D3641F4BDB6C03F00103FB60FB6861
:100EF0000423FB670223C7F880300023C7F884303F
:100F00000323C7F888300723C7F88C3007F17C0328
:100F100019464FF0904003F063F84FF40043FB672D
:100F20000223C7F880300023C7F884300323C7F8B2
:100F300088300323C7F88C3007F17C0319464FF043
:100F4000904003F04DF800220521262002F090FF8A
:100F5000262002F0A9FF00BF9037BD4680BD00BF2C
:100F600000380140001002400004004800440040E6
:100F700080B58CB000AF7860002387F82F302F4BFE
:100F80001B6E2E4A43F4006313662C4B1B6E03F456
:100F90000063BB60BB6807F10C0207F11003114648
:100FA000184605F015FA05F0FDF903465B00BB6233
:100FB000BB6A234AA2FB03239B0C013B7B62214BB0
:100FC000214A1A601F4B40F2E732DA601D4A7B6A01
:100FD00053601C4B00221A611A4B00229A60194B75
:100FE00000229A61174805F0A3FA034687F82F30CC
:100FF00097F82F30002B1BD1124805F0FBFA03465F
:1010000087F82F3097F82F30002B11D1192002F0DC
:101010004BFF7B680F2B08D800227968192002F05B
:1010200027FF0A4A7B68136002E0012387F82F300C
:1010300097F82F3018463037BD4680BD001002406B
:1010400083DE1B434C020020002C014008000020DE
:1010500080B400AFFEE780B400AFFEE780B400AF1D
:10106000FEE780B400AFFEE780B400AFFEE780B4D7
:1010700000AF00BFBD465DF8047B704780B500AF90
:10108000024805F00BFB00BF80BD00BF4C020020F2
:1010900080B500AF024803F08DFA00BF80BD00BFED
:1010A0009400002080B500AF024803F09DFA00BF15
:1010B00080BD00BF9400002080B500AF024803F05F
:1010C00079FA00BF80BD00BFE800002080B500AF06
:1010D000024803F089FA00BF80BD00BFE80000208D
:1010E00080B500AF024805F0DDFC00BF80BD00BF49
:1010F0003C01002080B500AF024805F0D3FC00BFE2
:1011000080BD00BFC001002080B400AF064BD3F803
:101110008830054A43F47003C2F8883000BFBD46EA
:101120005DF8047B704700BF00ED00E0DFF834D0CD
:10113000FFF7EAFF0C480D490D4A002302E0D4589E
:10114000C4500433C4188C42F9D30A4A0A4C002311
:1011500001E013600432A242FBD306F089FCFFF7E2
:10116000DDFBFEE7000001200000002074000020ED
:10117000B0800008740000206C1C0020FEE7000016
:1011800080B483B000AF03463960FB7197F9073034
:10119000002B0ADB3B68DAB20C4997F907301201E1
:1011A000D2B20B4483F800230AE03B68DAB2084964
:1011B000FB7903F00F03043B1201D2B20B441A7601
:1011C00000BF0C37BD465DF8047B704700E100E0CE
:1011D00000ED00E080B500AF054B1B6802F062F93E
:1011E0000346012B01D000F0AFFB00BF80BD00BF64
:1011F00010E000E080B500AF00216FF00400FFF7C1
:10120000BFFF00BF80BD000080B483B000AFEFF32C
:1012100005833B603B68002B03D06FF005037B60C8
:101220000CE00A4B1B68002B05D1084B01221A6009
:1012300000237B6002E04FF0FF337B607B68184641
:101240000C37BD465DF8047B704700BF9802002054
:1012500080B582B000AFEFF305833B603B68002BA5
:1012600003D06FF005037B6010E00B4B1B68012B74
:1012700009D1FFF7BFFF084B02221A6001F0B6FC4C
:1012800000237B6002E04FF0FF337B607B681846F1
:101290000837BD4680BD00BF9802002080B58EB0E3
:1012A00004AFF860B9607A6000233B61EFF3058317
:1012B0007B617B69002B7ED1FB68002B7BD0802378
:1012C0003B621823FB6100237B624FF0FF33BB615D
:1012D0007B68002B45D07B681B68002B02D07B68A5
:1012E0001B687B627B689B69002B02D07B689B69D3
:1012F000FB61FB69002B08D0FB69382B05D87B68A4
:101300005B6803F00103002B01D0002354E07B68ED
:101310005B69002B03D07B685B699B083B627B6841
:101320009B68002B0ED07B68DB68BB2B0AD97B68DF
:101330001B69002B06D07B685B69002B02D0012360
:10134000BB6110E07B689B68002B0CD17B68DB687D
:10135000002B08D17B681B69002B04D10023BB61E3
:1013600001E00023BB61BB69012B10D17B681B69C5
:101370007A68926802920193FB690093BB683A6AAB
:10138000796AF86801F046FA03463B6113E0BB69ED
:10139000002B10D13B6A9AB207F110030193FB694D
:1013A0000093BB68796AF86801F091FA0346012B53
:1013B00001D000233B613B6918462837BD4680BDFC
:1013C00080B584B000AF7860EFF30583BB60BB6885
:1013D000002B03D06FF00503FB6007E00023FB60E8
:1013E0007B68002B02D0786801F0CCFBFB681846C4
:1013F0001037BD4680BD000080B485B000AFF860F6
:10140000B9607A60FB68074A1A60BB68064A1A60CE
:101410007B6880221A6000BF1437BD465DF8047BEC
:10142000704700BF9C0200205803002080B485B0A4
:1014300000AFF860B9607A60FB68074A1A60BB6861
:10144000064A1A607B684FF480721A6000BF143736
:10145000BD465DF8047B7047580500201406002047
:1014600080B483B000AF78607B6803F108027B68CA
:101470005A607B684FF0FF329A607B6803F1080284
:101480007B68DA607B6803F108027B681A617B681D
:1014900000221A6000BF0C37BD465DF8047B704720
:1014A00080B483B000AF78607B6800221A6100BF0F
:1014B0000C37BD465DF8047B704780B485B000AF43
:1014C000786039607B685B68FB603B68FA685A60EB
:1014D000FB689A683B689A60FB689B683A685A6048
:1014E000FB683A689A603B687A681A617B681B6897
:1014F0005A1C7B681A6000BF1437BD465DF8047B38
:10150000704780B485B000AF786039603B681B6875
:10151000BB60BB68B3F1FF3F03D17B681B69FB6015
:101520000CE07B680833FB6002E0FB685B68FB60F3
:10153000FB685B681B68BA689A42F6D2FB685A6817
:101540003B685A603B685B683A689A603B68FA6837
:101550009A60FB683A685A603B687A681A617B68EF
:101560001B685A1C7B681A6000BF1437BD465DF8C3
:10157000047B704780B485B000AF78607B681B69DE
:10158000FB607B685B687A6892689A607B689B689E
:101590007A6852685A60FB685B687A689A4203D13D
:1015A0007B689A68FB685A607B6800221A61FB6856
:1015B0001B685A1EFB681A60FB681B6818461437C4
:1015C000BD465DF8047B704780B485B000AFF8601D
:1015D000B9607A60FB68043BFB60FB684FF0807287
:1015E0001A60FB68043BFB60BB6823F00102FB68E8
:1015F0001A60FB68043BFB600C4AFB681A60FB68DE
:10160000143BFB607A68FB681A60FB68043BFB6074
:10161000FB686FF002021A60FB68203BFB60FB680E
:1016200018461437BD465DF8047B70473116000834
:1016300080B485B000AF00237B60124B1B68B3F110
:10164000FF3F0AD04FF0500383F31188BFF36F8F31
:10165000BFF34F8FFB6000BFFEE74FF0500383F3F3
:101660001188BFF36F8FBFF34F8FBB6000BF00BF08
:101670007B68002BFCD000BF00BF1437BD465DF86F
:10168000047B704704000020000000000000000000
:10169000074B19680868B0E8F04F80F30988BFF37A
:1016A0006F8F4FF0000080F311887047AFF3008018
:1016B0003416002000BF00BF08480068006880F3AF
:1016C00008884FF0000080F3148862B661B6BFF35B
:1016D0004F8FBFF36F8F00DF00BF00BF08ED00E04A
:1016E00080B586B000AF464B1B68464A93420AD18C
:1016F0004FF0500383F31188BFF36F8FBFF34F8F09
:101700003B6100BFFEE73E4B1B683F4A93420AD154
:101710004FF0500383F31188BFF36F8FBFF34F8FE8
:10172000FB6000BFFEE7394B7B617B691B78DBB256
:101730007B607B69FF221A707B691B78DBB2FB70D0
:10174000FB78DBB203F05003DAB2314B1A70314B45
:1017500007221A6009E02F4B1B68013B2D4A1360DA
:10176000FB78DBB25B00DBB2FB70FB78DBB203F033
:101770008003802BEFD0274B1B68C3F10703042B9A
:101780000AD04FF0500383F31188BFF36F8FBFF37C
:101790004F8FBB6000BFFEE71E4B1B681B021D4A3C
:1017A00013601C4B1B6803F4E0631A4A13607B68E8
:1017B000DAB27B691A70184B1B68174A43F470033E
:1017C0001360154B1B68144A43F07043136000F01C
:1017D000DDF8124B00221A6000F0FCF8104B1B6879
:1017E0000F4A43F040431360FFF766FF01F0E4FB4C
:1017F000FFF71EFF002318461837BD4680BD00BF07
:1018000000ED00E071C20F4170C20F4100E400E042
:10181000140A0020180A002020ED00E00400002037
:1018200034EF00E080B483B000AF4FF0500383F397
:101830001188BFF36F8FBFF34F8F7B6000BF0F4BDB
:101840001B6801330D4A13600C4B1B68012B0FD131
:101850000B4B1B68DBB2002B0AD04FF0500383F315
:101860001188BFF36F8FBFF34F8F3B6000BFFEE760
:1018700000BF0C37BD465DF8047B704704000020B4
:1018800004ED00E080B483B000AF124B1B68002B66
:101890000AD14FF0500383F31188BFF36F8FBFF36A
:1018A0004F8F7B6000BFFEE70A4B1B68013B094A74
:1018B0001360084B1B68002B05D100233B603B687D
:1018C00083F3118800BF00BF0C37BD465DF8047B71
:1018D000704700BF0400002000000000000000006E
:1018E000EFF30980BFF36F8F154B1A681EF0100FCE
:1018F00008BF20ED108A20E9F04F10602DE90900A3
:101900004FF0500080F31188BFF34F8FBFF36F8FFC
:1019100001F052FB4FF0000080F3118809BC1968F8
:101920000868B0E8F04F1EF0100F08BFB0EC108A46
:1019300080F30988BFF36F8F704700BFAFF300805B
:101940003416002000BF00BF80B582B000AF4FF05A
:10195000500383F31188BFF36F8FBFF34F8F7B600A
:1019600000BF01F06FFA0346002B03D0064B4FF087
:1019700080521A6000233B603B6883F3118800BFEC
:1019800000BF0837BD4680BD04ED00E080B400AF65
:101990000B4B00221A600B4B00221A600A4B1B688B
:1019A0000A4AA2FB03239B09094A013B1360044B2B
:1019B00007221A6000BFBD465DF8047B704700BF78
:1019C00010E000E018E000E000000020D34D6210BD
:1019D00014E000E0DFF80C00016841F470010160E0
:1019E000704700BF88ED00E080B485B000AFEFF332
:1019F0000583FB60FB680F2B14D9174AFB6813445F
:101A00001B78FB72154B1B78FA7A9A420AD24FF078
:101A1000500383F31188BFF36F8FBFF34F8F7B6049
:101A200000BFFEE70E4B1B6803F4E0620D4B1B6822
:101A30009A420AD94FF0500383F31188BFF36F8F96
:101A4000BFF34F8F3B6000BFFEE700BF1437BD46BA
:101A50005DF8047B704700BFF0E300E0140A00204B
:101A60000CED00E0180A002080B58AB000AF786065
:101A70000023FB6101F02AF95B4B1B68002B01D1AD
:101A800000F020F9594B1A687B681340002B40F096
:101A900093807B68002B1DD008227B6813447B60F9
:101AA0007B6803F00703002B14D07B6823F0070347
:101AB00008337B607B6803F00703002B0AD04FF0EC
:101AC000500383F31188BFF36F8FBFF34F8F7B6198
:101AD00000BFFEE77B68002B6ED0454B1B687A6821
:101AE0009A4269D8434B3B62424B1B687B6204E0DD
:101AF0007B6A3B627B6A1B687B627B6A5B687A6895
:101B00009A4203D97B6A1B68002BF1D1364B1B68C4
:101B10007A6A9A4250D03B6A1B6808221344FB61E0
:101B20007B6A1A683B6A1A607B6A5A687B68D21AB9
:101B300008235B009A421FD97A6A7B681344BB6111
:101B4000BB6903F00703002B0AD04FF0500383F367
:101B50001188BFF36F8FBFF34F8F3B6100BFFEE76C
:101B60007B6A5A687B68D21ABB695A607B6A7A685A
:101B70005A60B86900F008F91D4B1A687B6A5B6807
:101B8000D31A1B4A13601A4B1A681B4B1B689A42E4
:101B900003D2174B1B68184A13607B6A5A68134BB1
:101BA0001B681A437B6A5A607B6A00221A60134BD7
:101BB0001B680133114A136001F096F8FB6903F0CA
:101BC0000703002B0AD04FF0500383F31188BFF3B3
:101BD0006F8FBFF34F8FFB6000BFFEE7FB691846B6
:101BE0002837BD4680BD00BFDC150020F015002061
:101BF000E0150020D4150020E4150020E815002091
:101C000080B586B000AF78607B687B617B68002B15
:101C10004DD008235B427A6913447B617B693B6149
:101C20003B695A68244B1B681340002B0AD14FF0C4
:101C3000500383F31188BFF36F8FBFF34F8FFB60A7
:101C400000BFFEE73B691B68002B0AD04FF0500332
:101C500083F31188BFF36F8FBFF34F8FBB6000BF5B
:101C6000FEE73B695A68144B1B681340002B1ED0DB
:101C70003B691B68002B1AD13B695A680E4B1B68E5
:101C8000DB431A403B695A6001F020F83B695A680F
:101C90000A4B1B681344094A1360386900F074F852
:101CA000074B1B680133064A136001F01DF800BFA3
:101CB0001837BD4680BD00BFF0150020E01500209C
:101CC000EC15002080B485B000AF40F6B833BB609F
:101CD000274BFB60FB6803F00703002B0CD0FB686D
:101CE0000733FB60FB6823F00703FB60BA68FB68FF
:101CF000D31A1F4A1344BB60FB687B601D4A7B6894
:101D000013601C4B00225A607B68BA681344FB6066
:101D10000822FB689B1AFB60FB6823F00703FB604B
:101D2000FB68154A1360144B1B6800225A60124B63
:101D30001B6800221A607B683B603B68FA68D21A15
:101D40003B685A600C4B1A683B681A603B685B68DA
:101D50000A4A13603B685B68094A1360094B4FF0FD
:101D600000421A6000BF1437BD465DF8047B70471F
:101D70001C0A0020D4150020DC150020E4150020EA
:101D8000E0150020F015002080B485B000AF786029
:101D9000284BFB6002E0FB681B68FB60FB681B686C
:101DA0007A689A42F7D8FB68BB60FB685B68BA68E0
:101DB00013447A689A4208D1FB685A687B685B686A
:101DC0001A44FB685A60FB687B607B68BB607B6879
:101DD0005B68BA681A44FB681B689A4218D1FB68B2
:101DE0001A68154B1B689A420DD07B685A68FB68CD
:101DF0001B685B681A447B685A60FB681B681A683A
:101E00007B681A6008E00C4B1A687B681A6003E074
:101E1000FB681A687B681A60FA687B689A4202D08D
:101E2000FB687A681A6000BF1437BD465DF8047B12
:101E3000704700BFD4150020DC15002080B584B0A9
:101E400000AF786039607B68FB60FB68002B0AD1CB
:101E50004FF0500383F31188BFF36F8FBFF34F8FA1
:101E6000BB6000BFFEE7FFF7DDFCFB681A68FB689C
:101E7000DB6BF968096C01FB03F31A44FB689A6099
:101E8000FB6800229A63FB681A68FB685A60FB686B
:101E90001A68FB68DB6B013BF968096C01FB03F313
:101EA0001A44FB68DA60FB68FF2283F84420FB6871
:101EB000FF2283F845203B68002B14D1FB681B6987
:101EC000002B1AD0FB681033184601F029F903469D
:101ED000002B12D00C4B4FF080521A60BFF34F8F83
:101EE000BFF36F8F09E0FB6810331846FFF7B8FAAD
:101EF000FB6824331846FFF7B3FAFFF7C3FC01234E
:101F000018461037BD4680BD04ED00E080B58EB0A8
:101F100002AFF860B9607A603B60FB68002B0AD1C1
:101F20004FF0500383F31188BFF36F8FBFF34F8FD0
:101F3000BB6200BFFEE73B68002B0AD14FF05003A5
:101F400083F31188BFF36F8FBFF34F8F7B6200BFA6
:101F5000FEE77B68002B02D0BB68002B01D0012379
:101F600000E00023002B0AD14FF0500383F31188C7
:101F7000BFF36F8FBFF34F8F3B6200BFFEE77B68FD
:101F8000002B02D1BB68002B01D1012300E000230C
:101F9000002B0AD14FF0500383F31188BFF36F8FEA
:101FA000BFF34F8FFB6100BFFEE750237B617B696E
:101FB000502B0AD04FF0500383F31188BFF36F8F7B
:101FC000BFF34F8FBB6100BFFEE77B693B68FB62DD
:101FD000FB6A002B0DD0FB6A012283F8462097F89C
:101FE0003820FB6A009313467A68B968F86800F0F5
:101FF00005F8FB6A18463037BD4680BD80B584B011
:1020000000AFF860B9607A60FB70BB68002B03D149
:10201000BB69BA691A6002E0BB697A681A60BB6979
:10202000FA68DA63BB69BA681A640121B869FFF714
:1020300005FFBB69FA7883F84C2000BF1037BD4616
:1020400080BD000080B58EB000AFF860B9607A60E6
:102050003B6000237B63FB683B633B6B002B0AD137
:102060004FF0500383F31188BFF36F8FBFF34F8F8F
:10207000BB6200BFFEE7BB68002B03D13B6B1B6C50
:10208000002B01D1012300E00023002B0AD14FF0E7
:10209000500383F31188BFF36F8FBFF34F8F7B62C1
:1020A00000BFFEE73B68022B03D13B6BDB6B012BD0
:1020B00001D1012300E00023002B0AD14FF050038F
:1020C00083F31188BFF36F8FBFF34F8F3B6200BF65
:1020D000FEE701F0E7F90346002B02D17B68002BF5
:1020E00001D1012300E00023002B0AD14FF050035F
:1020F00083F31188BFF36F8FBFF34F8FFB6100BF76
:10210000FEE7FFF78FFB3B6B9A6B3B6BDB6B9A42F7
:1021100002D33B68022B29D13A68B968386B00F0CA
:102120000BFAF8623B6B5B6A002B10D03B6B2433DD
:10213000184600F0F5FF0346002B13D03F4B4FF03D
:1021400080521A60BFF34F8FBFF36F8F0AE0FB6AB4
:10215000002B07D0394B4FF080521A60BFF34F8FDE
:10216000BFF36F8FFFF78EFB012363E07B68002BCB
:1021700003D1FFF787FB00235CE07B6B002B06D1CC
:1021800007F11403184601F02FF801237B63FFF7D2
:1021900079FB00F09BFDFFF745FB3B6B93F8443068
:1021A0005BB2B3F1FF3F03D13B6B002283F84420C5
:1021B0003B6B93F845305BB2B3F1FF3F03D13B6B10
:1021C000002283F84520FFF75DFB3A1D07F1140359
:1021D0001146184601F01EF80346002B24D1386B37
:1021E00000F0A2FA0346002B18D03B6B10337A683C
:1021F0001146184600F044FF386B00F02DFA00F04D
:1022000073FD0346002B7FF47CAF0C4B4FF08052E4
:102210001A60BFF34F8FBFF36F8F72E7386B00F018
:102220001BFA00F061FD6CE7386B00F015FA00F066
:102230005BFD002318463837BD4680BD04ED00E045
:1022400080B590B000AFF860B9607A603B60FB6821
:10225000BB63BB6B002B0AD14FF0500383F3118893
:10226000BFF36F8FBFF34F8FBB6200BFFEE7BB684A
:10227000002B03D1BB6B1B6C002B01D1012300E0B1
:102280000023002B0AD14FF0500383F31188BFF3D2
:102290006F8FBFF34F8F7B6200BFFEE73B68022B5F
:1022A00003D1BB6BDB6B012B01D1012300E00023C9
:1022B000002B0AD14FF0500383F31188BFF36F8FC7
:1022C000BFF34F8F3B6200BFFEE7FFF78DFBEFF3DD
:1022D00011824FF0500383F31188BFF36F8FBFF368
:1022E0004F8FFA61BB61FB697B63BB6B9A6BBB6B06
:1022F000DB6B9A4202D33B68022B2FD1BB6B93F866
:10230000453087F83330BB6B9B6BFB623A68B9682A
:10231000B86B00F011F997F93330B3F1FF3F12D1E8
:10232000BB6B5B6A002B16D0BB6B2433184600F0E6
:10233000F7FE0346002B0ED07B68002B0BD07B688A
:1023400001221A6007E097F833300133DBB25AB24A
:10235000BB6B83F845200123FB6301E00023FB6393
:102360007B6B7B617B6983F3118800BFFB6B184635
:102370004037BD4680BD000080B58CB000AFF8602E
:10238000B9607A600023FB62FB68BB62BB6A002B0A
:102390000AD14FF0500383F31188BFF36F8FBFF35F
:1023A0004F8F3B6200BFFEE7BB68002B03D1BB6AC7
:1023B0001B6C002B01D1012300E00023002B0AD16C
:1023C0004FF0500383F31188BFF36F8FBFF34F8F2C
:1023D000FB6100BFFEE701F065F80346002B02D168
:1023E0007B68002B01D1012300E00023002B0AD1E0
:1023F0004FF0500383F31188BFF36F8FBFF34F8FFC
:10240000BB6100BFFEE7FFF70DFABB6A9B6B7B6207
:102410007B6A002B1FD0B968B86A00F0F7F87B6AB6
:102420005A1EBB6A9A63BB6A1B69002B0FD0BB6A3A
:102430001033184600F074FE0346002B07D03D4BC6
:102440004FF080521A60BFF34F8FBFF36F8FFFF7CB
:1024500019FA012369E07B68002B03D1FFF712FA18
:10246000002362E0FB6A002B06D107F11003184637
:1024700000F0BAFE0123FB62FFF704FA00F026FC2D
:10248000FFF7D0F9BB6A93F844305BB2B3F1FF3F7A
:1024900003D1BB6A002283F84420BB6A93F845301D
:1024A0005BB2B3F1FF3F03D1BB6A002283F8452042
:1024B000FFF7E8F93A1D07F110031146184600F03E
:1024C000A9FE0346002B23D1B86A00F017F9034692
:1024D000002B17D0BB6A24337A681146184600F0E7
:1024E000CFFDB86A00F0B8F800F0FEFB0346002B01
:1024F00089D1104B4FF080521A60BFF34F8FBFF35A
:102500006F8F80E7B86A00F0A7F800F0EDFB7AE77C
:10251000B86A00F0A1F800F0E7FBB86A00F0EEF846
:102520000346002B3FF46FAF002318463037BD46FB
:1025300080BD00BF04ED00E080B586B000AFF8605C
:10254000B9607A6000237B61FB689B6B3B61FB6831
:102550001B6C002B0DD1FB681B68002B4DD1FB6859
:102560009B68184600F0BCFF7861FB6800229A6007
:1025700043E07B68002B19D1FB685868FB681B6C33
:102580001A46B96805F09AFAFB685A68FB681B6C32
:102590001A44FB685A60FB685A68FB689B689A4259
:1025A0002BD3FB681A68FB685A6026E0FB68D86882
:1025B000FB681B6C1A46B96805F080FAFB68DA689C
:1025C000FB681B6C5B421A44FB68DA60FB68DA68E4
:1025D000FB681B689A4207D2FB689A68FB681B6C11
:1025E0005B421A44FB68DA607B68022B05D13B69C9
:1025F000002B02D03B69013B3B613B695A1CFB68E5
:102600009A637B6918461837BD4680BD80B582B095
:1026100000AF786039607B681B6C002B18D07B683A
:10262000DA687B681B6C1A447B68DA607B68DA685E
:102630007B689B689A4203D37B681A687B68DA6080
:102640007B68D9687B681B6C1A46386805F036FAD7
:1026500000BF0837BD4680BD80B584B000AF78604C
:10266000FFF7E0F87B6893F84530FB7311E07B6877
:102670005B6A002B12D07B682433184600F050FDB3
:102680000346002B01D000F027FEFB7B013BDBB2B1
:10269000FB7397F90F30002BE9DC00E000BF7B688B
:1026A000FF2283F84520FFF7EDF8FFF7BBF87B68C2
:1026B00093F84430BB7311E07B681B69002B12D088
:1026C0007B681033184600F02BFD0346002B01D029
:1026D00000F002FEBB7B013BDBB2BB7397F90E300F
:1026E000002BE9DC00E000BF7B68FF2283F8442078
:1026F000FFF7C8F800BF1037BD4680BD80B584B075
:1027000000AF7860FFF78EF87B689B6B002B02D1DF
:102710000123FB6001E00023FB60FFF7B3F8FB68D7
:1027200018461037BD4680BD80B584B000AF7860D4
:10273000FFF778F87B689A6B7B68DB6B9A4202D173
:102740000123FB6001E00023FB60FFF79BF8FB68BF
:1027500018461037BD4680BD80B485B000AF7860A4
:1027600039600023FB6014E00F4AFB6852F83330F5
:10277000002B0BD10C49FB683A6841F833200A4A18
:10278000FB68DB0013447A685A6006E0FB6801339B
:10279000FB60FB68072BE7D900BF00BF1437BD46BD
:1027A0005DF8047B704700BFF415002080B586B04B
:1027B00000AFF860B9607A60FB687B61FFF732F8C0
:1027C0007B6993F844305BB2B3F1FF3F03D17B697F
:1027D000002283F844207B6993F845305BB2B3F163
:1027E000FF3F03D17B69002283F84520FFF74AF8B9
:1027F0007B699B6B002B06D17B6924337A68B968AF
:10280000184600F061FC7869FFF726FF00BF183713
:10281000BD4680BD80B58EB004AFF860B9607A6007
:102820003B607B6B002B0AD14FF0500383F3118880
:10283000BFF36F8FBFF34F8F3B6200BFFEE7BB6BF1
:10284000002B0AD14FF0500383F31188BFF36F8F31
:10285000BFF34F8FFB6100BFFEE7BC233B613B69C9
:10286000BC2B0AD04FF0500383F31188BFF36F8F56
:10287000BFF34F8FBB6100BFFEE73B69BB6B002B13
:102880001ED07B6B002B1BD0BB6B7B627B6A7A6B91
:102890001A637B6A022283F8B920002303937B6AC0
:1028A000029307F1140301933B6B00933B687A6832
:1028B000B968F86800F050F8786A00F0F3F801E0C1
:1028C00000237B617B6918462837BD4680BD80B5F3
:1028D0008CB004AFF860B9603B601346FB80FB88A6
:1028E0009B001846FFF7C0F878617B69002B0ED07B
:1028F000BC20FFF7B9F8F861FB69002B03D0FB6936
:102900007A691A6305E07869FFF77AF901E0002334
:10291000FB61FB69002B17D0FB69002283F8B9200B
:10292000FA8800230393FB690293FB6A0193BB6A55
:1029300000933B68B968F86800F00EF8F86900F099
:10294000B1F80123BB6102E04FF0FF33BB61BB690B
:1029500018462037BD4680BD80B588B000AFF8600E
:10296000B9607A603B603B6B186B7B689B001A46D2
:10297000A52105F0B1F83B6B1A6B7B6803F180432E
:10298000013B9B001344BB61BB6923F00703BB61A0
:10299000BB6903F00703002B0AD04FF0500383F309
:1029A0001188BFF36F8FBFF34F8F7B6100BFFEE7CE
:1029B000BB68002B1FD00023FB6112E0BA68FB69E3
:1029C000134419783A6BFB69134434330A461A707E
:1029D000BA68FB6913441B78002B06D0FB690133EE
:1029E000FB61FB690F2BE9D900E000BF3B6B0022C4
:1029F00083F8432003E03B6B002283F83420BB6A5A
:102A0000372B01D93723BB623B6BBA6ADA623B6B67
:102A1000BA6ADA643B6B00221A653B6B04331846D2
:102A2000FEF73EFD3B6B18331846FEF739FD3B6B56
:102A30003A6B1A61BB6AC3F138023B6B9A613B6B1C
:102A40003A6B5A623B6B0022C3F8B4203B6B002206
:102A500083F8B8203B6B543360220021184605F000
:102A60003BF83B6B0C4A9A653B6B0C4ADA653B6B57
:102A70000B4A1A663A68F968B869FEF7A5FD02467E
:102A80003B6B1A60FB6A002B02D0FB6A3A6B1A6040
:102A900000BF2037BD4680BD6080000880800008F0
:102AA0004080000880B582B000AF7860FEF7BAFEC3
:102AB0002D4B1B6801332C4A13602C4B1B68002BD9
:102AC00009D12A4A7B681360274B1B68012B10D160
:102AD00000F026FC0DE0264B1B68002B09D1234B90
:102AE0001B68DA6A7B68DB6A9A4202D81F4A7B68F5
:102AF0001360204B1B6801331E4A13601D4B1A687C
:102B00007B685A647B68DA6A1B4B1B689A4203D95C
:102B10007B68DB6A184A13607B68DA6A13469B009D
:102B200013449B00154A1A447B6804331946104627
:102B3000FEF7C3FCFEF7A6FE0D4B1B68002B0ED064
:102B40000A4B1B68DA6A7B68DB6A9A4207D20C4B35
:102B50004FF080521A60BFF34F8FBFF36F8F00BFEB
:102B60000837BD4680BD00BF081B0020341600207A
:102B7000141B0020241B0020101B002038160020EE
:102B800004ED00E080B584B000AF78600023FB6006
:102B90007B68002B17D0134B1B68002B0AD04FF01B
:102BA000500383F31188BFF36F8FBFF34F8FBB6068
:102BB00000BFFEE700F08AF80021786800F0FEFC14
:102BC00000F092F8F860FB68002B07D1064B4FF03D
:102BD00080521A60BFF34F8FBFF36F8F00BF103763
:102BE000BD4680BD301B002004ED00E080B58AB0FA
:102BF00004AF0023BB6000237B603A46391D07F118
:102C000008031846FEF7F8FB39687B68BA68029239
:102C100001930023009300230A4624492448FFF728
:102C2000F9FD0346234A1360224B1B68002B02D098
:102C300001237B6101E000237B617B69012B02D1D1
:102C400000F010FD78617B69012B1BD14FF0500320
:102C500083F31188BFF36F8FBFF34F8F3B6100BFCA
:102C6000154B1B685433154A1360154B4FF0FF3258
:102C70001A60144B01221A60134B00221A60FEF7EF
:102C80002FFD0EE07B69B3F1FF3F0AD14FF05003F7
:102C900083F31188BFF36F8FBFF34F8FFB6000BFCB
:102CA000FEE700BF1837BD4680BD00BF907C00081E
:102CB000F13200082C1B00203416002010000020E8
:102CC000281B0020141B00200C1B002080B400AF28
:102CD000044B1B680133034A136000BFBD465DF817
:102CE000047B7047301B002080B584B000AF002308
:102CF000FB600023BB60424B1B68002B0AD14FF0E6
:102D0000500383F31188BFF36F8FBFF34F8F3B6086
:102D100000BFFEE7FEF786FD394B1B68013B384AD2
:102D20001360374B1B68002B62D1364B1B68002B9E
:102D30005ED02FE0344BDB68DB68FB60FB68183348
:102D40001846FEF717FCFB6804331846FEF712FC22
:102D5000FB68DA6A2D4B1B689A4203D9FB68DB6A71
:102D60002A4A1360FB68DA6A13469B0013449B00EF
:102D7000274A1A44FB68043319461046FEF79DFBA8
:102D8000FB68DA6A234B1B68DB6A9A4202D3224B48
:102D900001221A601C4B1B68002BCBD1FB68002B57
:102DA00001D000F05FFB1D4B1B687B607B68002B34
:102DB00010D000F047F80346002B02D0164B01223A
:102DC0001A607B68013B7B607B68002BF1D1134B61
:102DD00000221A60104B1B68002B09D00123BB6036
:102DE0000F4B4FF080521A60BFF34F8FBFF36F8FBE
:102DF000FEF748FDBB6818461037BD4680BD00BFD2
:102E0000301B0020081B0020C81A0020101B0020C7
:102E100038160020341600201C1B0020181B002030
:102E200004ED00E080B483B000AF054B1B687B600D
:102E30007B6818460C37BD465DF8047B704700BFC1
:102E40000C1B002080B586B000AF00237B614F4B88
:102E50001B68002B40F08F804D4B1B6801333B619A
:102E60004B4A3B6913603B69002B20D1494B1B68DF
:102E70001B68002B0AD04FF0500383F31188BFF377
:102E80006F8FBFF34F8F3B6000BFFEE7414B1B6866
:102E9000FB60414B1B683F4A13603F4AFB6813606D
:102EA0003E4B1B6801333D4A136000F0DBFA3C4B9C
:102EB0001B683A699A4249D3364B1B681B68002B42
:102EC00004D1374B4FF0FF321A603FE0314B1B68A3
:102ED000DB68DB68BB60BB685B687B603A697B680A
:102EE0009A4203D22E4A7B6813602FE0BB680433FA
:102EF0001846FEF73FFBBB689B6A002B04D0BB68FB
:102F000018331846FEF736FBBB68DA6A254B1B6898
:102F10009A4203D9BB68DB6A224A1360BB68DA6A4B
:102F200013469B0013449B001F4A1A44BB6804339A
:102F300019461046FEF7C1FABB68DA6A1B4B1B68DC
:102F4000DB6A9A42B8D301237B61B5E7174B1B6854
:102F5000DA6A154913469B0013449B000B441B6817
:102F6000012B01D901237B61114B1B68002B07D07A
:102F700001237B6104E00F4B1B6801330D4A136092
:102F80007B6918461837BD4680BD00BF301B002046
:102F90000C1B0020C01A0020C41A0020201B002097
:102FA000281B0020101B002038160020341600209B
:102FB0001C1B0020181B002080B485B000AF2A4BDA
:102FC0001B68002B03D0294B01221A6046E0274BD7
:102FD00000221A60264B1B68FB6010E0FB68002B88
:102FE0000AD14FF0500383F31188BFF36F8FBFF303
:102FF0004F8F7B6000BFFEE7FB68013BFB601D4914
:10300000FA6813469B0013449B000B441B68002B7B
:10301000E4D0FA6813469B0013449B00154A1344FE
:10302000BB60BB685B685A68BB685A60BB685A681B
:10303000BB6808339A4204D1BB685B685A68BB68B6
:103040005A60BB685B68DB680B4A1360084AFB6820
:103050001360094B1B685433084A136000BF1437D0
:10306000BD465DF8047B7047301B00201C1B002010
:10307000101B0020381600203416002010000020FD
:1030800080B584B000AF786039607B68002B0AD1CE
:103090004FF0500383F31188BFF36F8FBFF34F8F4F
:1030A000FB6000BFFEE7074B1B68183319467868C2
:1030B000FEF727FA0121386800F080FA00BF1037C8
:1030C000BD4680BD3416002080B586B000AFF860E4
:1030D000B9607A60FB68002B0AD14FF0500383F38C
:1030E0001188BFF36F8FBFF34F8F7B6100BFFEE787
:1030F0000A4B1B6818331946F868FEF7DEF97B683F
:10310000002B02D04FF0FF33BB607968B86800F045
:1031100055FA00BF1837BD4680BD00BF34160020E9
:1031200080B586B000AF78607B68DB68DB683B61A8
:103130003B69002B0AD14FF0500383F31188BFF392
:103140006F8FBFF34F8FFB6000BFFEE73B69183303
:103150001846FEF70FFA1E4B1B68002B1DD13B696A
:1031600004331846FEF706FA3B69DA6A194B1B6806
:103170009A4203D93B69DB6A164A13603B69DA6AF3
:1031800013469B0013449B00134A1A443B690433C3
:1031900019461046FEF791F905E03B6918331946C8
:1031A0000E48FEF78AF93B69DA6A0D4B1B68DB6A49
:1031B0009A4205D901237B610A4B01221A6001E082
:1031C00000237B617B6918461837BD4680BD00BF70
:1031D000301B0020101B002038160020C81A0020C9
:1031E000341600201C1B002080B483B000AF786030
:1031F000064B1A687B681A60054B1A687B685A6030
:1032000000BF0C37BD465DF8047B7047201B0020D3
:103210000C1B002080B588B000AF786039607B68F7
:10322000002B0AD14FF0500383F31188BFF36F8F47
:10323000BFF34F8F3B6100BFFEE73B68002B0AD115
:103240004FF0500383F31188BFF36F8FBFF34F8F9D
:10325000FB6000BFFEE7FEF7E5FA1D4B1B68BB6194
:103260007B685B68BA69D31A7B613B681B68B3F102
:10327000FF3F02D10023FB6123E07B681A68154BF6
:103280001B689A4207D07B685B68BA699A4202D38E
:103290000123FB6115E03B681B687A699A420BD2F7
:1032A0003B681A687B69D21A3B681A607868FFF736
:1032B0009BFF0023FB6104E03B6800221A600123AE
:1032C000FB61FEF7DFFAFB6918462037BD4680BD7B
:1032D0000C1B0020201B002080B400AF034B0122F8
:1032E0001A6000BFBD465DF8047B70471C1B0020C0
:1032F00080B582B000AF786000F052F8064B1B68D2
:10330000012BF9D9054B4FF080521A60BFF34F8F54
:10331000BFF36F8FF0E700BF3816002004ED00E028
:1033200080B582B000AF00237B600CE07A68134662
:103330009B0013449B00124A13441846FEF790F872
:103340007B6801337B607B68372BEFD90D48FEF734
:1033500087F80D48FEF784F80C48FEF781F80C4812
:10336000FEF77EF80B48FEF77BF80B4B054A1A6018
:103370000A4B054A1A6000BF0837BD4680BD00BF32
:1033800038160020981A0020AC1A0020C81A002015
:10339000DC1A0020F41A0020C01A0020C41A0020F1
:1033A00080B582B000AF19E0FEF73CFA104BDB6845
:1033B000DB687B607B6804331846FEF7DBF80D4B57
:1033C0001B68013B0B4A13600B4B1B68013B0A4A0D
:1033D0001360FEF757FA786800F010F8064B1B6888
:1033E000002BE1D100BF00BF0837BD4680BD00BF44
:1033F000DC1A0020081B0020F01A002080B584B0E1
:1034000000AF78607B685433184604F07BFB7B6820
:1034100093F8B930002B08D17B681B6B1846FEF778
:10342000EFFB7868FEF7ECFB18E07B6893F8B930A7
:10343000012B03D17868FEF7E3FB0FE07B6893F87C
:10344000B930022B0AD04FF0500383F31188BFF339
:103450006F8FBFF34F8FFB6000BFFEE700BF1037D9
:10346000BD4680BD80B483B000AF0C4B1B681B68A9
:10347000002B04D10A4B4FF0FF321A6008E0074BD3
:103480001B68DB68DB687B607B685B68044A1360F1
:1034900000BF0C37BD465DF8047B7047C01A0020A2
:1034A000281B002080B483B000AF0B4B1B68002B9F
:1034B00002D101237B6008E0084B1B68002B02D17E
:1034C00002237B6001E000237B607B6818460C3799
:1034D000BD465DF8047B7047141B0020301B0020A4
:1034E00080B586B000AF78607B683B6100237B616C
:1034F0007B68002B56D02E4B1B683A699A420AD043
:103500004FF0500383F31188BFF36F8FBFF34F8FDA
:10351000FB6000BFFEE73B691B6D002B0AD14FF03B
:10352000500383F31188BFF36F8FBFF34F8FBB60DE
:1035300000BFFEE73B691B6D5A1E3B691A653B697C
:10354000DA6A3B69DB6C9A422CD03B691B6D002B1D
:1035500028D13B6904331846FEF70CF83B69DA6C56
:103560003B69DA623B69DB6AC3F138023B699A6105
:103570003B69DA6A0F4B1B689A4203D93B69DB6AE5
:103580000C4A13603B69DA6A13469B0013449B00A4
:10359000094A1A443B69043319461046FDF78DFF6A
:1035A00001237B617B6918461837BD4680BD00BF8B
:1035B00034160020101B00203816002080B584B07F
:1035C00000AF78603960214B1B68FB60204B1B68A3
:1035D00004331846FDF7CEFF7B68B3F1FF3F0AD1F5
:1035E0003B68002B07D01A4B1B6804331946194857
:1035F000FDF763FF26E0FA687B681344BB60144B59
:103600001B68BA685A60BA68FB689A4209D2124BC2
:103610001A680F4B1B68043319461046FDF771FFFB
:1036200010E00E4B1A680A4B1B680433194610460B
:10363000FDF767FF0A4B1B68BA689A4202D2084A34
:10364000BB68136000BF1037BD4680BD0C1B002057
:1036500034160020F41A0020C41A0020C01A0020DA
:10366000281B002080B58AB004AF00237B6100F0E6
:1036700007FB1C4B1B68002B21D00023FB600023A1
:10368000BB603A1D07F1080107F10C031846FDF76E
:10369000CDFE7968BB68FA68029201930223009319
:1036A00000230A4610491148FFF7B4F80346104AB0
:1036B00013600F4B1B68002B01D001237B617B69DA
:1036C000002B0AD14FF0500383F31188BFF36F8FA3
:1036D000BFF34F8F3B6100BFFEE77B691846183789
:1036E000BD4680BD641B0020987C00082938000876
:1036F000681B002080B58AB000AFF860B9607A60BE
:103700003B6000237B62FB68002B0AD14FF0500323
:1037100083F31188BFF36F8FBFF34F8F3B6200BFFE
:10372000FEE71A4B1B68002B2AD0BB683B617B6805
:103730007B61FB68BB61BB68052B18DCFFF7B2FE41
:103740000346022B09D1114B186807F11001002321
:103750003A6BFEF777FC786212E00C4B186807F1C1
:10376000100100230022FEF76DFC786208E0074B91
:10377000186807F1100100233A68FEF761FD7862CE
:103780007B6A18462837BD4680BD00BF641B0020F9
:1037900080B588B002AF78603960224B1B68DB6867
:1037A000DB687B617B6904331846FDF7E3FE7B69C8
:1037B00093F8283003F00403002B22D07B699A6928
:1037C0007B68D1187B683A68786900F0D1F80346C5
:1037D000002B1FD00023009300237A680021786912
:1037E000FFF788FF38613B69002B13D14FF050037E
:1037F00083F31188BFF36F8FBFF34F8FFB6000BF60
:10380000FEE77B6993F8283023F00103DAB27B6985
:1038100083F828207B691B6A7869984700BF1837AE
:10382000BD4680BD5C1B002080B584B000AF7860D1
:1038300007F10803184600F057F8F860BB6819460E
:10384000F86800F003F800F0D5F8F1E780B584B02F
:1038500000AF78603960FFF739FA07F108031846BE
:1038600000F066F8F860BB68002B30D13B68002B95
:103870000AD17A68FB689A4206D8FFF735FAF968E8
:103880007868FFF785FF24E03B68002B08D0134BD6
:103890001B681B68002B01D1012300E000233B6063
:1038A0000F4B18687A68FB68D31A3A681946FEF716
:1038B0007DFFFFF719FA0346002B0AD1094B4FF0A1
:1038C00080521A60BFF34F8FBFF36F8F01E0FFF795
:1038D0000BFA00BF1037BD4680BD00BF601B002043
:1038E000641B002004ED00E080B485B000AF786078
:1038F0000E4B1B681B68002B01D1012200E0002247
:103900007B681A607B681B68002B05D1074B1B681E
:10391000DB681B68FB6001E00023FB60FB68184666
:103920001437BD465DF8047B704700BF5C1B002068
:1039300080B584B000AF7860FFF774FAF8600B4B85
:103940001B68FA689A4205D200F036F97B680122BA
:103950001A6002E07B6800221A60044AFB68136068
:10396000FB6818461037BD4680BD00BF6C1B0020A9
:1039700080B586B000AFF860B9607A603B60002324
:103980007B61FB68BA685A60FB68FA681A61BA68BA
:103990007B689A4212D87A683B68D21AFB689B69A6
:1039A0009A4202D301237B611BE0104B1A68FB682B
:1039B000043319461046FDF7A4FD12E07A683B680F
:1039C0009A4206D2BA683B689A4202D301237B61CD
:1039D00007E0074B1A68FB68043319461046FDF7E9
:1039E00090FD7B6918461837BD4680BD601B0020DE
:1039F0005C1B002080B58EB002AFCAE07B68002B54
:103A000018DA3B1D0433FB62FB6A002B0AD14FF02E
:103A1000500383F31188BFF36F8FBFF34F8FFB61A8
:103A200000BFFEE7FB6A1B68FA6A5068FA6A926890
:103A3000114698477B68002BC0F2AA80FB68BB62E6
:103A4000BB6A5B69002B04D0BB6A04331846FDF7E0
:103A500091FD3B461846FFF76BFF78627B68092BA8
:103A600000F2978001A252F823F000BF953A0008B7
:103A7000953A0008953A0008093B00081D3B0008EC
:103A8000673B0008953A0008953A0008093B000892
:103A90001D3B0008BB6A93F8283043F00103DAB2FB
:103AA000BB6A83F82820BA68BB6A9B69D118BB68D7
:103AB0007A6AB86AFFF75CFF0346002B69D0BB6ADD
:103AC0001B6AB86A9847BB6A93F8283003F004036E
:103AD000002B5ED0BA68BB6A9B691A44002300932E
:103AE00000230021B86AFFF705FE38623B6A002B0D
:103AF0004FD14FF0500383F31188BFF36F8FBFF3A3
:103B00004F8FBB6100BFFEE7BB6A93F8283023F0FC
:103B10000103DAB2BB6A83F828203AE0BB6A93F863
:103B2000283043F00103DAB2BB6A83F82820BA6870
:103B3000BB6A9A61BB6A9B69002B0AD14FF05003A4
:103B400083F31188BFF36F8FBFF34F8F7B6100BF8B
:103B5000FEE7BB6A9A697B6AD1187B6A7A6AB86A9F
:103B6000FFF706FF15E0BB6A93F8283003F0020365
:103B7000002B03D1B86AFEF743F80AE0BB6A93F85A
:103B8000283023F00103DAB2BB6A83F8282000E072
:103B900000BF084B1B68391D00221846FEF7ECFBDE
:103BA0000346002B7FF42AAF00BF00BF3037BD466D
:103BB00080BD00BF641B002080B588B002AF48E024
:103BC0002D4B1B68DB681B683B612B4B1B68DB685C
:103BD000DB68FB60FB6804331846FDF7CBFCFB6831
:103BE0001B6AF8689847FB6893F8283003F00403D1
:103BF000002B2ED0FB689B693A691344BB60BA68FE
:103C00003B699A420ED9FB68BA685A60FB68FA6849
:103C10001A61194B1A68FB68043319461046FDF700
:103C200070FC16E00023009300233A690021F86835
:103C3000FFF760FD78607B68002B0AD14FF05003DE
:103C400083F31188BFF36F8FBFF34F8F3B6000BFCB
:103C5000FEE7094B1B681B68002BB1D1064B1B68A4
:103C60007B61064B1B68044A1360044A7B6913603E
:103C700000BF1837BD4680BD5C1B0020601B0020C4
:103C800080B582B002AFFDF7CDFD154B1B68002B50
:103C900020D11448FDF7E4FB1348FDF7E1FB134B7B
:103CA000104A1A60124B104A1A6000230093114BFD
:103CB000114A10210A20FEF729F90346084A136029
:103CC000074B1B68002B05D0054B1B680B4918469A
:103CD000FEF742FDFDF7D6FD00BFBD4680BD00BF2B
:103CE000641B0020341B0020481B00205C1B0020AC
:103CF000601B0020101C0020701B0020A07C00080E
:103D000080B485B000AF78607B6803F00703FB6088
:103D10000C4BDB68BB60BA684FF6FF031340BB6017
:103D2000FB681A02BB68134343F0BF6343F40033DC
:103D3000BB60044ABB68D36000BF1437BD465DF862
:103D4000047B704700ED00E080B400AF044BDB68FB
:103D50001B0A03F007031846BD465DF8047B704755
:103D600000ED00E080B483B000AF0346FB7197F92B
:103D70000730002B0BDBFB7903F01F02074997F993
:103D800007305B09012000FA02F241F8232000BF4E
:103D90000C37BD465DF8047B704700BF00E100E0D2
:103DA00080B483B000AF03463960FB7197F90730E8
:103DB000002B0ADB3B68DAB20C4997F90730120195
:103DC000D2B20B4483F800230AE03B68DAB2084918
:103DD000FB7903F00F03043B1201D2B20B441A76B5
:103DE00000BF0C37BD465DF8047B704700E100E082
:103DF00000ED00E080B489B000AFF860B9607A608F
:103E0000FB6803F00703FB61FB69C3F10703042BA5
:103E100028BF0423BB61FB690433062B02D9FB696D
:103E2000033B00E000237B614FF0FF32BB6902FAE5
:103E300003F3DA43BB681A407B699A404FF0FF31C5
:103E40007B6901FA03F3D9437B680B40134318469F
:103E50002437BD465DF8047B704780B582B000AF63
:103E600078607868FFF74CFF00BF0837BD4680BD1B
:103E700080B586B000AF0346B9607A60FB7300235B
:103E80007B61FFF761FF78617A68B9687869FFF74D
:103E9000B1FF024697F90F3011461846FFF780FF31
:103EA00000BF1837BD4680BD80B582B000AF034665
:103EB000FB7197F907301846FFF754FF00BF08372A
:103EC000BD4680BD80B485B000AF78600023FB7331
:103ED0007B6893F82530DBB2022B08D07B68042284
:103EE000DA637B68002283F82420012322E07B68C8
:103EF0001B681A687B681B6822F00E021A607B68D8
:103F00001B681A687B681B6822F001021A607B68D4
:103F10005B6C03F01C027B681B6C012101FA02F24E
:103F20005A607B68012283F825207B68002283F891
:103F30002420FB7B18461437BD465DF8047B704790
:103F400080B584B000AF78600023FB737B6893F882
:103F50002530DBB2022B05D07B680422DA63012313
:103F6000FB7329E07B681B681A687B681B6822F07A
:103F70000E021A607B681B681A687B681B6822F057
:103F800001021A607B685B6C03F01C027B681B6C8F
:103F9000012101FA02F25A607B68012283F8252090
:103FA0007B68002283F824207B689B6B002B03D066
:103FB0007B689B6B78689847FB7B18461037BD463B
:103FC00080BD80B483B000AF78607B6893F8253003
:103FD000DBB218460C37BD465DF8047B7047000025
:103FE00080B487B000AF7860396000237B6154E112
:103FF0003B681A6801217B6901FA03F31340FB60F7
:10400000FB68002B00F046813B685B6803F003030C
:10401000012B05D03B685B6803F00303022B30D112
:104020007B689B683B617B695B00032202FA03F3B8
:10403000DB433A6913403B613B68DA687B695B00AC
:1040400002FA03F33A6913433B617B683A699A6069
:104050007B685B683B6101227B6902FA03F3DB4307
:104060003A6913403B613B685B681B0903F001023E
:104070007B6902FA03F33A6913433B617B683A694F
:104080005A603B685B6803F00303032B17D07B681F
:10409000DB683B617B695B00032202FA03F3DB43CD
:1040A0003A6913403B613B689A687B695B0002FA9E
:1040B00003F33A6913433B617B683A69DA603B6812
:1040C0005B6803F00303022B23D17B69DA087B686A
:1040D000083253F822303B617B6903F007039B00F1
:1040E0000F2202FA03F3DB433A6913403B613B685A
:1040F0001A697B6903F007039B0002FA03F33A692C
:1041000013433B617B69DA087B680832396943F8FD
:1041100022107B681B683B617B695B00032202FA0B
:1041200003F3DB433A6913403B613B685B6803F090
:1041300003027B695B0002FA03F33A6913433B61B4
:104140007B683A691A603B685B6803F44033002B74
:1041500000F0A080584B1B6E574A43F001031366D2
:10416000554B1B6E03F00103BB60BB68534A7B6970
:104170009B08023352F823303B617B6903F0030351
:104180009B000F2202FA03F3DB433A6913403B61C1
:104190007B68B3F1904F19D07B68494A934213D0A2
:1041A0007B68484A93420DD07B68474A934207D0C8
:1041B0007B68464A934201D1042308E0072306E0C6
:1041C000032304E0022302E0012300E000237A69D4
:1041D00002F00302920093403A6913433B6137496E
:1041E0007B699B0802333A6941F82320384B9B686E
:1041F0003B61FB68DB433A6913403B613B685B68AA
:1042000003F48013002B03D03A69FB6813433B612E
:104210002F4A3B6993602E4BDB683B61FB68DB43B5
:104220003A6913403B613B685B6803F40013002B61
:1042300003D03A69FB6813433B61254A3B69D3606D
:10424000234B5B683B61FB68DB433A6913403B618E
:104250003B685B6803F40033002B03D03A69FB68CA
:1042600013433B611A4A3B695360194B1B683B611E
:10427000FB68DB433A6913403B613B685B6803F4CE
:104280008033002B03D03A69FB6813433B61104A2B
:104290003B6913607B6901337B613B681A687B690A
:1042A00022FA03F3002B7FF4A3AE00BF00BF1C373C
:1042B000BD465DF8047B70470010024000000140DD
:1042C0000004004800080048000C004800100048A6
:1042D0000004014080B485B000AF78600B467B805D
:1042E0007B681A697B881340002B02D00123FB7383
:1042F00001E00023FB73FB7B18461437BD465DF8D5
:10430000047B704780B483B000AF78600B467B803D
:1043100013467B707B78002B03D07A887B689A6188
:1043200002E07A887B689A6200BF0C37BD465DF870
:10433000047B704780B485B000AF78600B467B800B
:104340007B685B69FB607A88FB6813401A04FB6832
:10435000D9437B880B401A437B689A6100BF1437AE
:10436000BD465DF8047B704780B483B000AF7860D1
:1043700039607B6893F84130DBB2202B38D17B6801
:1043800093F84030012B01D1022332E07B680122F7
:1043900083F840207B68242283F841207B681B68D7
:1043A0001A687B681B6822F001021A607B681B6830
:1043B0001A687B681B6822F480521A607B681B684D
:1043C00019687B681B683A680A431A607B681B6837
:1043D0001A687B681B6842F001021A607B68202221
:1043E00083F841207B68002283F84020002300E00E
:1043F000022318460C37BD465DF8047B704780B435
:1044000085B000AF786039607B6893F84130DBB2EB
:10441000202B39D17B6893F84030012B01D1022346
:1044200033E07B68012283F840207B68242283F8F4
:1044300041207B681B681A687B681B6822F00102B8
:104440001A607B681B681B68FB60FB6823F4706361
:10445000FB603B681B02FA681343FB607B681B68C8
:10446000FA681A607B681B681A687B681B6842F0F0
:1044700001021A607B68202283F841207B680022B9
:1044800083F84020002300E0022318461437BD467D
:104490005DF8047B704780B582B000AF78607B68C0
:1044A000002B01D1012381E07B6893F84130DBB21E
:1044B000002B06D17B68002283F840207868FCF747
:1044C000CFFB7B68242283F841207B681B681A6835
:1044D0007B681B6822F001021A607B685A687B685F
:1044E0001B6822F070621A617B681B689A687B689F
:1044F0001B6822F400429A607B68DB68012B07D1BD
:104500007B689A687B681B6842F400429A6006E008
:104510007B689A687B681B6842F404429A607B68F7
:10452000DB68022B04D17B681B684FF400625A6081
:104530007B681B685B687A68126843F0007343F419
:10454000004353607B681B68DA687B681B6822F451
:104550000042DA607B681A697B685B6942EA0301A2
:104560007B689B691A027B681B680A43DA607B6878
:10457000D9697B681A6A7B681B680A431A607B6882
:104580001B681A687B681B6842F001021A607B682E
:1045900000225A647B68202283F841207B68002235
:1045A0001A637B68002283F84220002318460837EC
:1045B000BD4680BD80B584B000AF78607B681B6865
:1045C0009B69FB607B681B681B68BB607B685B6BDF
:1045D000002B05D07B685B6BBA68F96878689847F0
:1045E00000BF1037BD4680BD80B586B000AF786093
:1045F0007B681B689B697B617B681B681B683B61F0
:104600007B691B0A03F00103002B10D03B69DB0917
:1046100003F00103002B0AD07B685B6C43F00102BE
:104620007B685A647B681B684FF48072DA617B692F
:104630009B0A03F00103002B10D03B69DB0903F058
:104640000103002B0AD07B685B6C43F008027B6897
:104650005A647B681B684FF48062DA617B695B0A8D
:1046600003F00103002B10D03B69DB0903F00103C9
:10467000002B0AD07B685B6C43F002027B685A64B3
:104680007B681B684FF40072DA617B685B6CFB60CF
:10469000FB6803F00B03002B03D0F968786800F087
:1046A00089FB00BF1837BD4680BD80B483B000AF22
:1046B000786000BF0C37BD465DF8047B704780B45E
:1046C00083B000AF786000BF0C37BD465DF8047B57
:1046D000704780B483B000AF78600B46FB70134620
:1046E0003B8000BF0C37BD465DF8047B704780B44B
:1046F00083B000AF786000BF0C37BD465DF8047B27
:10470000704780B483B000AF786000BF0C37BD46FF
:104710005DF8047B704780B483B000AF786000BF61
:104720000C37BD465DF8047B704780B586B000AF9E
:10473000F860B9607A60FB68DB6A7B61BB683B61EB
:10474000FB6893F84030012B01D10223ECE0FB68B9
:10475000012283F840203B695B0903F00103002B31
:1047600009D07B685B0903F00103002B03D0396992
:10477000F86800F0BFF93B691B0903F00103002B47
:104780004DD07B681B0903F00103002B47D0FB6869
:104790005B8D9BB2002B28D1FB6893F84130DBB2D4
:1047A000282B08D17B69B3F1007F04D13969F868FF
:1047B00000F0AAFA32E0FB6893F84130DBB2292B13
:1047C0000ED17B6913F5803F0AD0FB681B6810226D
:1047D000DA61F86800F0E5FBF86800F02DF91DE0FB
:1047E000FB681B681022DA6196E0FB681B681022E8
:1047F000DA61FB685B6C43F00402FB685A647B6916
:10480000002B04D07B69B3F1807F40F08580FB688A
:104810005B6C1946F86800F0CDFA7DE07CE03B69FE
:104820009B0803F00103002B30D07B689B0803F04A
:104830000103002B2AD0FB685B8D9BB2002B18D0A4
:10484000FB681B685A6AFB685B6AD2B21A70FB6825
:104850005B6A5A1CFB685A62FB681B8D013B9AB26B
:10486000FB681A85FB685B8D9BB2013B9AB2FB68C3
:104870005A85FB685B8D9BB2002B4FD17B6913F58A
:10488000803F4BD0F86800F0D7F847E03B69DB0881
:1048900003F00103002B0AD07B68DB0803F001035F
:1048A000002B04D03969F86800F042F837E03B6922
:1048B0005B0803F00103002B31D07B685B0803F039
:1048C0000103002B2BD0FB685B8D9BB2002B18D013
:1048D000FB685B6A1A78FB681B689A62FB685B6A14
:1048E0005A1CFB685A62FB685B8D9BB2013B9AB213
:1048F000FB685A85FB681B8D013B9AB2FB681A85E1
:104900000DE07B69B3F1807F02D07B69002B06D17B
:10491000F86800F091F802E000BF00E000BFFB681B
:10492000002283F84020002318461837BD4680BD7A
:1049300080B584B000AF786039607B6893F841300F
:10494000DBB203F02803282B6AD17B681B689B69C4
:104950001B0CDBB203F00103FB737B681B689B69D4
:104960001B0C9BB203F0FE03BB817B681B689B683A
:104970009BB2C3F309037B817B681B68DB689BB236
:1049800003F0FE033B817B68DB68022B38D17B8917
:10499000DB099AB2BB8953409BB203F00603002B9C
:1049A0001CD17B89BB817B689B6C5A1C7B689A6499
:1049B0007B689B6C022B3BD17B6800229A647B68EE
:1049C0001B680822DA617B68002283F84020BA89DC
:1049D000FB7B19467868FFF77CFE29E03B89BB81A9
:1049E0004FF40041786800F01EFB7B68002283F8DA
:1049F0004020BA89FB7B19467868FFF76AFE17E00A
:104A00004FF40041786800F00EFB7B68002283F8C9
:104A10004020BA89FB7B19467868FFF75AFE07E009
:104A20007B681B680822DA617B68002283F84020DB
:104A300000BF1037BD4680BD80B584B000AF786040
:104A40007B681B681B68FB607B68002283F8422040
:104A5000FB689B0B03F00103002B08D07B681B68ED
:104A60001A687B681B6822F480421A600DE0FB68BC
:104A7000DB0B03F00103002B07D07B681B681A686F
:104A80007B681B6822F400421A607B6893F841300F
:104A9000DBB2292B12D17B68282283F841207B6866
:104AA00021221A630121786800F0BDFA7B68002298
:104AB00083F840207868FFF7F8FD17E07B6893F8EB
:104AC0004130DBB22A2B11D17B68282283F84120A8
:104AD0007B6822221A630221786800F0A4FA7B68BE
:104AE000002283F840207868FFF7E9FD00BF103707
:104AF000BD4680BD80B586B000AF786039607B6808
:104B00001B681B683B613B687B617B6893F84130A5
:104B1000FB737B681B682022DA61FB7B212B02D0B0
:104B2000FB7B292B08D148F20101786800F07BFA61
:104B30007B6821221A630DE0FB7B222B02D0FB7BDA
:104B40002A2B07D148F20201786800F06CFA7B68E2
:104B500022221A637B681B685A687B681B6842F4D0
:104B600000425A607B681B6859687B681A68644B0E
:104B70000B405360786800F014FA3B699B0B03F01C
:104B80000103002B13D07B681B681A687B681B68C5
:104B900022F480421A607B689B6B002B20D07B68DC
:104BA0009B6B1B685B689AB27B685A8518E03B690F
:104BB000DB0B03F00103002B12D07B681B681A6823
:104BC0007B681B6822F400421A607B68DB6B002B59
:104BD00006D07B68DB6B1B685B689AB27B685A8582
:104BE0007B699B0803F00103002B20D07B6923F035
:104BF00004037B617B681B685A6A7B685B6AD2B27C
:104C00001A707B685B6A5A1C7B685A627B681B8DD2
:104C1000002B0CD07B681B8D013B9AB27B681A85F8
:104C20007B685B8D9BB2013B9AB27B685A857B683F
:104C30005B8D9BB2002B05D07B685B6C43F004025C
:104C40007B685A647B68002283F842207B680022DC
:104C50005A637B685B6C002B10D07B685B6C1946D9
:104C6000786800F0A7F87B6893F84130DBB2282B16
:104C700041D17969786800F047F83CE07B68DB6AED
:104C800013F5803F14D07868FFF7D6FE7B681D4A85
:104C9000DA627B68202283F841207B6800221A6355
:104CA0007B68002283F840207868FFF720FD22E02F
:104CB0007B6893F84130DBB2222B0ED17B68202237
:104CC00083F841207B6800221A637B68002283F806
:104CD00040207868FFF7F3FC0DE07B68202283F822
:104CE00041207B6800221A637B68002283F8402001
:104CF0007868FFF7DAFC00BF1837BD4680BD00BFFB
:104D000000E800FE0000FFFF80B582B000AF7860D1
:104D100039607B68264ADA627B6800221A637B6806
:104D2000202283F841207B68002283F842207B68A0
:104D300000225A633B689B0803F00103002B22D03A
:104D40007B681B685A6A7B685B6AD2B21A707B68A0
:104D50005B6A5A1C7B685A627B681B8D002B12D0E1
:104D60007B681B8D013B9AB27B681A857B685B8DE3
:104D70009BB2013B9AB27B685A857B685B6C43F0BF
:104D800004027B685A6448F20301786800F04BF92A
:104D90007B681B681022DA617B68002283F8402060
:104DA0007868FFF7A4FC00BF0837BD4680BD00BF90
:104DB0000000FFFF80B584B000AF786039607B6889
:104DC00093F84130FB737B68002283F842207B68B4
:104DD0005D4ADA627B6800225A857B685A6C3B68C0
:104DE0001A437B685A64FB7B282B05D0FB7B292B5D
:104DF00002D0FB7B2A2B0BD10321786800F013F93A
:104E00007B68282283F841207B68504A5A6311E06E
:104E100048F20301786800F006F97B6893F84130A6
:104E2000DBB2602B03D07B68202283F841207B68B3
:104E300000225A637B681B6BBB607B689B6B002BFB
:104E400039D0BB68112B02D0BB68212B33D17B68D2
:104E50001B681B6803F48043B3F5804F07D17B6860
:104E60001B681A687B681B6822F480421A607B68A2
:104E70009B6B1846FFF7A5F80346012B17D07B68FC
:104E80009B6B334A9A637B68002283F840207B68DF
:104E90009B6B1846FFF754F80346002B4DD07B68F8
:104EA0009B6B9B6B7A68926B1046984745E07868DD
:104EB00000F050F841E07B68DB6B002B39D0BB6819
:104EC000122B02D0BB68222B33D17B681B681B6876
:104ED00003F40043B3F5004F07D17B681B681A68E1
:104EE0007B681B6822F400421A607B68DB6B184603
:104EF000FFF767F80346012B17D07B68DB6B144A7A
:104F00009A637B68002283F840207B68DB6B18463D
:104F1000FFF716F80346002B11D07B68DB6B9B6B09
:104F20007A68D26B1046984709E0786800F012F86A
:104F300005E0786800F00EF802E000BF00E000BF76
:104F400000BF1037BD4680BD0000FFFF2B470008A3
:104F5000EB4F000880B582B000AF78607B6893F8B3
:104F60004130DBB2602B0ED17B68202283F84120D8
:104F70007B6800221A637B68002283F840207868EF
:104F8000FFF7C9FB09E07B6800221A637B680022F7
:104F900083F840207868FFF7B4FB00BF0837BD46B0
:104FA00080BD80B483B000AF78607B681B689B696C
:104FB00003F00203022B03D17B681B6800229A6274
:104FC0007B681B689B6903F00103012B07D07B689A
:104FD0001B689A697B681B6842F001029A6100BFF6
:104FE0000C37BD465DF8047B704780B584B000AFD8
:104FF00078607B689B6AFB60FB689B6B002B03D02F
:10500000FB689B6B00229A63FB68DB6B002B03D071
:10501000FB68DB6B00229A63F868FFF79BFF00BF19
:105020001037BD4680BD80B485B000AF78600B46B8
:105030007B800023FB607B8803F00103002B0FD0F3
:10504000FB6843F04203FB607B6893F84130DBB2BE
:1050500003F02803282B03D0FB6843F0B003FB6068
:105060007B8803F00203002B0FD0FB6843F044035E
:10507000FB607B6893F84130DBB203F02803282BF8
:1050800003D0FB6843F0B003FB60B7F90230002B9C
:1050900003DAFB6843F0B803FB607B88102B03D175
:1050A000FB6843F09003FB607B88202B03D1FB68F7
:1050B00043F02003FB607B88402B03D1FB6843F067
:1050C0004003FB607B681B681968FB68DA437B68F8
:1050D0001B680A401A6000BF1437BD465DF8047BA8
:1050E0007047000080B400AF044B1B6803F4C0633A
:1050F0001846BD465DF8047B704700BF0070004055
:1051000080B485B000AF78607B68B3F5007F30D1A4
:10511000234B1B6803F4C063B3F5007F38D0204BEA
:105120001B6823F4C0631E4A43F4007313601D4BD5
:105130001B68322202FB03F31B4AA2FB03239B0CD6
:105140000133FB6002E0FB68013BFB60144B5B69D1
:1051500003F48063B3F5806F02D1FB68002BF2D1BA
:105160000F4B5B6903F48063B3F5806F10D10323A9
:105170000FE00B4B1B6803F4C063B3F5806F07D0DF
:10518000074B1B6823F4C063054A43F48063136034
:10519000002318461437BD465DF8047B704700BFF6
:1051A000007000400000002083DE1B4380B586B005
:1051B00000AF78600023FB740023BB747B681B681E
:1051C00003F40063002B31D07B685B6CB3F5400FB8
:1051D0001AD0B3F5400F14D8002B09D0B3F5000F47
:1051E0000FD15D4BDB685C4A43F48033D3600CE045
:1051F0007B6804330021184600F022FA0346FB7452
:1052000003E00123FB7400E000BFFB7C002B0BD10B
:10521000514BD3F8883023F440027B685B6C4E49D5
:105220001343C1F8883001E0FB7CBB747B681B68CA
:1052300003F40033002B00F09E8000237B74464B68
:105240009B6D03F08053002B01D1012300E000236C
:10525000002B0DD0404B9B6D3F4A43F0805393652C
:105260003D4B9B6D03F08053BB60BB6801237B7497
:105270003A4B1B68394A43F48073136002F0ECFB2D
:10528000F86009E002F0E8FB0246FB68D31A022B43
:1052900002D90323FB7405E0304B1B6803F48073D1
:1052A000002BEFD0FB7C002B5AD12B4BD3F8903046
:1052B00003F440737B617B69002B1ED07B68DB6D40
:1052C0007A699A4219D0244BD3F8903023F4407372
:1052D0007B61214BD3F890301F4A43F48033C2F8EE
:1052E00090301D4BD3F890301B4A23F48033C2F822
:1052F0009030194A7B69C2F890307B6903F0010352
:10530000002B16D002F0A8FBF8600BE002F0A4FB23
:105310000246FB68D31A41F28832934202D9032332
:10532000FB7406E00C4BD3F8903003F00203002B23
:10533000ECD0FB7C002B0BD1074BD3F8903023F43F
:1053400040727B68DB6D04491343C1F8903009E07B
:10535000FB7CBB7406E000BF001002400070004000
:10536000FB7CBB747B7C012B05D18D4B9B6D8C4AE8
:1053700023F0805393657B681B6803F00103002BC7
:105380000AD0874BD3F8883023F003027B681B6A6E
:1053900083491343C1F888307B681B6803F002031C
:1053A000002B0AD07E4BD3F8883023F00C027B68A8
:1053B0005B6A7B491343C1F888307B681B6803F044
:1053C0000403002B0AD0764BD3F8883023F0300248
:1053D0007B689B6A72491343C1F888307B681B68FD
:1053E00003F02003002B0AD06D4BD3F8883023F450
:1053F00040627B68DB6A6A491343C1F888307B6886
:105400001B6803F40073002B0AD0654BD3F8883077
:1054100023F440227B68DB6B61491343C1F8883079
:105420007B681B6803F48063002B0AD05C4BD3F8C5
:10543000883023F440127B681B6C59491343C1F830
:1054400088307B681B6803F04003002B0AD0544B64
:10545000D3F8883023F440527B681B6B50491343C8
:10546000C1F888307B681B6803F08003002B0AD0EA
:105470004B4BD3F8883023F440427B685B6B484940
:105480001343C1F888307B681B6803F48073002BDA
:105490000AD0434BD3F8883023F440327B689B6BAF
:1054A0003F491343C1F888307B681B6803F40053FD
:1054B000002B28D03A4BD3F8883023F040627B6829
:1054C0009B6C37491343C1F888307B689B6CB3F100
:1054D000006F06D1324BDB68314A43F48013D3604E
:1054E00011E07B689B6CB3F1806F0CD17B68043357
:1054F0000121184600F0A4F80346FB74FB7C002B46
:1055000001D0FB7CBB747B681B6803F40023002B79
:1055100028D0234BD3F8883023F040627B68DB6CC3
:105520001F491343C1F888307B68DB6CB3F1006F0F
:1055300006D11B4BDB681A4A43F48013D36011E099
:105540007B68DB6CB3F1806F0CD17B680433012185
:10555000184600F075F80346FB74FB7C002B01D065
:10556000FB7CBB747B681B6803F48023002B2BD06F
:105570000B4BD3F8883023F040627B681B6D0849E1
:105580001343C1F888307B681B6DB3F1006F09D1FC
:10559000034BDB68024A43F48013D36014E000BF7E
:1055A000001002407B681B6DB3F1806F0CD17B68EB
:1055B00004330121184600F043F80346FB74FB7CDA
:1055C000002B01D0FB7CBB747B681B6803F4804319
:1055D000002B1CD0194BD3F8883023F040527B6845
:1055E0005B6D16491343C1F888307B685B6DB3F17E
:1055F000805F0CD17B6804330221184600F020F84C
:105600000346FB74FB7C002B01D0FB7CBB747B68E6
:105610001B6803F40043002B0AD0084BD3F88830F2
:1056200023F080427B689B6D04491343C1F88830A6
:10563000BB7C18461837BD4680BD00BF0010024035
:1056400080B584B000AF786039600023FB73744B81
:10565000DB6803F00303002B18D0714BDB6803F009
:1056600003027B681B689A420DD17B681B68002B84
:1056700009D06B4BDB681B0903F007035A1C7B68DE
:105680005B689A4247D00123FB7344E07B681B6848
:10569000032B18D0032B25D8012B02D0022B09D0C5
:1056A00020E05F4B1B6803F00203002B1DD1012398
:1056B000FB731AE05A4B1B6803F48063002B16D16E
:1056C0000123FB7313E0564B1B6803F40033002BDC
:1056D0000FD1534B1B6803F48023002B09D1012306
:1056E000FB7306E00123FB7304E000BF02E000BF90
:1056F00000E000BFFB7B002B0DD1494BDB6823F0A2
:1057000073027B6819687B685B68013B1B010B4374
:1057100043491343CB60FB7B002B7CD1404B1B6880
:105720003F4A23F08063136002F096F9B86009E005
:1057300002F092F90246BB68D31A022B02D9032366
:10574000FB7305E0364B1B6803F00063002BEFD1C1
:10575000FB7B002B5FD13B68002B10D1304B1B69CA
:1057600023F0784323F4FE437A68926811027A6842
:10577000D268D2060A432A4913430B6127E03B68EB
:10578000012B12D1264B1B6923F4C00323F4FE43E3
:105790007A68926811027A6812695208013A5205D1
:1057A0000A431F4913430B6111E01D4B1B6923F092
:1057B000C06323F4FE437A68926811027A685269E2
:1057C0005208013A52060A43154913430B61144B20
:1057D0001B68134A43F08063136002F03DF9B86020
:1057E00009E002F039F90246BB68D31A022B02D94C
:1057F0000323FB7305E00A4B1B6803F00063002BD7
:10580000EFD0FB7B002B06D1054B1A697B689B69A7
:10581000034913430B61FB7B18461037BD4680BD1F
:105820000010024080B588B000AF78607B68002B24
:1058300002D1012300F002BC964B9B6803F00C03DD
:10584000BB61944BDB6803F003037B617B681B68DF
:1058500003F01003002B00F0E480BB69002B07D09D
:10586000BB690C2B40F08B807B69012B40F087805B
:10587000884B1B6803F00203002B05D07B689B69F3
:10588000002B01D10123D9E37B681A6A814B1B6885
:1058900003F00803002B04D07E4B1B6803F0F003D9
:1058A00005E07C4BD3F894301B0903F0F0039342DE
:1058B00023D27B681B6A184600F0BCFD0346002B10
:1058C00001D00123BAE3734B1B68724A43F008030B
:1058D0001360704B1B6823F0F0027B681B6A6D49F4
:1058E00013430B606B4B5B6823F47F427B68DB697F
:1058F0001B02684913434B6025E0664B1B68654AF1
:1059000043F008031360634B1B6823F0F0027B68CD
:105910001B6A604913430B605E4B5B6823F47F4254
:105920007B68DB691B025B4913434B60BB69002B3F
:1059300009D17B681B6A184600F07CFD0346002BEA
:1059400001D001237AE300F081FC0246514B9B68B1
:105950001B0903F00F035049CB5C03F01F0322FA2D
:1059600003F34E4A13604E4B1B681846FBF700FBCF
:105970000346FB73FB7B002B52D0FB7B5EE37B6813
:105980009B69002B32D0434B1B68424A43F0010312
:10599000136002F061F8386108E002F05DF8024639
:1059A0003B69D31A022B01D9032347E3394B1B6808
:1059B00003F00203002BF0D0364B1B68354A43F04E
:1059C00008031360334B1B6823F0F0027B681B6AEB
:1059D000304913430B602F4B5B6823F47F427B6895
:1059E000DB691B022B4913434B601AE0294B1B68F0
:1059F000284A23F00103136002F02EF8386108E012
:105A000002F02AF802463B69D31A022B01D903237C
:105A100014E3204B1B6803F00203002BF0D100E0DD
:105A200000BF7B681B6803F00103002B73D0BB69C8
:105A3000082B05D0BB690C2B0ED17B69032B0BD136
:105A4000144B1B6803F40033002B63D07B685B6846
:105A5000002B5FD10123F1E27B685B68B3F5803FE7
:105A600006D10C4B1B680B4A43F48033136025E0CE
:105A70007B685B68B3F5A02F14D1064B1B68054A01
:105A800043F480231360034B1B68024A43F48033C2
:105A9000136013E000100240F87F000800000020AF
:105AA00008000020A04B1B689F4A23F4803313603A
:105AB0009D4B1B689C4A23F4802313607B685B68C2
:105AC000002B13D001F0C8FF386108E001F0C4FFDB
:105AD00002463B69D31A642B01D90323AEE2924BF1
