:020000040800F2
:1000000000000120B9070008550700085B07000839
:1000100061070008670700086D070008000000007E
:10002000000000000000000000000000D1080008EF
:100030007307000800000000010900080D0800080F
:10004000090800080908000809080008090800084C
:10005000090800080908000809080008C104000888
:10006000090800080908000809080008090800082C
:10007000090800080908000809080008090800081C
:10008000090800080908000809080008090800080C
:1000900009080008090800080908000809080008FC
:1000A0000908000881070008090800080908000875
:1000B000090800080000000000000000D10400084A
:1000C00009080008E50400080908000809080008F4
:1000D000090800080D050008F904000809080008CF
:1000E00009080008090800080000000000000000DE
:1000F0000000000000000000000000000000000000
:1001000000000000090800080000000009080008BD
:1001100000000000000000000908000809080008AD
:10012000090800080908000809080008090800086B
:1001300009080008000000000000000000000000A6
:10014000090800080908000809080008090800084B
:10015000090800080908000809080008090800083B
:100160000908000809080008090800080000000044
:100170000908000809080008090800080000000034
:0C01800009080008090800080908000828
:1001900010B5054C237833B9044B13B10448AFF3C1
:1001A00000800123237010BD8401002000000000A6
:1001B000D82D000808B5034B1BB103490348AFF322
:1001C000008008BD0000000088010020D82D000834
:1001D00080B58CB000AF0346FB71FB791A2B01D9B7
:1001E0000023EFE007F11C0300221A605A609A60B6
:1001F000DA601A61FA7975491346DB009B1A9B0095
:100200000B441B68724A93423DD0714A934254DCBE
:10021000B3F1904F03D06F4A93421AD04DE06E4B2A
:100220001B7803F00103002B49D16C4BDB6C6B4A4C
:1002300043F00103D364694BDB6C03F001037B6182
:100240007B69654B1B7843F00103DAB2624B1A708D
:1002500035E0614B1B7803F00203002B31D15F4B7B
:10026000DB6C5E4A43F00203D3645C4BDB6C03F04F
:1002700002033B613B69584B1B7843F00203DAB23F
:10028000554B1A701DE0544B1B7803F00403002BF0
:1002900019D1524BDB6C514A43F00403D3644F4BEA
:1002A000DB6C03F00403FB60FB684B4B1B7843F0F3
:1002B0000403DAB2484B1A7005E0002382E000BF65
:1002C00002E000BF00E000BFFA7940491346DB00BE
:1002D0009B1A9B000B441868FA793C491346DB00D3
:1002E0009B1A9B000B4404331B689BB200221946E7
:1002F00000F094FFFA7935491346DB009B1A9B0006
:100300000B4404331B68FB61FA7930491346DB0068
:100310009B1A9B000B4408331B683B62FA792B49FC
:100320001346DB009B1A9B000B440C331B68BB621B
:10033000FA7926491346DB009B1A9B000B441033C5
:100340001B687B62FA7921491346DB009B1A9B00EC
:100350000B4414331B68FB62FA791C491346DB001B
:100360009B1A9B000B441B6807F11C0211461846A0
:1003700000F0DAFDFA7915491346DB009B1A9B0061
:100380000B4418331B78002B1BD0FA790F49134606
:10039000DB009B1A9B000B44193393F900300022B9
:1003A0000521184600F016FDFA7908491346DB00CE
:1003B0009B1A9B000B44193393F90030184600F048
:1003C00025FD012318463037BD4680BDF02D0008BD
:1003D0000008004800040048A0010020001002406E
:1003E00080B582B000AF0346FB71FB791A2B01D9AF
:1003F000002315E0FA790C491346DB009B1A9B0099
:100400000B441868FA7908491346DB009B1A9B00D5
:100410000B4404331B689BB2194600F017FF0123FD
:1004200018460837BD4680BDF02D000880B582B063
:1004300000AF03460A46FB711346BB71FB791A2BCA
:1004400001D9002335E0BB79002B18D0012B2DD129
:10045000FA791A491346DB009B1A9B000B44186873
:10046000FA7916491346DB009B1A9B000B440433B0
:100470001B689BB20122194600F0D0FE18E0FA7901
:100480000E491346DB009B1A9B000B441868FA794F
:100490000A491346DB009B1A9B000B4404331B687C
:1004A0009BB20022194600F0B9FE01E0002300E0F3
:1004B000012318460837BD4680BD00BFF02D000857
:1004C00080B500AF022000F0DBFE00BF80BD000061
:1004D00080B500AF024800F0F6FE00BF80BD00BF4F
:1004E000F801002080B500AF024800F0ECFE00BF2C
:1004F00080BD00BFF801002080B500AF024802F0C7
:100500003DF800BF80BD00BF0000002080B500AFF7
:10051000024802F033F800BF80BD00BF9400002005
:1005200080B500AF02F0CFFB00F01FF80A20FFF704
:100530004FFE0520FFF74CFE00210520FFF776FF58
:100540000B20FFF745FE00210B20FFF76FFF322045
:1005500002F0F2FB0520FFF743FF4FF47A7002F040
:10056000EBFB0520FFF73CFFFEE780B596B000AF40
:1005700007F1140344220021184602F001FC3B4617
:1005800000221A605A609A60DA601A614FF40070B3
:1005900000F0C2FE0346002B01D000F03DF801231D
:1005A0007B614FF48033BB610023FB6307F11403CD
:1005B000184600F007FF0346002B01D000F02CF88E
:1005C0000F233B6002237B600023BB604FF4A063DA
:1005D000FB604FF4A0633B613B460021184601F0ED
:1005E00005FB0346002B01D000F016F800BF58377A
:1005F000BD4680BD80B582B000AF78607B681B6867
:10060000044A934201D102F077FB00BF0837BD4690
:1006100080BD00BF002C014080B400AF72B600BFA7
:10062000FEE7000080B582B000AF114B1B6E104A90
:1006300043F0010313660E4B1B6E03F001037B6056
:100640007B680B4B9B6D0A4A43F080539365084BC4
:100650009B6D03F080533B603B6800220F216FF0DD
:10066000010000F0B7FB00BF0837BD4680BD00BFEA
:100670000010024080B58CB000AF7860002387F88E
:100680002F302F4B1B6E2E4A43F4006313662C4B06
:100690001B6E03F40063BB60BB6807F10C0207F13B
:1006A00010031146184601F04DFC01F035FC0346DD
:1006B0005B00BB62BB6A234AA2FB03239B0C013B8A
:1006C0007B62214B214A1A601F4B40F2E732DA600D
:1006D0001D4A7B6A53601C4B00221A611A4B002290
:1006E0009A60194B00229A61174801F0DBFC03461F
:1006F00087F82F3097F82F30002B1BD1124801F0CC
:1007000033FD034687F82F3097F82F30002B11D197
:10071000192000F07BFB7B680F2B08D8002279683A
:10072000192000F057FB0A4A7B68136002E001239E
:1007300087F82F3097F82F3018463037BD4680BDE8
:100740000010024083DE1B434C020020002C0140BD
:100750002C01002080B400AFFEE780B400AFFEE7BC
:1007600080B400AFFEE780B400AFFEE780B400AF16
:10077000FEE780B400AF00BFBD465DF8047B704764
:1007800080B500AF024801F043FD00BF80BD00BF4F
:100790004C02002080B400AF064BD3F88830054AE5
:1007A00043F47003C2F8883000BFBD465DF8047B97
:1007B000704700BF00ED00E0DFF834D0FFF7EAFF3C
:1007C0000C480D490D4A002302E0D458C4500433AC
:1007D000C4188C42F9D30A4A0A4C002301E0136082
:1007E0000432A242FBD302F0D3FAFFF799FEFEE7F0
:1007F00000000120000000208401002034310008A6
:100800008401002060080020FEE7000080B500AFF2
:10081000054B1B6800F008FA0346012B01D000F0DD
:10082000A3F800BF80BD00BF10E000E080B485B039
:1008300000AF786039607B685B68FB603B68FA6892
:100840005A60FB689A683B689A60FB689B683A68E4
:100850005A60FB683A689A603B687A681A617B68FC
:100860001B685A1C7B681A6000BF1437BD465DF8D0
:10087000047B704780B485B000AF78607B681B69EB
:10088000FB607B685B687A6892689A607B689B68AB
:100890007A6852685A60FB685B687A689A4203D14A
:1008A0007B689A68FB685A607B6800221A61FB6863
:1008B0001B685A1EFB681A60FB681B6818461437D1
:1008C000BD465DF8047B704700000000000000009A
:1008D000074B19680868B0E8F04F80F30988BFF348
:1008E0006F8F4FF0000080F311887047AFF30080E6
:1008F0009802002000BF00BF0000000000000000C0
:10090000EFF30980BFF36F8F154B1A681EF0100FBD
:1009100008BF20ED108A20E9F04F10602DE9090092
:100920004FF0500080F31188BFF34F8FBFF36F8FEC
:1009300000F0F6F84FF0000080F3118809BC196848
:100940000868B0E8F04F1EF0100F08BFB0EC108A36
:1009500080F30988BFF36F8F704700BFAFF300804B
:100960009802002000BF00BF80B582B000AF4FF0FA
:10097000500383F31188BFF36F8FBFF34F8F7B60FA
:1009800000BF00F013F80346002B03D0064B4FF0D6
:1009900080521A6000233B603B6883F3118800BFDC
:1009A00000BF0837BD4680BD04ED00E080B586B0CD
:1009B00000AF00237B614F4B1B68002B40F08F8002
:1009C0004D4B1B6801333B614B4A3B6913603B69EC
:1009D000002B20D1494B1B681B68002B0AD04FF01D
:1009E000500383F31188BFF36F8FBFF34F8F3B60CA
:1009F00000BFFEE7414B1B68FB60414B1B683F4A51
:100A000013603F4AFB6813603E4B1B6801333D4A4D
:100A1000136000F0E9F83C4B1B683A699A4249D3ED
:100A2000364B1B681B68002B04D1374B4FF0FF324D
:100A30001A603FE0314B1B68DB68DB68BB60BB685A
:100A40005B687B603A697B689A4203D22E4A7B6876
:100A500013602FE0BB6804331846FFF70BFFBB6839
:100A60009B6A002B04D0BB6818331846FFF702FFBF
:100A7000BB68DA6A254B1B689A4203D9BB68DB6AFC
:100A8000224A1360BB68DA6A13469B0013449B003A
:100A90001F4A1A44BB68043319461046FFF7C6FEC6
:100AA000BB68DA6A1B4B1B68DB6A9A42B8D3012326
:100AB0007B61B5E7174B1B68DA6A154913469B0043
:100AC00013449B000B441B68012B01D901237B615C
:100AD000114B1B68002B07D001237B6104E00F4BF7
:100AE0001B6801330D4A13607B6918461837BD46F1
:100AF00080BD00BF2007002004070020FC06002066
:100B000000070020180700201C070020080700200D
:100B10009C020020980200201407002010070020EB
:100B200080B485B000AF2A4B1B68002B03D0294B43
:100B300001221A6046E0274B00221A60264B1B68F0
:100B4000FB6010E0FB68002B0AD14FF0500383F3E9
:100B50001188BFF36F8FBFF34F8F7B6000BFFEE73D
:100B6000FB68013BFB601D49FA6813469B00134478
:100B70009B000B441B68002BE4D0FA6813469B00D3
:100B800013449B00154A1344BB60BB685B685A68FA
:100B9000BB685A60BB685A68BB6808339A4204D184
:100BA000BB685B685A68BB685A60BB685B68DB6897
:100BB0000B4A1360084AFB681360094B1B685433E7
:100BC000084A136000BF1437BD465DF8047B7047C8
:100BD0002007002014070020080700209C020020A6
:100BE000980200208001002080B483B000AF0C4B3D
:100BF0001B681B68002B04D10A4B4FF0FF321A60B0
:100C000008E0074B1B68DB68DB687B607B685B6820
:100C1000044A136000BF0C37BD465DF8047B704783
:100C2000FC0600201C07002080B483B000AF0B4BF3
:100C30001B68002B02D101237B6008E0084B1B6876
:100C4000002B02D102237B6001E000237B607B68E4
:100C500018460C37BD465DF8047B70470C07002032
:100C60002007002080B485B000AF78607B6803F077
:100C70000703FB600C4BDB68BB60BA684FF6FF03F1
:100C80001340BB60FB681A02BB68134343F0BF63A9
:100C900043F40033BB60044ABB68D36000BF143721
:100CA000BD465DF8047B704700ED00E080B400AF06
:100CB000044BDB681B0A03F007031846BD465DF8CA
:100CC000047B704700ED00E080B483B000AF0346C2
:100CD000FB7197F90730002B0BDBFB7903F01F0248
:100CE000074997F907305B09012000FA02F241F841
:100CF000232000BF0C37BD465DF8047B704700BF62
:100D000000E100E080B483B000AF03463960FB71BE
:100D100097F90730002B0ADB3B68DAB20C4997F9E8
:100D200007301201D2B20B4483F800230AE03B687B
:100D3000DAB20849FB7903F00F03043B1201D2B287
:100D40000B441A7600BF0C37BD465DF8047B704734
:100D500000E100E000ED00E080B489B000AFF86091
:100D6000B9607A60FB6803F00703FB61FB69C3F1BC
:100D70000703042B28BF0423BB61FB690433062B44
:100D800002D9FB69033B00E000237B614FF0FF3297
:100D9000BB6902FA03F3DA43BB681A407B699A40E5
:100DA0004FF0FF317B6901FA03F3D9437B680B40B5
:100DB000134318462437BD465DF8047B704780B561
:100DC00082B000AF78607868FFF74CFF00BF08374B
:100DD000BD4680BD80B586B000AF0346B9607A607D
:100DE000FB7300237B61FFF761FF78617A68B96864
:100DF0007869FFF7B1FF024697F90F3011461846A0
:100E0000FFF780FF00BF1837BD4680BD80B582B0B8
:100E100000AF0346FB7197F907301846FFF754FF00
:100E200000BF0837BD4680BD80B485B000AF786094
:100E30000023FB737B6893F82530DBB2022B08D0CC
:100E40007B680422DA637B68002283F82420012374
:100E500022E07B681B681A687B681B6822F00E0220
:100E60001A607B681B681A687B681B6822F00102A5
:100E70001A607B685B6C03F01C027B681B6C0121B1
:100E800001FA02F25A607B68012283F825207B6810
:100E9000002283F82420FB7B18461437BD465DF8FA
:100EA000047B704780B584B000AF78600023FB738B
:100EB0007B6893F82530DBB2022B05D07B680422D7
:100EC000DA630123FB7329E07B681B681A687B687F
:100ED0001B6822F00E021A607B681B681A687B6828
:100EE0001B6822F001021A607B685B6C03F01C0235
:100EF0007B681B6C012101FA02F25A607B680122B7
:100F000083F825207B68002283F824207B689B6B74
:100F1000002B03D07B689B6B78689847FB7B184657
:100F20001037BD4680BD000080B487B000AF786048
:100F3000396000237B6154E13B681A6801217B69B9
:100F400001FA03F31340FB60FB68002B00F04681BD
:100F50003B685B6803F00303012B05D03B685B68CB
:100F600003F00303022B30D17B689B683B617B69F4
:100F70005B00032202FA03F3DB433A6913403B614F
:100F80003B68DA687B695B0002FA03F33A69134352
:100F90003B617B683A699A607B685B683B610122D0
:100FA0007B6902FA03F3DB433A6913403B613B6818
:100FB0005B681B0903F001027B6902FA03F33A69DB
:100FC00013433B617B683A695A603B685B6803F096
:100FD0000303032B17D07B68DB683B617B695B00F5
:100FE000032202FA03F3DB433A6913403B613B6897
:100FF0009A687B695B0002FA03F33A6913433B6129
:101000007B683A69DA603B685B6803F00303022B94
:1010100023D17B69DA087B68083253F822303B61C0
:101020007B6903F007039B000F2202FA03F3DB4303
:101030003A6913403B613B681A697B6903F0070317
:101040009B0002FA03F33A6913433B617B69DA08B8
:101050007B680832396943F822107B681B683B6162
:101060007B695B00032202FA03F3DB433A69134016
:101070003B613B685B6803F003027B695B0002FA3B
:1010800003F33A6913433B617B683A691A603B6832
:101090005B6803F44033002B00F0A080584B1B6EBC
:1010A000574A43F001031366554B1B6E03F00103CF
:1010B000BB60BB68534A7B699B08023352F82330FC
:1010C0003B617B6903F003039B000F2202FA03F3E9
:1010D000DB433A6913403B617B68B3F1904F19D011
:1010E0007B68494A934213D07B68484A93420DD0AB
:1010F0007B68474A934207D07B68464A934201D1B6
:10110000042308E0072306E0032304E0022302E0AF
:10111000012300E000237A6902F003029200934069
:101120003A6913433B6137497B699B0802333A694B
:1011300041F82320384B9B683B61FB68DB433A69ED
:1011400013403B613B685B6803F48013002B03D0C2
:101150003A69FB6813433B612F4A3B6993602E4B0E
:10116000DB683B61FB68DB433A6913403B613B68EA
:101170005B6803F40013002B03D03A69FB68134348
:101180003B61254A3B69D360234B5B683B61FB684D
:10119000DB433A6913403B613B685B6803F400330F
:1011A000002B03D03A69FB6813433B611A4A3B6941
:1011B0005360194B1B683B61FB68DB433A69134082
:1011C0003B613B685B6803F48033002B03D03A69D2
:1011D000FB6813433B61104A3B6913607B69013331
:1011E0007B613B681A687B6922FA03F3002B7FF46A
:1011F000A3AE00BF00BF1C37BD465DF8047B70473F
:1012000000100240000001400004004800080048AF
:10121000000C0048001000480004014080B483B076
:1012200000AF78600B467B8013467B707B78002B89
:1012300003D07A887B689A6102E07A887B689A6238
:1012400000BF0C37BD465DF8047B704780B485B0A5
:1012500000AF78600B467B807B685B69FB607A88B7
:10126000FB6813401A04FB68D9437B880B401A4380
:101270007B689A6100BF1437BD465DF8047B7047F8
:1012800080B582B000AF0346FB80084B5A69FB88EB
:101290001340002B06D0054AFB885361FB88184693
:1012A00000F006F800BF0837BD4680BD00040140CD
:1012B00080B483B000AF0346FB8000BF0C37BD464F
:1012C0005DF8047B704780B584B000AF78607B68C0
:1012D0001B689B69FB607B681B681B68BB607B6845
:1012E0005B6B002B05D07B685B6BBA68F96878682C
:1012F000984700BF1037BD4680BD000080B400AFE6
:10130000044B1B6803F4C0631846BD465DF8047BBC
:10131000704700BF0070004080B485B000AF7860B7
:101320007B68B3F5007F30D1234B1B6803F4C063A7
:10133000B3F5007F38D0204B1B6823F4C0631E4AEE
:1013400043F4007313601D4B1B68322202FB03F34E
:101350001B4AA2FB03239B0C0133FB6002E0FB68EA
:10136000013BFB60144B5B6903F48063B3F5806F52
:1013700002D1FB68002BF2D10F4B5B6903F4806351
:10138000B3F5806F10D103230FE00B4B1B6803F400
:10139000C063B3F5806F07D0074B1B6823F4C063AD
:1013A000054A43F480631360002318461437BD4692
:1013B0005DF8047B704700BF0070004028010020EA
:1013C00083DE1B4380B588B000AF78607B68002B5C
:1013D00002D1012300F002BC964B9B6803F00C0382
:1013E000BB61944BDB6803F003037B617B681B6884
:1013F00003F01003002B00F0E480BB69002B07D042
:10140000BB690C2B40F08B807B69012B40F08780FF
:10141000884B1B6803F00203002B05D07B689B6997
:10142000002B01D10123D9E37B681A6A814B1B6829
:1014300003F00803002B04D07E4B1B6803F0F0037D
:1014400005E07C4BD3F894301B0903F0F003934282
:1014500023D27B681B6A184600F0A6FD0346002BCA
:1014600001D00123BAE3734B1B68724A43F00803AF
:101470001360704B1B6823F0F0027B681B6A6D4998
:1014800013430B606B4B5B6823F47F427B68DB6923
:101490001B02684913434B6025E0664B1B68654A95
:1014A00043F008031360634B1B6823F0F0027B6872
:1014B0001B6A604913430B605E4B5B6823F47F42F9
:1014C0007B68DB691B025B4913434B60BB69002BE4
:1014D00009D17B681B6A184600F066FD0346002BA5
:1014E00001D001237AE300F081FC0246514B9B6856
:1014F0001B0903F00F035049CB5C03F01F0322FAD2
:1015000003F34E4A13604E4B1B681846FFF7B2F8C0
:101510000346FB73FB7B002B52D0FB7B5EE37B68B7
:101520009B69002B32D0434B1B68424A43F00103B6
:10153000136001F0F5FB386108E001F0F1FB0246B1
:101540003B69D31A022B01D9032347E3394B1B68AC
:1015500003F00203002BF0D0364B1B68354A43F0F2
:1015600008031360334B1B6823F0F0027B681B6A8F
:10157000304913430B602F4B5B6823F47F427B6839
:10158000DB691B022B4913434B601AE0294B1B6894
:10159000284A23F00103136001F0C2FB386108E020
:1015A00001F0BEFB02463B69D31A022B01D903238B
:1015B00014E3204B1B6803F00203002BF0D100E082
:1015C00000BF7B681B6803F00103002B73D0BB696D
:1015D000082B05D0BB690C2B0ED17B69032B0BD1DB
:1015E000144B1B6803F40033002B63D07B685B68EB
:1015F000002B5FD10123F1E27B685B68B3F5803F8C
:1016000006D10C4B1B680B4A43F48033136025E072
:101610007B685B68B3F5A02F14D1064B1B68054AA5
:1016200043F480231360034B1B68024A43F4803366
:10163000136013E000100240E4300008280100208D
:101640002C010020A04B1B689F4A23F480331360B9
:101650009D4B1B689C4A23F4802313607B685B6866
:10166000002B13D001F05CFB386108E001F058FB5F
:1016700002463B69D31A642B01D90323AEE2924B95
:101680001B6803F40033002BF0D014E001F048FB9A
:10169000386108E001F044FB02463B69D31A642B31
:1016A00001D903239AE2884B1B6803F40033002B13
:1016B000F0D100E000BF7B681B6803F00203002B41
:1016C00060D0BB69042B05D0BB690C2B19D17B6999
:1016D000022B16D17C4B1B6803F48063002B05D0D2
:1016E0007B68DB68002B01D1012377E2764B5B68D6
:1016F00023F0F8527B681B691B06734913434B6048
:1017000040E07B68DB68002B23D06F4B1B686E4A80
:1017100043F48073136001F003FB386108E001F0CB
:10172000FFFA02463B69D31A022B01D9032355E283
:10173000654B1B6803F48063002BF0D0624B5B6841
:1017400023F0F8527B681B691B065F4913434B600B
:1017500018E05D4B1B685C4A23F48073136001F052
:10176000DFFA386108E001F0DBFA02463B69D31A80
:10177000022B01D9032331E2534B1B6803F480632E
:10178000002BF0D17B681B6803F00803002B3CD0D2
:101790007B685B69002B1CD04B4BD3F894304A4AD2
:1017A00043F00103C2F8943001F0BAFA386108E05E
:1017B00001F0B6FA02463B69D31A022B01D9032382
:1017C0000CE2414BD3F8943003F00203002BEFD02E
:1017D0001BE03D4BD3F894303B4A23F00103C2F8A1
:1017E000943001F09DFA386108E001F099FA024660
:1017F0003B69D31A022B01D90323EFE1324BD3F813
:10180000943003F00203002BEFD17B681B6803F0D8
:101810000403002B00F0A6800023FB772A4B9B6D6E
:1018200003F08053002B0DD1274B9B6D264A43F0CC
:1018300080539365244B9B6D03F08053BB60BB6862
:101840000123FB77214B1B6803F48073002B18D115
:101850001E4B1B681D4A43F48073136001F060FA4D
:10186000386108E001F05CFA02463B69D31A022BAA
:1018700001D90323B2E1154B1B6803F48073002BDD
:10188000F0D07B689B68012B08D10F4BD3F89030C8
:101890000D4A43F00103C2F8903029E07B689B6851
:1018A000052B15D1084BD3F89030074A43F00403B9
:1018B000C2F89030044BD3F89030034A43F0010350
:1018C000C2F8903014E000BF0010024000700040E9
:1018D0009A4BD3F89030994A23F00103C2F8903024
:1018E000964BD3F89030954A23F00403C2F8903019
:1018F0007B689B68002B16D001F012FA38610AE071
:1019000001F00EFA02463B69D31A41F28832934243
:1019100001D9032362E1894BD3F8903003F002032D
:10192000002BEDD015E001F0FBF938610AE001F081
:10193000F7F902463B69D31A41F28832934201D942
:1019400003234BE17D4BD3F8903003F00203002BCF
:10195000EDD1FB7F012B05D1784B9B6D774A23F0AE
:10196000805393657B681B6803F02003002B3CD0F9
:101970007B685B6A002B1CD0704BD3F898306F4AA1
:1019800043F00103C2F8983001F0CAF9386108E069
:1019900001F0C6F902463B69D31A022B01D9032391
:1019A0001CE1664BD3F8983003F00203002BEFD014
:1019B0001BE0624BD3F89830604A23F00103C2F871
:1019C000983001F0ADF9386108E001F0A9F902465C
:1019D0003B69D31A022B01D90323FFE0574BD3F8FD
:1019E000983003F00203002BEFD17B689B6A002B39
:1019F00000F0F3807B689B6A022B40F0C9804F4B5C
:101A0000DB687B617B6903F003027B68DB6A9A42D7
:101A10002CD17B6903F070027B681B6B013B1B01BF
:101A20009A4223D17B6903F4FE427B685B6B1B0205
:101A30009A421BD17B6903F078427B689B6BDB0683
:101A40009A4213D17B6903F4C0027B68DB6B5B08AD
:101A5000013B5B059A4209D17B6903F0C0627B6858
:101A60001B6C5B08013B5B069A426BD0BB690C2B7D
:101A700062D0324B1B6803F08063002B01D001233E
:101A8000ACE02E4B1B682D4A23F08073136001F0ED
:101A900047F9386108E001F043F902463B69D31A7F
:101AA000022B01D9032399E0244B1B6803F0007338
:101AB000002BF0D1214BDA68214B13407A68D16AB0
:101AC0007A68126B013A120111437A68526B120262
:101AD00011437A68D26B5208013A520511437A6871
:101AE000126C5208013A520611437A68926BD20680
:101AF0000A4312491343CB60104B1B680F4A43F053
:101B0000807313600D4BDB680C4A43F08073D36025
:101B100001F006F9386108E001F002F902463B697C
:101B2000D31A022B01D9032358E0044B1B6803F09E
:101B30000073002BF0D050E001234FE00010024072
:101B40008C809D01274B1B6803F00073002B44D150
:101B5000244B1B68234A43F080731360214BDB68DE
:101B6000204A43F08073D36001F0DAF8386108E06E
:101B700001F0D6F802463B69D31A022B01D90323A0
:101B80002CE0184B1B6803F00073002BF0D024E00E
:101B9000BB690C2B1FD0134B1B68124A23F08073B8
:101BA000136001F0BDF8386108E001F0B9F80246B1
:101BB0003B69D31A022B01D903230FE0094B1B68A1
:101BC00003F00073002BF0D1064BDA680549064B91
:101BD0001340CB6001E0012300E0002318462037CA
:101BE000BD4680BD00100240FCFFEEFE80B584B013
:101BF00000AF786039607B68002B01D10123E7E0FA
:101C0000754B1B6803F007033A689A4210D9724B70
:101C10001B6823F0070270493B6813430B606E4B4F
:101C20001B6803F007033A689A4201D00123CFE012
:101C30007B681B6803F00203002B10D07B689A6856
:101C4000664B9B6803F0F0039A4208D9634B9B688C
:101C500023F0F0027B689B68604913438B607B68CC
:101C60001B6803F00103002B4CD07B685B68032BDF
:101C700007D15A4B1B6803F00073002B21D10123BD
:101C8000A6E07B685B68022B07D1544B1B6803F40A
:101C90000033002B15D101239AE07B685B68002B91
:101CA00007D14E4B1B6803F00203002B09D101231F
:101CB0008EE04A4B1B6803F48063002B01D10123A3
:101CC00086E0464B9B6823F003027B685B684349D0
:101CD00013438B6001F024F8F8600AE001F020F86B
:101CE0000246FB68D31A41F28832934201D903239A
:101CF0006EE03A4B9B6803F00C027B685B689B00CC
:101D00009A42EBD17B681B6803F00203002B10D0D2
:101D10007B689A68314B9B6803F0F0039A4208D2C3
:101D20002E4B9B6823F0F0027B689B682B49134382
:101D30008B60294B1B6803F007033A689A4210D264
:101D4000254B1B6823F0070223493B6813430B60B4
:101D5000214B1B6803F007033A689A4201D0012324
:101D600036E07B681B6803F00403002B08D01B4B94
:101D70009B6823F4E0627B68DB68184913438B603F
:101D80007B681B6803F00803002B09D0134B9B688A
:101D900023F460527B681B69DB00104913438B609E
:101DA00000F024F802460D4B9B681B0903F00F035B
:101DB0000B49CB5C03F01F0322FA03F3094A1360BB
:101DC000094B1B681846FEF755FC0346FB72FB7A6D
:101DD00018461037BD4680BD00200240001002406A
:101DE000E4300008280100202C01002080B489B0D4
:101DF00000AF0023FB610023BB613E4B9B6803F0F7
:101E00000C033B613B4BDB6803F00303FB603B6966
:101E1000002B05D03B690C2B21D1FB68012B1ED177
:101E2000344B1B6803F00803002B07D1314BD3F868
:101E300094301B0A03F00F03FB6105E02D4B1B6878
:101E40001B0903F00F03FB612B4AFB6952F8233097
:101E5000FB613B69002B0DD1FB69BB610AE03B696B
:101E6000042B02D1254BBB6104E03B69082B01D157
:101E7000224BBB613B690C2B34D11E4BDB6803F05A
:101E80000303BB60BB68022B03D0BB68032B03D0EA
:101E900005E01A4B7B6105E0184B7B6102E0FB69B2
:101EA0007B6100BF134BDB681B0903F007030133A1
:101EB0007B60104BDB681B0A03F07F037A6903FB2E
:101EC00002F27B68B2FBF3F37B610A4BDB685B0ECB
:101ED00003F0030301335B003B607A693B68B2FBAC
:101EE000F3F3BB61BB6918462437BD465DF8047B3C
:101EF000704700BF00100240FC3000080024F400CE
:101F000080B400AF034B1B681846BD465DF8047BE8
:101F1000704700BF2801002080B500AFFFF7F0FF39
:101F20000246064B9B68DB0A03F007030449CB5CBF
:101F300003F01F0322FA03F3184680BD001002408D
:101F4000F430000880B483B000AF786039607B68FB
:101F50000F221A60124B9B6803F003027B685A60E1
:101F60000F4B9B6803F0F0027B689A600C4B9B68F8
:101F700003F4E0627B68DA60094B9B68DB0803F4DA
:101F8000E0627B681A61074B1B6803F007023B683D
:101F90001A6000BF0C37BD465DF8047B704700BF78
:101FA000001002400020024080B586B000AF78608B
:101FB00000233B612A4B9B6D03F08053002B03D021
:101FC000FFF79CF9786114E0254B9B6D244A43F0A0
:101FD00080539365224B9B6D03F08053FB60FB683D
:101FE000FFF78CF978611E4B9B6D1D4A23F08053DF
:101FF00093657B69B3F5007F0BD17B68802B19D982
:102000007B68A02B02D902233B6113E001233B61D3
:1020100010E07B68802B02D903233B610AE07B68D8
:10202000802B02D102233B6104E07B68702B01D13D
:1020300001233B610B4B1B6823F0070209493B69F5
:1020400013430B60074B1B6803F007033A699A427E
:1020500001D0012300E0002318461837BD4680BD9B
:10206000001002400020024080B483B000AF7860CE
:1020700000BF0C37BD465DF8047B704780B483B069
:1020800000AF786000BF0C37BD465DF8047B704739
:1020900080B483B000AF786000BF0C37BD465DF8F8
:1020A000047B704780B582B000AF78607B68002BFE
:1020B00001D1012349E07B6893F83D30DBB2002B6E
:1020C00006D17B68002283F83C20786800F041F854
:1020D0007B68022283F83D207B681A687B680433A2
:1020E0001946104600F0DCF97B68012283F848208D
:1020F0007B68012283F83E207B68012283F83F2021
:102100007B68012283F840207B68012283F841200C
:102110007B68012283F842207B68012283F84320F8
:102120007B68012283F844207B68012283F84520E4
:102130007B68012283F846207B68012283F84720D0
:102140007B68012283F83D20002318460837BD46EE
:1021500080BD80B483B000AF786000BF0C37BD464F
:102160005DF8047B7047000080B485B000AF7860F4
:102170007B6893F83D30DBB2012B01D001233BE0BB
:102180007B68022283F83D207B681B68DA687B68E5
:102190001B6842F00102DA607B681B68194A9342AF
:1021A00009D07B681B68B3F1804F04D07B681B6843
:1021B000154A934215D17B681B689A68134B1340EC
:1021C000FB60FB68062B15D0FB68B3F5803F11D090
:1021D0007B681B681A687B681B6842F001021A6002
:1021E00008E07B681B681A687B681B6842F0010284
:1021F0001A6000E000BF002318461437BD465DF8A2
:10220000047B7047002C01400040014007000100A2
:1022100080B582B000AF78607B681B681B6903F0F3
:102220000203022B22D17B681B68DB6803F00203E8
:10223000022B1BD17B681B686FF002021A617B685E
:1022400001221A777B681B689B6903F00303002B4C
:1022500003D0786800F005F905E0786800F0F7F839
:10226000786800F008F97B6800221A777B681B68A1
:102270001B6903F00403042B22D17B681B68DB6815
:1022800003F00403042B1BD17B681B686FF004026E
:102290001A617B6802221A777B681B689B6903F4CA
:1022A0004073002B03D0786800F0DBF805E0786815
:1022B00000F0CDF8786800F0DEF87B6800221A772D
:1022C0007B681B681B6903F00803082B22D17B681D
:1022D0001B68DB6803F00803082B1BD17B681B68B5
:1022E0006FF008021A617B6804221A777B681B680A
:1022F000DB6903F00303002B03D0786800F0B1F82A
:1023000005E0786800F0A3F8786800F0B4F87B681E
:1023100000221A777B681B681B6903F01003102BDF
:1023200022D17B681B68DB6803F01003102B1BD1E4
:102330007B681B686FF010021A617B6808221A77AD
:102340007B681B68DB6903F44073002B03D078685B
:1023500000F087F805E0786800F079F8786800F018
:102360008AF87B6800221A777B681B681B6903F078
:102370000103012B0ED17B681B68DB6803F00103AE
:10238000012B07D17B681B686FF001021A61786826
:10239000FEF730F97B681B681B6903F08003802B14
:1023A0000ED17B681B68DB6803F08003802B07D1AC
:1023B0007B681B686FF080021A617868FFF75EFE29
:1023C0007B681B681B6903F48073B3F5807F0ED1B3
:1023D0007B681B68DB6803F08003802B07D17B6878
:1023E0001B686FF480721A617868FFF751FE7B6892
:1023F0001B681B6903F04003402B0ED17B681B68F0
:10240000DB6803F04003402B07D17B681B686FF04B
:1024100040021A61786800F038F87B681B681B6915
:1024200003F02003202B0ED17B681B68DB6803F0D0
:102430002003202B07D17B681B686FF020021A61F4
:102440007868FFF711FE00BF0837BD4680BD80B435
:1024500083B000AF786000BF0C37BD465DF8047BE9
:10246000704780B483B000AF786000BF0C37BD46C2
:102470005DF8047B704780B483B000AF786000BF24
:102480000C37BD465DF8047B704780B483B000AF65
:10249000786000BF0C37BD465DF8047B70470000D4
:1024A00080B485B000AF786039607B681B68FB60E2
:1024B0007B682A4A934203D07B68B3F1804F08D1EE
:1024C000FB6823F07003FB603B685B68FA681343AA
:1024D000FB607B68214A93420BD07B68B3F1804F4D
:1024E00007D07B681E4A934203D07B681D4A934203
:1024F00008D1FB6823F44073FB603B68DB68FA6833
:102500001343FB60FB6823F080023B685B69134365
:10251000FB607B68FA681A603B689A687B68DA62DD
:102520003B681A687B689A627B680C4A934207D0C2
:102530007B680B4A934203D07B680A4A934203D1DB
:102540003B681A697B681A637B6801225A6100BF85
:102550001437BD465DF8047B704700BF002C014076
:10256000004001400044014080B483B000AF786077
:1025700000BF0C37BD465DF8047B704780B5BAB02C
:1025800000AF78607B681B68DB69C7F8E4307B6864
:102590001B681B68C7F8E0307B681B689B68C7F83E
:1025A000DC30D7F8E42040F60F031340C7F8D830EA
:1025B000D7F8D830002B15D1D7F8E43003F020033A
:1025C000002B0FD0D7F8E03003F02003002B09D008
:1025D0007B685B6E002B00F0A6827B685B6E786880
:1025E0009847A0E2D7F8D830002B00F01781D7F831
:1025F000DC3003F00103002B06D1D7F8E020854B37
:102600001340002B00F00A81D7F8E43003F00103F7
:10261000002B11D0D7F8E03003F48073002B0BD0DF
:102620007B681B6801221A627B68D3F8803043F014
:1026300001027B68C3F88020D7F8E43003F002037E
:10264000002B11D0D7F8DC3003F00103002B0BD0A6
:102650007B681B6802221A627B68D3F8803043F0E3
:1026600004027B68C3F88020D7F8E43003F0040349
:10267000002B11D0D7F8DC3003F00103002B0BD076
:102680007B681B6804221A627B68D3F8803043F0B1
:1026900002027B68C3F88020D7F8E43003F0080317
:1026A000002B17D0D7F8E03003F02003002B05D122
:1026B000D7F8DC3003F00103002B0BD07B681B68DC
:1026C00008221A627B68D3F8803043F008027B68E6
:1026D000C3F88020D7F8E43003F40063002B12D055
:1026E000D7F8E03003F08063002B0CD07B681B68C8
:1026F0004FF400621A627B68D3F8803043F0200206
:102700007B68C3F880207B68D3F88030002B00F012
:102710000C82D7F8E43003F02003002B0DD0D7F85B
:10272000E03003F02003002B07D07B685B6E002BAA
:1027300003D07B685B6E786898477B68D3F88030FD
:10274000C7F8D4307B681B689B6803F04003402BBC
:1027500005D0D7F8D43003F02803002B4FD0786889
:1027600000F00EFA7B681B689B6803F04003402B67
:1027700041D17B681B680833C7F89C30D7F89C3080
:1027800053E8003FC7F89830D7F8983023F040035B
:10279000C7F8D0307B681B680833D7F8D020C7F85B
:1027A000A820C7F8A430D7F8A410D7F8A82041E88B
:1027B0000023C7F8A030D7F8A030002BD9D17B6810
:1027C0001B6F002B13D07B681B6F134A9A637B68C7
:1027D0001B6F1846FEF766FB0346002B17D07B687D
:1027E0001B6F9B6B7A68126F104698470FE07868F2
:1027F00000F0B0F90BE0786800F0ACF907E0786819
:1028000000F0A8F97B680022C3F880208DE100BFAA
:102810008BE100BF20010004472C00087B681B6E81
:10282000012B40F04681D7F8E43003F01003002B71
:1028300000F03F81D7F8E03003F01003002B00F0E8
:1028400038817B681B6810221A627B681B689B6852
:1028500003F04003402B40F0B4807B681B6F1B6883
:102860005B68A7F8BE30B7F8BE30002B00F05F8180
:102870007B68B3F85830B7F8BE209A4280F0578191
:102880007B68B7F8BE20A3F85A207B681B6F1B68D3
:102890001B6803F02003002B40F085807B681B68D9
:1028A000C7F88830D7F8883053E8003FC7F884303D
:1028B000D7F8843023F48073C7F8B8307B681B687E
:1028C0001A46D7F8B830C7F89430C7F89020D7F830
:1028D0009010D7F8942041E80023C7F88C30D7F83F
:1028E0008C30002BDAD17B681B6808337B677B6FE9
:1028F00053E8003F3B673B6F23F00103C7F8B43058
:102900007B681B680833D7F8B420C7F88020FB67C2
:10291000F96FD7F8802041E80023BB67BB6F002B1D
:10292000E1D17B681B6808333B663B6E53E8003F90
:10293000FB65FB6D23F04003C7F8B0307B681B6874
:102940000833D7F8B020FA66BB66B96EFA6E41E874
:1029500000237B667B6E002BE3D17B682022DA6745
:102960007B6800221A667B681B68FB64FB6C53E87B
:10297000003FBB64BB6C23F01003C7F8AC307B682E
:102980001B681A46D7F8AC30BB657A65796DBA6DAD
:1029900041E800233B653B6D002BE4D17B681B6F56
:1029A0001846FEF741FA7B68B3F858207B68B3F805
:1029B0005A309BB2D31A9BB21946786800F0D4F80B
:1029C000B5E07B68B3F858207B68B3F85A309BB207
:1029D000D31AA7F8CE307B68B3F85A309BB2002BDD
:1029E00000F0A780B7F8CE30002B00F0A2807B6803
:1029F0001B68BB63BB6B53E8003F7B637B6B23F4BB
:102A00009073C7F8C8307B681B681A46D7F8C8307F
:102A10007B643A64396C7A6C41E80023FB63FB6B9E
:102A2000002BE4D17B681B6808337B627B6A53E828
:102A3000003F3B623B6A23F00103C7F8C4307B6868
:102A40001B680833D7F8C4203A63FB62F96A3A6B13
:102A500041E80023BB62BB6A002BE3D17B682022E4
:102A6000DA677B6800221A667B6800225A667B68F8
:102A70001B683B613B6953E8003FFB60FB6823F048
:102A80001003C7F8C0307B681B681A46D7F8C030FF
:102A9000FB61BA61B969FA6941E800237B617B692E
:102AA000002BE4D1B7F8CE301946786800F05CF816
:102AB0003FE0D7F8E43003F48013002B0ED0D7F8B2
:102AC000DC3003F48003002B08D07B681B684FF4D4
:102AD00080121A627868FFF747FD2DE0D7F8E430DE
:102AE00003F08003002B0ED0D7F8E03003F0800312
:102AF000002B08D07B689B6E002B1CD07B689B6EE4
:102B00007868984717E0D7F8E43003F04003002BCB
:102B100012D0D7F8E03003F04003002B0CD07868D7
:102B200000F0A7F808E000BF06E000BF04E000BF27
:102B300002E000BF00E000BFE837BD4680BD00BF37
:102B400080B483B000AF786000BF0C37BD465DF83D
:102B5000047B704780B483B000AF786000BF0C374F
:102B6000BD465DF8047B704780B483B000AF7860E9
:102B70000B467B8000BF0C37BD465DF8047B704779
:102B800080B495B000AF78607B681B687B637B6B1B
:102B900053E8003F3B633B6B23F49073FB647B681B
:102BA0001B681A46FB6C3B64FA63F96B3A6C41E8AC
:102BB0000023BB63BB6B002BE6D17B681B6808332B
:102BC0003B623B6A53E8003FFB61FB6923F0010372
:102BD000BB647B681B680833BA6CFA62BB62B96A73
:102BE000FA6A41E800237B627B6A002BE5D17B68AF
:102BF0001B6E012B18D17B681B68FB60FB6853E8D8
:102C0000003FBB60BB6823F010037B647B681B68DC
:102C10001A467B6CBB617A617969BA6941E8002325
:102C20003B613B69002BE6D17B682022DA677B6839
:102C300000221A667B6800225A6600BF5437BD46E0
:102C40005DF8047B704780B584B000AF78607B6826
:102C50009B6AFB60FB680022A3F85A20FB680022F5
:102C6000A3F85220F868FFF775FF00BF1037BD4684
:102C700080BD80B588B000AF78607B681B68FB6062
:102C8000FB6853E8003FBB60BB6823F04003FB6177
:102C90007B681B681A46FB69BB617A617969BA690E
:102CA00041E800233B613B69002BE6D17B68202291
:102CB0009A677B6800229A667868FFF741FF00BF39
:102CC0002037BD4680BD80B582B000AF0023FB71C8
:102CD0000320FEF774F80F20FDF7CCFC0346002B11
:102CE00002D00123FB7101E0FDF79CFCFB79184643
:102CF0000837BD4680BD000080B400AF064B1B788E
:102D00001A46064B1B681344044A136000BFBD46B5
:102D10005DF8047B704700BF3001002024070020CD
:102D200080B400AF034B1B681846BD465DF8047BBA
:102D3000704700BF2407002080B584B000AF7860E2
:102D4000FFF7EEFFB8607B68FB60FB68B3F1FF3F05
:102D500005D00A4B1B781A46FB681344FB6000BF82
:102D6000FFF7DEFF0246BB68D31AFA689A42F7D82B
:102D700000BF00BF1037BD4680BD00BF300100203E
:102D800002440346934200D1704703F8011BF9E760
:102D900070B50D4D0D4C641BA4100026A64209D140
:102DA0000B4D0C4C00F018F8641BA4100026A64232
:102DB00005D170BD55F8043B98470136EEE755F84C
:102DC000043B98470136F2E72C3100082C3100080B
:102DD0002C31000830310008F8B500BFF8BC08BC41
:102DE0009E467047F8B500BFF8BC08BC9E467047C9
:102DF0000000004802000000000021000000000068
:102E00000100000000000000010700000000004871
:102E100004000000020000000300000000000000A9
:102E20000700000000FF000000000048080000004C
:102E30000200000003000000000000000700000086
:102E400000FF00000000004810000000010000002A
:102E500000000000000000000000000000FF000073
:102E600000000048200000000000120000000000E8
:102E7000000000000000000000FF0000000000480B
:102E80004000000001000000000000000000000001
:102E90000000000000FF000000000048800000006B
:102EA0000100000000000000000000000000000021
:102EB00000FF0000000000480002000012000000B7
:102EC00003000000000000000400000000FF0000FC
:102ED0000000004800040000120000000300000091
:102EE000000000000400000000FF00000000004897
:102EF00000080000010000000000000000000000C9
:102F00000000000000FF000000000048001000006A
:102F100001000000000000000000000000000000B0
:102F200000FF000000040048010000000000210034
:102F300000000000010000000000000001FF000090
:102F40000004004802000000010000000000000032
:102F5000000000000000000000FF00000004004826
:102F6000040000000100000000000000000000005C
:102F70000000000000FF00000004004840000000C6
:102F80000200000003000000000000000700000035
:102F900000FF000000040048800000000200000064
:102FA00003000000000000000700000000FF000018
:102FB00000040048000400001200000003000000AC
:102FC000000000000400000000FF000000040048B2
:102FD00000080000120000000300000000000000D4
:102FE0000400000000FF0000000400480010000082
:102FF00001000000000000000000000000000000D0
:1030000000FF000000040048002000000100000054
:1030100000000000000000000000000000FF0000B1
:103020000004004800400000010000000000000013
:10303000000000000000000000FF00000004004845
:1030400000800000010000000000000000000000FF
:103050000000000000FF0000000800481000000011
:10306000010000000000000001000000000000005E
:1030700000FF0000000800484000000001000000C0
:1030800000000000000000000000000000FF000041
:10309000000800488000000001000000000000005F
:1030A000000000000000000000FF000000080048D1
:1030B000000100000100000000000000000000000E
:1030C0000000000000FF00000008004800020000AF
:1030D00001000000000000000000000000000000EF
:1030E00000FF0000000000000000000001020304D7
:1030F000060708090000000001020304A086010081
:10310000400D0300801A060000350C0040420F00FD
:1031100080841E0000093D0000127A000024F400A3
:0C31200000366E010048E801006CDC0283
:04312C00B5010008E1
:043130009101000801
:10313400000000000000000000000000000000008B
:10314400000000000000000000000000000000007B
:10315400000000000000000000000000000000006B
:10316400000000000000000000000000000000005B
:10317400000000000000000000000000000000004B
:10318400000000000000000000000000000000003B
:10319400000000000000000000000000000000002B
:1031A400000000000000000000000000000000001B
:1031B4000000000000000000080000000000000003
:1031C40000000000000000000000000000000000FB
:1031D40000000000000000000000000000000000EB
:1031E40000000000000000000000000000000000DB
:1031F40000000000000000000000000000000000CB
:1032040000000000000000000000000000000000BA
:1032140000000000000000000000000000000000AA
:10322400000000000000000000000000000000009A
:10323400000000000000000000000000000000008A
:103244000000000000000000000000000800000072
:10325400000000000000000000093D001000000014
:103264000100000000000000280700209007002053
:10327400F80700200000000000000000000000002B
:10328400000000000000000000000000000000003A
:10329400000000000000000000000000000000002A
:1032A400000000000000000000000000000000001A
:0432B40034010020C1
:04000005080007B92F
:00000001FF
